:1000000000400020411C0000811C0000831C0000F7
:1000100000000000000000000000000000000000E0
:10002000000000000000000000000000851C00002F
:100030000000000000000000871C0000891C000078
:100040003D190000E13900008B1C00008B1C0000F2
:100050008B1C000000000000251800008B1C000015
:100060008B1C00008B1C00006D490000011B000070
:100070008B1C00008B1C00008B1C00008B1C0000E4
:100080008B1C0000A11B00008B1C00008B1C0000BF
:10009000393D00008B1C00008B1C00008B1C0000F5
:1000A0008B1C00008B1C0000000000000000000002
:1000B0000000000000000000000000000000000040
:1000C00010B5064C2378002B07D1054B002B02D02E
:1000D000044800E000BF0123237010BD8800002009
:1000E000000000006C4C0000044B10B5002B03D046
:1000F0000349044800E000BF10BDC04600000000F6
:100100008C0000206C4C0000144B002B00D1124BD3
:100110009D46402292029A1A924600218B460F4633
:100120001148124A121A00F07BF80D4B002B00D038
:1001300098470C4B002B00D098470020002104006A
:100140000D000B4800F016F800F046F820002900DA
:1001500001F0D0FA00F016F800000800004000207E
:10016000000000000000000088000020E0060020E1
:10017000B1010000002310B501001A00180000F0C2
:1001800057F810BD084B10B50400002B02D0002119
:1001900000F0B4F8054B1868836A002B00D098472C
:1001A000200000F007F9C046FD020000A84A000048
:1001B00070B5074D074C641BA410002C02D104F04D
:1001C0006DFC70BD013CA300EB589847F5E7C046B5
:1001D000840000208800002070B500260C4D0D4CD6
:1001E000641BA410A64209D1002604F051FC0A4D5C
:1001F0000A4C641BA410A64205D170BDB300EB5895
:1002000098470136EEE7B300EB5898470136F2E71E
:10021000800000208000002080000020840000205A
:1002200003008218934200D1704719700133F9E737
:10023000F0B52D4D85B0060028680192009102931B
:1002400000F0B4F8294A1468002C0AD1284B136036
:10025000284A1C00002A04D0190012688831039231
:100260000A6063681F2B06DD286800F0A1F80120F2
:10027000404205B0F0BD002E29D0270088373868ED
:10028000002812D11C4B002B03D1286800F08FF8F6
:10029000EDE78420400000E000BF0028F5D0030017
:1002A0000022FC335A609A6038606168019A8B00C2
:1002B000C31804C301228A40FC30416811434160E5
:1002C0000299D967022E02D183681A43826063685B
:1002D00028685A1C62600233009A9B001A5100F091
:1002E00067F80020C5E7C04660000020300100200C
:1002F000A40000200000000000000000F7B5294B1A
:10030000019018680F0000F051F8274B1D68002D70
:1003100004D1244B186800F04BF8F7BD2B0088334C
:100320001E686B685C1E002CF3DB002F09D0002ECA
:1003300001D1013CF7E73300A20080339B58BB4258
:10034000F7D128006968A200083001398358A1421A
:1003500019D16C60002BECD069680091002E08D098
:10036000FC218C460120B4446146A040496801420A
:100370000CD198470C4B6A6800991B688A42C4D11B
:100380009D42D6D0C1E700218150E3E7B1586246D3
:100390009268024202D101989847EBE7080098471B
:1003A000E8E7C04660000020300100207047704739
:1003B00070470000FEE7C0462D4B1B78012B00D094
:1003C00070472C4B1B681B07FAD12B4AF02312688D
:1003D000110019401A4201D0102946D1274A12684B
:1003E0001A421FD0F022244B1B681340402B29D007
:1003F000F022214B1B681340A02B01D0D02BDFD162
:10040000F0231E4A12681A42DAD11D4A1368012BE2
:1004100004D01C4B13601368012BFCD1C0221A4B73
:100420001A60CDE7194B1A4A1A608022194B120242
:100430001A600F4B1B78012BC2D10E4B1B681B0798
:10044000D0D0BDE70D4B1B681342D1D18022C12310
:100450000121DB00D205D150054B1B78012BAFD118
:10046000044B1B681B07C3D0AAE73029B6D0B9E7F5
:10047000E00F00F0E40F00F0E80F00F0EC0F00F0E8
:1004800000EC06407593000014EC064004050040A3
:10049000DFFF07C0186C0040F0B54E464546DE460B
:1004A0005746E0B54B780A781B0412061343CA7806
:1004B000CDB013438A7805901202087913434A7924
:1004C000000612040243C8790C930243887911266E
:1004D000000202430D92087A4A7A0006120402438F
:1004E000C87A13250243887A000202430E920A7BDF
:1004F000C87B12060243487B00040243887B00024B
:1005000002430F920A7CC87C12060243487C000416
:100510000243887C0002024310920A7DC87D1206C5
:100520000243487D00040243887D00020243119289
:100530000A7EC87E12060243487E00040243887E7B
:100540000002024312920A7FC87F12060243487FCC
:1005500000040243887F00020243139220222320DA
:100560008A5C085C120602432120085C00040243F6
:100570002220085C000202431492242227208A5C75
:10058000085C120602432520085C00040243262072
:10059000085C00020243159228222B208A5C085C2A
:1005A000120602432920085C000402432A20085C4A
:1005B0000002024316922C222F208A5C085C12064D
:1005C00002432D20085C000402432E20085C000238
:1005D00002431792302233208A5C085C12060243E1
:1005E0003120085C000402433220085C0002024310
:1005F0001892342237208A5C085C120602433520A8
:10060000085C000402433620085C00020243199291
:1006100038223B208A5C085C120602433920085CC1
:10062000000402433A20085C0002024394461A92F6
:100630003C223F208A5C085C120602433D20085C95
:100640006446000402433E20095C2E3809020A4336
:100650000DA98C468146093880461B920B306146B5
:100660000F68210000972700E941F7414F4061469C
:10067000A40A096A7C40009F8A46E3183900444670
:10068000E1410C003900C141009F4C40FF081100BE
:100690007C401700F141EF4153441C1963464F4021
:1006A0006146DC63496A920A8A465B687A40009F29
:1006B0005244D7191A00C241190092464246D1410C
:1006C00052464A40D9084A406146BA180A64022193
:1006D0008A460631D1448A464946D4443E29BED191
:1006E000F0230CAAD358BC220CA98C581F001A0066
:1006F000F741EA419B0A7A405A40DC27B823CF5998
:10070000CB584146DB19D21827002300CF41C34103
:100710007B40E7087B40D218F8230CA9CA50043B61
:10072000CA58343BCF5813001100F341E941920AF3
:100730004B405340E0220CA98A583900A4183A00D3
:10074000C2414046C141FF084A407A401B199B18EC
:10075000FC220CA98B50059B5A6E9F6ED96D1C6DA7
:100760005E6D9D6D186E03920497DA6E0CAB9A461F
:10077000049B3B4F9C46039B0B92019298468946F3
:100780003A0006940796089509910A90009705E0AB
:10079000C44635008046260008001C000B230100DB
:1007A0000627D9410300FB414B4001001337F941B3
:1007B00057464B40029308CF02CA9B46029B5944BE
:1007C0005B18414601408B466146BA465F4681430D
:1007D00079405918019B0092CA180D232100022765
:1007E000D9412300FB414B4021001437F9414B40D4
:1007F00031002F0069403740214079405B1849465D
:10080000D31851186246174F0192009AA946BA426E
:10081000BED1069A9146059A4B441365079B9946AB
:10082000089B4C449946099B4E4499460A9B4D446B
:100830009946039B49449946049B48444344936624
:100840000B9B546563449665D56511665066D36607
:100850004DB03CBC90469946A246AB46F0BDC04662
:10086000AC4A0000AC4B0000002817D00023002247
:10087000036400238264C364094A0A4B026543652A
:10088000094A0A4B8265C365094A0A4B02664366F8
:10089000094A0A4B8266C366002070470E20FCE7B7
:1008A00067E6096A85AE67BB72F36E3C3AF54FA501
:1008B0007F520E518C68059BABD9831F19CDE05B2D
:1008C000F8B54746CE4680B5071E2BD0002A13D078
:1008D000002927D09046002280240E000025914652
:1008E000036C8844A4003178F95401333B64402BF5
:1008F00007D00136B045F6D100200CBC9046994691
:10090000F8BD39003800FFF7C7FDBA6CFB6C12194F
:100910006B41BA64FB644B4601363B64B045EBD097
:100920000023E0E70E20E8E7F0B5CE46474680B565
:1009300004000D0083B0002800D173E1002900D12C
:1009400070E18022016C4B1C4254372900D9F2E03F
:10095000382B00D170E13726721A91460322C01855
:10096000404202403620401A052847D9002A00D1CB
:100970005AE100208F1C8046E054012A0AD0C81C8E
:1009800084464046E055032A00D051E16046464681
:100990000F1D26544846D318861A0022E318B008C3
:1009A0001A60012824D05A60022821D09A600328B6
:1009B0001ED0DA6004281BD01A61052818D05A61AD
:1009C000062815D09A61072812D0DA6108280FD0BE
:1009D0001A6209280CD05A620A2809D09A620B2898
:1009E00006D0DA620C2803D01A630D2800D05A63AF
:1009F000032332009A43D319B24215D00022581C67
:100A0000E254372B10D09E1C2254362B0CD0D81C0D
:100A1000A255352B08D01E1D2254342B04D0581D4E
:100A2000A255332B00D022544B0FCA00A06CE16CAE
:100A300012184B411E0CF6B23602190E31430092C9
:100A40000193A264E3641E06180A0B00C0B20004FE
:100A500003433343009E019F300CC0B2310AA363AD
:100A60000002330EC9B2090403430B4332061A4392
:100A700020002100E263FFF70FFD236D00201B0E15
:100A80002B70636D1B0E2B71A36D1B0E2B72E36D10
:100A90001B0E2B73236E1B0E2B74636E1B0E2B759C
:100AA000A36E1B0E2B76E36E1B0E2B77236D1B0C98
:100AB0006B70636D1B0C6B71A36D1B0C6B72E36D24
:100AC0001B0C6B73236E1B0C6B74636E1B0C6B75B2
:100AD000A36E1B0C6B76E36E1B0C6B77236D1B0AEE
:100AE000AB70636D1B0AAB71A36D1B0AAB72E36D38
:100AF0001B0AAB73236E1B0AAB74636E1B0AAB75C8
:100B0000A36E1B0AAB76E36E1B0AAB77236DEB700B
:100B1000636DEB71A36DEB72E36DEB73236EEB749E
:100B2000636EEB75A36EEB76E36EEB7703B00CBCF4
:100B300090469946F0BD3F2B69D80322E6187642CD
:100B40003F2032403E26401A761A052E49D9002A07
:100B50006CD000268F1CB046E654012A08D0CE1C6B
:100B6000B4464646E655032A64D10F1D61466654D5
:100B7000801A9B180022E31881081A6001292AD0E4
:100B80005A60022927D09A60032924D0DA60042908
:100B900021D01A6105291ED05A6106291BD09A61FD
:100BA000072918D0DA61082915D01A62092912D04C
:100BB0005A620A290FD09A620B290CD0DA620C29EA
:100BC00009D01A630D2906D05A630E2903D09A63FF
:100BD0000F2900D0DA63032302009A43BB18904226
:100BE00015D00022591CE2543F2B10D0981C62549F
:100BF0003E2B0CD0D91C22543D2B08D0181D62541A
:100C00003C2B04D0591D22543B2B00D062542100B0
:100C10002000FFF741FC002138222000FFF700FBF5
:100C2000216C01E70E2081E71F00B3E61F009FE75C
:100C30006746AFE667469BE73721F5E6F0B55746CE
:100C40004E464546DE46E0B505000E00170089B069
:100C5000002800D1AEE1002900D1ABE17023802251
:100C60009846DE4B8044036743678367C3678350BE
:100C70000432835004328350043283500432835050
:100C80000432835004328350043283500432835040
:100C9000043283500432835004328350D04B0432E8
:100CA0008350043283500432835004328350043220
:100CB0008350043283500432835004328350043210
:100CC0008350043283500432835004328350043200
:100CD0008350043283500432835004328350402FB7
:100CE00000D951E1042F00D876E144460023F258A0
:100CF000206850402060F258206C0433504020643B
:100D0000FA1A0434042AF2D89F4200D12CE11A00C6
:100D100000201C00703292460200B4342C19F118E5
:100D2000A142424191461A1D9446AA44B4446246E7
:100D30005446944240414A467C1E1043E21A022423
:100D40009442A4416442044200D135E18A0700D0B4
:100D500032E1FA1A94469208934652460C68126899
:100D6000180062405446B0302260281802680C68AF
:100D7000624002605A46012A00D1C3E052464C68E4
:100D800052686240544662604A6844686240426009
:100D90005A46022A00D1B5E054468A68A4686240E7
:100DA0005446A2608A688468624082605A46032A78
:100DB00000D1A7E05446CA68E46862405446E26045
:100DC000CA68C4686240C2605A46042A00D199E0E9
:100DD00054460A6924696240544622610A690469DA
:100DE000624002615A46052A00D18BE054464A69A6
:100DF00064696240544662614A6944696240426182
:100E00005A46062A7ED054468A69A46962405446EE
:100E1000A2618A698469624082615A46072A71D058
:100E20005446CA69E46962405446E261CA69C469C9
:100E30006240C2615A46082A64D054460A6A246A4B
:100E40006240544622620A6A046A624002625A465A
:100E5000092A57D054464A6A646A6240544662621C
:100E60004A6A446A624042625A460A2A4AD0544652
:100E70008A6AA46A62405446A2628A6A846A6240AC
:100E800082625A460B2A3DD05446CA6AE46A6240DE
:100E90005446E262CA6AC46A6240C2625A460C2A76
:100EA00030D054460A6B246B6240544622630A6B6E
:100EB000046B624002635A460D2A23D054464A6BA3
:100EC000646B6240544662634A6B446B62404263A7
:100ED0005A460E2A16D054468A6BA46B624054467A
:100EE000A2638A6B846B624082635A460F2A09D0E0
:100EF0005246CC6BD26B54405246D463CA6BC16B22
:100F00004A40C2630322614691435B188C452BD053
:100F1000EA18100070300178F45CB0326140017062
:100F20001178F05C41401170591C8F421CD06A1836
:100F3000140092467034705C227802334240227072
:100F40005246B0321078715C414011709F420BD014
:100F5000EA1810007030F45C0178B0326140017022
:100F60001178F35C4B4013702800FFF77DFC4022A2
:100F700041462800FFF7A4FC012009B03CBC904684
:100F80009946A246AB46F0BD00230021D03A01A805
:100F90000093FFF745F92800FFF766FC3A0031009F
:100FA0002800FFF78DFC69462800FFF7BDFC2027CD
:100FB0006E469AE60020E0E72900B0314046F25C38
:100FC000C05C42404046C254CA5CF05C4240CA54D5
:100FD00001339F42F2D1C7E7002395E63636363615
:100FE0005C5C5C5CF0B5C64604000D00160000B504
:100FF000002820D000291ED001239846F027424621
:10100000C35D1A420AD1320029002000FFF758FCC4
:1010100043425841C0B204BC9046F0BDFFF724FCE7
:101020002100402220007031FFF74AFC4246E35D78
:101030009343E355E7E70020EDE7C04630B50400F1
:101040000D0089B0002820D000291ED0F0220121F7
:10105000835C0B4383546946FFF766FC2000FFF76F
:1010600003FC21004022B0312000FFF729FC2022A0
:1010700069462000FFF724FC29002000FFF754FCFC
:1010800043425841C0B209B030BD0020FBE7C04622
:1010900030B5BFB004000D00684611001A00FFF71C
:1010A000CDFD002802D100203FB030BD2A00210034
:1010B0006846FFF797FF0028F5D068464299FFF78A
:1010C000BDFFF1E7F0B5D6464F4646469A46FF23A8
:1010D000C0B5C8B0519C91465B019C4247D863099A
:1010E000DBB29846E30603D043460133DBB29846B1
:1010F0000A0001000AA8FFF7A1FD071E37D06B46C2
:10110000DD1D01232B7043460026002B30D05246B4
:1011100049460AA8FFF766FF002828D001222900C7
:101120000AA8FFF75FFF002821D002A90AA8FFF74D
:1011300085FF00281BD0509B9819202C1FD92022F6
:1011400002A903F09BFC2036203CB6B22B78013379
:10115000DBB22B7043450BD8002B09D0012BD6D026
:10116000202202A90AA8FFF73DFF0028CFD10027BF
:10117000380048B01CBC90469946A246F0BD2200FB
:1011800002A903F07BFCE1E7F0B58FB0040002A8F0
:101190000200264BE0CBE0C21B68136000290BD194
:1011A00006A9009117231021214AFFF771FF00289B
:1011B0000BD100200FB0F0BD06A90091162310211D
:1011C0001C4AFFF765FF0028F3D010250F232021CC
:1011D000194A0195009406A8FFF774FF0028E8D08B
:1011E00023001033009320211123144A019506A8EF
:1011F000FFF768FF0028DCD00023E3612033019370
:1012000006AB0093202108230D4A06A8FFF75AFFDA
:101210000028CED02000202206A93030FFF70EFD96
:101220000028C6D0200000F00DF8C3E7084C0000ED
:10123000C44B0000AC4B0000DC4B0000EC4B00004A
:10124000004C0000002804D0034A044BD050012079
:1012500070470020FCE7C04600E0004004050000A5
:1012600030B5002821D0124A124BD158814200D00B
:10127000D05082248025002380220D4964006D0017
:101280000B514B5101330B60520402E0013A002A2A
:101290000BD04B5908590343F8D000234B510A593E
:1012A0000120002A00D130BD0B510020FBE7C046D1
:1012B00000E0004004050000F0B5C64604000D0043
:1012C00017001E0000B5102905D900239846404696
:1012D00004BC9046F0BDFFF7C3FF80460028F4D061
:1012E000002DF4D0320003233A4313405A425A41AE
:1012F0000623F91C891B8B429B4105215B4213404D
:101300006A1E9142924152421A4244D00023210067
:1013100018002031321D9142584104318E425B4108
:10132000034338D0236A3968AA084B403360012A46
:1013300010D07B68616A4B407360022A0AD0BB6898
:10134000A16A4B40B360042A04D1FB68E26A5340AF
:10135000F360BCE703222B0093432A42B7D0E11885
:101360002031FA5C09784A40F2545A1C9542AED9B1
:1013700020208446A1188C446046B95C0078023372
:101380004140B1549D42A2D9E4182034FA5C21783E
:101390004A40F2549BE720223B78A25C53403370D2
:1013A000012D94D021227B78A25C53407370022DD2
:1013B00000D18CE72222BB78A25C5340B370032D8E
:1013C00000D184E72322FB78A25C5340F370042D04
:1013D00000D17CE724223B79A25C53403371052D78
:1013E00000D174E725227B79A25C53407371062DEE
:1013F00000D16CE72622BB79A25C5340B371072D64
:1014000000D164E72722FB79A25C5340F371082DD9
:1014100000D15CE728223B7AA25C53403372092D4D
:1014200000D154E729227B7AA25C534073720A2DC3
:1014300000D14CE72A22BB7AA25C5340B3720B2D39
:1014400000D144E72B22FB7AA25C5340F3720C2DAF
:1014500000D13CE72C223B7BA25C534033730D2D23
:1014600000D134E72D227B7BA25C534073730E2D99
:1014700000D12CE72E22BB7BA25C5340B373102D0E
:1014800000D024E72F22FB7BA25C5340F3731EE7BE
:10149000F8B501234E46994657464546DE4648462E
:1014A000E0B5102708264C4A4C4C13704C4B1B6877
:1014B0009A08D9090140D2013F300A43590001403E
:1014C00080460A432038590901400A43D90A394065
:1014D0000A43D90A314084460A431C385900014066
:1014E0000A43D9088A46022155468B460D4061467B
:1014F0002A4322705D011A0A0D40D2012A434D464B
:10150000590E0D408A46D9092A430D0041460D4027
:1015100059002A430D00D9083D402A430D00D9093E
:1015200035402A430D00990C05402A430D005946C9
:101530000D4041462A4362709A0D0A406546514665
:101540000D40590FC9012A430A43190D0F400B00E2
:1015500017435A460E403E43084030431340214E45
:101560000343A3702200230004213000FFF7A4FEF0
:1015700000280CD11C4A1368013313600023164A5B
:1015800013703CBC90469946A246AB46F8BDF36941
:1015900021005A1CF2613036082230006360FFF7E8
:1015A00021FD002804D1114A136801331360E5E7D7
:1015B0000F4F30003900FFF741FD0028F3D0200025
:1015C00039001022083003F059FA182221000120B6
:1015D00000F07FFBD2E7C046A80200208002002076
:1015E000D002002058010020A4020020AC020020FC
:1015F000B002002070B52C4A1378D9B2002B1DD050
:10160000A021A223C905DB00C858284B1968284B24
:10161000834399422CD000231370A022A223D20529
:10162000DB00D258224B93431ED1224A1368013368
:101630001360FA22520093422BD870BDA024A2203E
:101640001B4BE4051E00C0002558AE4335001A4E62
:101650003668AE42E1D0205883431448036001232A
:101660001370164B1960D8E70022124B1A60E4E79A
:10167000124A136801331360052BCED10E4B19604B
:101680000F4B1B78002B0BD00E4A136801331360ED
:10169000C3E70D4800F016FA0C4800F013FACCE747
:1016A000FFF7F6FEB9E7C0469C020020D4020020F6
:1016B000FFE7E87354010020D002002098020020C8
:1016C000A8020020A0020020244C00001C4C0000B6
:1016D00010B5064B1B78002B04D0054A1368013364
:1016E000136010BDFFF7D4FEFBE7C046A802002040
:1016F000A002002070B5002000F0F4FD642000F08E
:101700009BFD324800F04AFC314800F05FFC00F0DD
:10171000BDFA00F0C5F8002000F0E0F82D4D0021E2
:101720002D4A280000F08CF92C4C2D4A0021200075
:1017300000F086F90121280000F0D0F901212000F5
:1017400000F0CCF9A023E121264ADB05C9005A505C
:10175000254926485A5014315A5025495A500439BF
:101760005A5024495A500C315A5023495A50043186
:101770005A5022495A5034395A5021495A500C3142
:101780005A5020495A5020495A5020495A5020490D
:101790005A5004395A5008315A5018395A501D4974
:1017A0005A5004395A501C495A50C12380211B4AAF
:1017B0009B000906D1504022194B00211A60FFF707
:1017C000E3FC40BF20BF20BFFBE7C046040302018B
:1017D00008070605244C0000D11600001C4C000030
:1017E000F51500000C00030014070000580100204C
:1017F0003C070000040700001C070000340700003D
:101800000C070000240700004C07000064070000DC
:10181000740700005C0700005407000000600040EF
:1018200000E100E0BE2310B50A4A5B00D158002950
:1018300000D110BD00240848D45000F037F9074803
:1018400000F034F9064B1C70064B1C60064B1C6004
:10185000EFE7C04600600040244C00001C4C000034
:101860009C0200209802002054010020202300B593
:10187000C9B285B00393002901D105B000BD02496A
:1018800003AA00F069FAF8E73401002082B002B040
:101890007047C04682B002B07047C0467047C0462D
:1018A00070B50D4C237A002B13D163602360236144
:1018B000E360AA228023FF210125DB05D200995095
:1018C000383A00209D50FC3900F086F8002025723F
:1018D00070BD8520FCE7C046D802002070B504002A
:1018E000002000F067F8124DAB7A002B0BD0002CD3
:1018F00002D0012063689847EB6801330020EB6059
:1019000000F060F870BD002C02D02B692C612360C0
:10191000EB68002BF1D1074A80211360C12202201D
:10192000C905920088500121034A1160E5E7C046CD
:10193000D8020020040100400800004010B51A4BF6
:101940001A68002A14D0002280211A60C2220123C2
:10195000164CC90592008B5063726368002B07D048
:101960001A6800205B68626098476368002BF7D1B3
:101970000F4B1A68002A15D000221A608022C22359
:1019800002219B00D205D1500123084CA372236988
:10199000002B07D01A6801205B68226198472369F1
:1019A000002BF7D110BDC04600010040D802002036
:1019B0000401004072B6024A136801331360704795
:1019C000EC020020034A1368013B1360002B00D196
:1019D00062B67047EC02002030B5FF2503232A00D1
:1019E0000340DB009A4089010D40D2439D40C4B2C0
:1019F000002814DB104B80089C46C0238000604404
:101A00009B00C1580A401543C5501F23C0211C40EC
:101A10001E3BA340084A49005350136030BD0F23BA
:101A2000064923408C46083B9B089B006344D969C8
:101A30000A401543DD61E8E700E100E000ED00E069
:101A400070B505000C00002A28D04079144B8100A5
:101A5000CA504300002C1CD0124E1B189B5D002B5B
:101A600015D10420A1782856FFF7B6FFA1232288BC
:101A70002968DB00CA506A79217953009B18F21853
:101A80005170E1780020917001229A5570BD0820B4
:101A9000FCE7054C191849006418DDE70720F5E755
:101AA000F8020020F00200202C4C0000012202214C
:101AB00003681A60427953009B18014A9954704791
:101AC000F0020020012203685A6041794B005B1844
:101AD00001495A547047C046F0020020802300227A
:101AE00010B504685B00E250D1220468FF3B92000D
:101AF000A350002902D00168403A8B5010BDC04667
:101B0000C123F0B5C64680249B000025984600B549
:101B1000204E214F64024346F3581C4210D01F4A06
:101B2000AB00944663441A68002A09D0D22292007E
:101B3000B450403AB4500022E8B21A603B6898476B
:101B400001356400042DE6D1C122124B92009A584F
:101B5000D20704D5802252009958002913D1C122FE
:101B60000C4B92009A5892070AD58222520099583B
:101B7000002905D000219950074B05201B68984784
:101B800004BC9046F0BD00219950034B04201B6813
:101B90009847E4E700B00040F802002040B1004060
:101BA000C123F0B5C64680249B000025984600B5A9
:101BB000204E214F64024346F3581C4210D01F4A66
:101BC000AB00944663441A68002A09D0D2229200DE
:101BD000B450403AB4500022E8B21A607B6898478B
:101BE00001356400042DE6D1C122124B92009A58AF
:101BF000D20704D5802252009958002913D1C1225E
:101C00000C4B92009A5892070AD58222520099589A
:101C1000002905D000219950074B05205B689847A3
:101C200004BC9046F0BD00219950034B04205B6832
:101C30009847E4E700100140F802002040110140FD
:101C400003210A4802680A430260094802680A43FD
:101C500002600849084A094B9B1A03DD043BC85837
:101C6000D050FBDCFEF7A8FBFEF74EFA240500403F
:101C700054050040784C000000000020880000203F
:101C8000FEE7FEE7FEE7FEE7FEE7FEE708B5064BE8
:101C90001868002803D1054902220A7002E001F009
:101CA00049F9012008BDC046000300204903002077
:101CB000014B1868407E70470003002008B500F013
:101CC00011FE002802D100F0F8FD01E0FFF7E6FD6B
:101CD00008BDF8B5051C0F1C161C072804D90422E2
:101CE0001B4E0020327031E003220029F8D006227A
:101CF000202EF5D800F04CFE09220228F0D8281C2E
:101D000000F04AFE0A220228EAD800F049FE082222
:101D10000128E5D900F0F4FD4378041C0670012089
:101D200003436370391C321CA01C02F0A7FEE8B20A
:101D3000211C00F0F9FD051C0120002D06D10548ED
:101D400002F0CAFA024F0F213970281CF8BDC046B4
:101D500049030020DD000500F8B5061C0D1C171C0A
:101D600000F01AFE002803D1154F0B253D7025E029
:101D70000322002D07D0301C00F0FCFD3A680378E8
:101D80009A4204D206220E4E0020327016E0301C19
:101D900000F0E6FD041E0AD00278811C3A60281C7F
:101DA00002F06CFE201C00F0B5FD012006E00548A5
:101DB00002F092FA02490F200870201CF8BDC046BC
:101DC000490300200501050008B5072804D9044B84
:101DD00004221A70002001E000F0DAFD08BDC046C0
:101DE0004903002008B5072805D9044B0422012027
:101DF0001A70404201E000F0CFFD08BD4903002009
:101E000008B500F0CDFD0623181A08BD10B5041E54
:101E1000072C03D90B4B04241C7003E0FFF7D4FFFD
:101E2000022801DD00200CE0201CFFF7DBFF022868
:101E3000F8DCFFF7E5FF0623181A012181429241E1
:101E4000504210BD4903002008B50A4B19684A7E6C
:101E5000002A04D0084A0C211170002009E007284C
:101E600003D9054B04201870F7E7C0B200F09CFDC1
:101E7000012008BD000300204903002008B5072801
:101E800004D9054B04221A70002003E0C0B200F010
:101E9000A5FD012008BDC0464903002010B501285A
:101EA0000AD0002803D0022808D1002000E0012039
:101EB00001F028F8012005E00220F9E7024B052295
:101EC0001A70002010BDC0464903002010B500F074
:101ED00011FD01280AD00224002808D0A04201D117
:101EE000012404E0034802F0F7F900E00024201C7C
:101EF00010BDC0467001050038B5134A031C1068B8
:101F00000C1C407E002804D0104D022028700020B8
:101F100018E001390F2903D90C4907220A7011E092
:101F2000002B03D1094C03232370F0E7084D191C43
:101F300010C5221C281C02F0A1FD281C211C00F049
:101F4000BDFD012038BDC04600030020490300202C
:101F5000640000200C4B10B51A680C68944201D341
:101F6000102C04D9094C0720207000200AE000281A
:101F700003D1064903220A7004E00A60191D02F029
:101F80007DFD012010BDC0466400002049030020F3
:101F9000014B18687047C0466400002008B5074B25
:101FA00019684A7E002A04D0054B022018700020D0
:101FB00002E000F01DFD012008BDC0460003002026
:101FC0004903002008B500F023FD08BD08B5074B04
:101FD00019684A7E002A04D0054B022018700020A0
:101FE00002E000F01BFD012008BDC04600030020F8
:101FF0004903002008B500F01FFD08BD08B50A4BD5
:102000001A68537E002B04D0084B02221A7000205D
:1020100008E0072803D9054804210170F7E700F01C
:1020200011FD012008BDC046000300204903002027
:1020300010B50C1C072804D90422064B00201A7086
:1020400006E003220029F8D000F028FD20700120CE
:1020500010BDC0464903002008B5074B19684A7EE9
:10206000002A04D0054B02201870002002E000F086
:1020700065FD012008BDC046000300204903002083
:1020800008B500F061FD08BD08B50E4A031C1068D4
:10209000407E002804D00C480222027000200FE08D
:1020A000012B0AD0002B07D0022B01D1012004E024
:1020B000054B0E21197003E0022000F0DDFD012028
:1020C00008BDC046000300204903002008B501F008
:1020D00023F80021012801D8014B195C081C08BD18
:1020E000384C000008B5134B19684A7E002A04D00A
:1020F000114A0221117000201BE006280FD802F0BF
:102100006BFC12140406080A0C00FC200EE0F820F8
:102110000CE0F4200AE0F02008E0EC2006E0064B9A
:102120000E201870E7E7042000E0002000F046FDD4
:10213000012008BD000300204903002008B500F07D
:102140004BFDF02813D004D8042814D0EC2806D175
:102150000FE0F82807D0FC2803D0F42805D0012090
:102160000AE0022008E0032006E0042004E0052045
:1021700002E0062000E0002008BD08B5064B196803
:102180004A7E002A04D0054B02201870002002E08D
:1021900000F0E0FC012008BD0003002049030020FE
:1021A00008B500F0DDFC08BD08B5074B19684A7E8C
:1021B000002A04D0054B02201870002002E000F035
:1021C00097FC012008BDC046000300204903002001
:1021D00008B500F093FC08BD08B5074B19684A7EA6
:1021E000002A04D0054B02201870002002E000F005
:1021F000CBFC012008BDC04600030020490300209D
:1022000008B500F0C9FC08BD08B5074B19684A7E3F
:10221000002A04D0054B02201870002002E000F0D4
:10222000A5FC012008BDC046000300204903002092
:1022300008B500F0A3FC08BD08B5074B19684A7E35
:10224000002A04D0054B02201870002002E000F0A4
:10225000A9FC012008BDC04600030020490300205E
:1022600008B500F0A5FC08BD08B50B4B19684A7EFF
:10227000002A04D0094A0221117000200AE0002837
:1022800005D0012803D0054B0E201870F5E700F0AB
:102290005BFF012008BDC046000300204903002069
:1022A00008B500F057FF01384342584108BD08B552
:1022B0000A4B19684A7E002A04D0094A022111708B
:1022C00000200AE0002805D0012803D0044B0E208E
:1022D0001870F5E700F050FF012008BD0003002052
:1022E00049030020F8B51E4D00241E4E071C281C73
:1022F000211C0C22083034706C60FDF791FF1A48E5
:1023000000F048FE2860A04203D101203070002078
:1023100024E0164B181D1968FFF7EEFD051C381C4C
:10232000FFF7BCFD0540042000F0EEFB201CFFF78A
:102330009BFFEFB207400120FFF7D4FE07400220C9
:10234000FFF7A2FE0740201CFFF7B1FF041C01208D
:102350003C4000F0E7FE002CD7D00120F8BDC0467D
:102360000003002049030020E32300006400002054
:1023700008B500F007FF01384342584108BD024B41
:102380000022DA607047C04600030020014BD86885
:102390007047C04600030020044B002200B51A72AB
:1023A000904202D018610120187200BD0003002085
:1023B000014B18787047C04649030020014B0022AA
:1023C0001A70704749030020014B58687047C04697
:1023D00000030020014B00225A60704700030020D8
:1023E0007047F0B589B0040C031C060A84460190BE
:1023F000101C039297B2020C0D1C00200291009257
:10240000E1B2624606AC069060600590D0B21B0E49
:10241000F6B2052854D802F0DFFA03142943403DF0
:102420006A4649B2484223701388E080281C6780BE
:10243000A38000F06FFA301C06996268FFF716FA65
:1024400041E022490B68587E002802D1204801F063
:1024500043FF281C6D4600F05DFA67802F88301C12
:10246000A78006996268FFF711FA2CE048B205AC24
:10247000424223706280002B07D0002D02D1154804
:1024800001F02AFF281C00F045FA301C0599FFF7DF
:1024900001FA18E0FFF702FA15E0FFF7A1FF12E0DA
:1024A0000A4DE9682B7A0131E960002B0BD02F69C6
:1024B000002F02D1FFF702FC05E0013F2F6102E08F
:1024C000054801F009FF09B0F0BDC0460003002037
:1024D000B5030500C3030500E3030500024B0349F0
:1024E0000F221A7048607047490300200003002043
:1024F00000B5064A01231178022903D05068421E14
:10250000904100E0181C1840C0B200BD4C030020F0
:1025100008B5FFF7EDFF044B044A002801D0D0684E
:1025200000E09068186008BD1803002084030020B4
:1025300008B5044B5A68002A01D0013A5A60FFF7E7
:10254000E7FF08BD4C03002010B500231A1C041C33
:102550001C41012121400724E41AA1400A43013310
:10256000D2B2082BF3D1101C10BD70B50024061C8C
:10257000251C301CE040C0B2FFF7E6FF1823191BF2
:10258000884008340543202CF3D1281C70BD38B591
:102590000D1C01F071FE084C63699D4202D807488A
:1025A00001F09AFE60690122291A054802F058F9E3
:1025B0000021616138BDC0464C0300204D06090072
:1025C000B942000007B5A12303210F4A8B40D15027
:1025D00001F094FD002815D002280AD9032811D152
:1025E000002300930193181C191C1A1C01F09EFC77
:1025F00003E00020011C01F035FD042802D003484F
:1026000001F06AFE07BDC04600F00140E801090084
:1026100008B501F027FFA1230E4AD900505001F060
:102620006DFD012807D001F069FD022802D00A489B
:1026300001F052FE002001F0B9FA02F093F9074BC5
:10264000A221CA0098500648064AC16848689850B6
:1026500008BDC046001000401E06090000F0014001
:10266000180300201405000008B502F0EDF8012859
:102670000FD002F0CDF8074B187F002803D180213E
:102680000122CB055A60002001F0F6FD024A00202D
:10269000506008BD840300204C03002010B501F0F9
:1026A0006AFD00281AD00E4B00229A81DA8101F0CF
:1026B000C5FB0C4C0C49605001F0C0FBA622012365
:1026C0008340D100635001F0BFFB084C206001F053
:1026D000C1FB074B6060E360FFF79AFF10BDC04687
:1026E0004C030020001000402C050000680300206F
:1026F0009927000008B502F0A7F8012822D101F0BF
:10270000D5FD002802D0104801F0E6FD1E210F483B
:10271000002202F0A5F80E4B197F002902D002F02A
:102720006BF80FE00B480C4B0122026059608021CE
:10273000C8050260C046C046C046C0465A68002A66
:10274000FCD0ECE708BDC0462C060900B9420000E9
:102750008403002014050040FC0000401FB5FFF773
:1027600083FF01F0D9F80A4A002301A8052101706E
:1027700043601C1C0381438143708370C37093705A
:10278000537601F09DFA03480470FFF71BFF1FBD4D
:102790004C03002080030020F0B53E4B8022D00087
:1027A000195887B0012904D03B4C00261D59B54269
:1027B00006D13A4E2022776800263B789A4276412D
:1027C000374C012561692E40281C002901D102F0F7
:1027D00041F8284201D10120606101F08FFC0128FD
:1027E00002D0304801F078FD2F4DEF683B7D002B83
:1027F00002D02E4801F070FD01F08EF8002E47D077
:102800000120011C01F02EFC042836D802F0E4F867
:1028100003321832320001F017FBE289071CA68947
:10282000019201F00BFBE9686D46897D0497AF8842
:1028300003AB00221A701E815F815870997014E0FA
:1028400001F002FB071CE089A689019001F0F6FA6D
:10285000EB686D469A7D0497AF8803AB00219A70B0
:1028600019701E815F8158700122DA70181C01F006
:1028700027FA02E00E4801F02FFD01F019FE0D4E7F
:10288000206170696060FFF743FE002001F016FED2
:1028900007B0F0BD001000403405000068030020C0
:1028A0004C030020A806090018030020A90609000F
:1028B000C806090084030020704708B5012282F38E
:1028C0001088074B597E002905D09878002802D13E
:1028D0009A70FFF70FFF002282F3108808BDC046F0
:1028E0004C030020024B0120597E48407047C046EF
:1028F0004C030020014B18787047C0464C03002061
:1029000008B5012383F3108801F094FC002181F3C2
:10291000108808BD08B5012383F3108801F08EFCF0
:10292000002080F3108808BD08B5012383F31088C8
:1029300001F0EAFB00280DD008488278002A04D173
:10294000417E002901D0FFF7D5FE002383F31088D4
:10295000012001E080F3108808BDC0464C03002030
:1029600008B5012383F3108801F0F6FB002181F301
:10297000108808BD08B501F0EAFB08BD08B50123C1
:1029800083F3108801F0D3FB002181F3108808BD88
:1029900008B501F0D8FB08BD08B501F0E7FB08BD9C
:1029A00008B501F04FFC08BD10B50123041C83F3EA
:1029B000108808480278002A05D0417E002902D0FC
:1029C000054801F089FC201C01F0B5FB002484F3CC
:1029D000108810BD4C030020FB02090008B501233C
:1029E00083F3108801F0BDFB002080F3108808BD40
:1029F00008B5044B1862FFF7B8FD0349034A50506D
:102A000008BDC046840300201C05000000100040E3
:102A1000014B186A7047C0468403002008B5044B78
:102A20005862FFF7A2FDA421024ACB00D05008BD96
:102A30008403002000100040014B586A7047C046D4
:102A400084030020F8B5031C081C072B1AD80F4A72
:102A500003261E40D118F600FF24B4402831E74376
:102A600008700B4C032B01D80A4D01E0A525ED00A1
:102A700063591F406751FFF767FD6759B04007432F
:102A8000675102E0044801F027FCF8BD84030020F0
:102A900000100040240500003903090010B5041E91
:102AA000072C02D9034801F017FC034B18192830F2
:102AB000007810BD410309008403002038B5051CCF
:102AC0000C1E02D1074801F007FC002D02D1064878
:102AD00001F002FC054B00209D605C6001F0D6FC1B
:102AE00038BDC04648030900490309001803002007
:102AF000014B58617047C04684030020014B586960
:102B00007047C04684030020064B074AA32110B536
:102B10005877CB00D4580104044820400843D050D3
:102B200010BDC0468403002000100040FFFFF8FFE6
:102B3000014B587F7047C04684030020014B186149
:102B40007047C04684030020014B18697047C04697
:102B500084030020014B58607047C0468403002066
:102B6000014B58687047C0468403002008B5024BEB
:102B7000D860FFF7CDFC08BD84030020014BD86866
:102B80007047C0468403002008B5024B9860FFF7E9
:102B9000BFFC08BD84030020014B98687047C04605
:102BA00084030020014B58837047C04684030020F3
:102BB000014B588B7047C04684030020034B0449E7
:102BC000044A3033187050507047C04684030020C8
:102BD0000C05000000100040014B3033187870479E
:102BE00084030020184B10B531331870174A184B66
:102BF000FF249958A1439950032821D8995801F0EE
:102C0000EBFE1D020A140124214399501149FF20B3
:102C10005850114906E00220014399500F490D4ACE
:102C200099500F49A722D20008E00324214399506C
:102C30000C480849A7225850A2400021995002E0B0
:102C4000094801F049FB10BD840300203405000051
:102C5000001000403C05000007010000FFFF0000DD
:102C600021100100FFFFFF00C2030900014B3133B7
:102C700018787047840300201F4B00B5323318705A
:102C8000012821D0002810D0022834D1A2211B4ACB
:102C9000CB00D0501A491B481B4A08601B4B1C48EC
:102CA0001C491A6008601C4A20E0A223134AD9007C
:102CB0005050134B1348154A186013491748154BC9
:102CC00011601860164A11E0A2230C4AD900505036
:102CD0000B4B0C480C490D4A186011601148124A00
:102CE0000C4B124918601160114A02E00E490A604B
:102CF000104A1148026000BD84030020001000400B
:102D000024170040005000784E000054281700405F
:102D100008800C602C1700408864720003800C60EF
:102D20002264720002800C6030170040116466005B
:102D3000DEC08F823E420F8234170040F8B5A122D8
:102D4000334C344B344E354DD00000270321012243
:102D5000F750315067516251E05831490F2201401C
:102D6000E150E558062095430543E550E1582D4DC7
:102D7000C02290020D400543E550A323DD006159B8
:102D8000294A80230A406251605959040143615124
:102D90006059FF2290432023184360516159234812
:102DA000C02208406051224853000221C15001F066
:102DB000D5FD2049204A70507251204D0323735194
:102DC0001F4800F0E1FD1F4E1F4DF060687FFFF7C8
:102DD0009BFE286AFFF70CFE686AFFF71FFEE819E2
:102DE00028300178381C0137FFF72CFE082FF6D168
:102DF0002F1C30373978154AA1502C1C31342078DB
:102E00003235FFF7EFFE2878FFF736FFF8BDC046F2
:102E1000001000401405000000F00140FC0F00000D
:102E2000FFFEFFFFFFFFF0FFFFFFFFFDFF00FFFFC3
:102E300000E100E01C050000041100400405000052
:102E40006803002018030020840300200C05000004
:102E500070B5274E86B0337872789A4245D0002BF1
:102E600001D1FFF76BFF7078002801D1FFF7AAFBB3
:102E70002049214D00246C5000F04EFD1F4D2C6068
:102E80006C602C61AC60EC603378012B08D101F0F0
:102E900035F9A04217D0201C211C01F0E3F812E004
:102EA000022B10D100F038FD154A2C61147001F08E
:102EB00025F9032807D100940194201C211C221C11
:102EC000231C01F033F8FFF723FB707800243070E7
:102ED00003A8042606704460048144814470847011
:102EE000C47000F0EDFE012000E0002006B070BDCF
:102EF0004C0300201405000000F00140680300208E
:102F00008003002008B5012383F3108808490A785C
:102F1000824208D04870487E002802D1FFF798FF0F
:102F200001E0FFF7E7FB002383F3108808BDC046EC
:102F30004C03002038B5124B5A7E1C1C002A1DD1B0
:102F4000FFF7FCFE0F488168051C002902D10E48DE
:102F500001F0C2F96B68002B02D10C4801F0BCF9FA
:102F600001F098F9002802D0094801F0B5F90020D5
:102F700001F082F901226276FFF7BCFB38BDC04642
:102F80004C030020180300205E0209005F020900C4
:102F900066020900F8B5071C012080F31088544D23
:102FA000544B554E0024002203211C605C609C6041
:102FB000DC601C611A7529702A766A76B4607460C8
:102FC0006870AC706C60AC60AC81EC812C616C6141
:102FD00001F0D6FB381C00F059FE00F0F5FE201C75
:102FE00001F042F9301C01F07BF9444FC22083000C
:102FF000F958434AC0260A40FA50B0003B584149AC
:10300000C522194039509600BB59FF204021834307
:103010000B43BB510120FFF775FF3B4E3B4B3C4838
:10302000311C3362706228310123301C0B7029304F
:103030000223311C03702A3103200870FF22311C47
:1030400032612B3104220A707277321C2C32052037
:103050001070321C2D320621301C11702E300722C8
:103060000270301C2F300821321C017030320020D9
:103070001070321C0120311C323210703131962216
:103080009A400B701E2171617260F360FFF740FA85
:103090000F23B360FFF73CFA01207483307670761B
:1030A0000021201C6924317701F0D0F834606E785B
:1030B0000124A64202D0174801F00EF900262C7018
:1030C000AE706E60AE60AE81EE812E616E612E7666
:1030D0006E76FFF733FEC023802180225800CC009B
:1030E00053033C503B5086F31088281CF8BDC04663
:1030F0004C030020680300201803002000E100E0DA
:10310000FFFF00FFFF00FFFF8403002004070A0DFC
:1031100005080B0E3C020900014B3233187870474A
:1031200084030020054B10B5041CD868002802D188
:10313000034801F0D1F803490C7510BD18030020B5
:10314000F603090068030020014B18767047C0465B
:1031500084030020014B187E7047C0468403002082
:10316000014B58767047C04684030020014B587EBF
:103170007047C04684030020014B18777047C04653
:1031800084030020014B187F7047C0468403002051
:1031900008B501F05BF808BD08B50B4BD868417D58
:1031A000002906D0012000F05BFB084B9A89013210
:1031B0009A810749074B084A002058505168136804
:1031C000C91AFFF7E4F908BD180300204C030020DA
:1031D0001405000000F0014084030020084B10B5E6
:1031E0001A781C1C012A02D0064801F075F806491D
:1031F000064A0220002320700B61CA6010BDC04641
:10320000800300209205090068030020AD32000011
:1032100010B500F081FB194819491A4C002301220E
:10322000027023610869A623174AD900505000F0A4
:1032300065FF00280AD100F075FD01280DD900F0C6
:103240000FFE6060002808D1104804E000F056FF2F
:10325000032802D00E4801F03FF8022000F0A6FC3F
:10326000002000F0FDFA00F049FF032802D00948D1
:1032700001F032F8FFF7B2FF10BDC0468003002016
:103280008403002068030020001000407B05090033
:10329000800509008805090008B5034B05221A704E
:1032A000FFF7B6FF08BDC04680030020F0B5484ACE
:1032B0008023D800115887B0464C012904D0464DD0
:1032C000002356599E4205D1676800233978202093
:1032D00088425B41414E0325002101273570216062
:1032E0003B408B4255D08123D80015583C4B115898
:1032F0003C48D15002A912583B1C00910194381C43
:10330000291C00F013FE032841D801F065FB1E02C2
:10331000204E0298002802D0334800F0DDFF281C20
:1033200000F024FF002802D1304800F0D5FF3049DA
:1033300003A8CF680223B97D0027037047603A1CB9
:1033400007814781457081701DE02A482BE0029A71
:10335000002A02D1284800F0BFFF281C00F006FF19
:10336000002802D1254800F0B7FF214F03A8FB68D1
:10337000029F997D022200230270476003814381EE
:10338000457081700122C27000F09AFC0DE01C486B
:1033900009E000930193181C191C1A1C00F0C6FDCB
:1033A000042802D0174800F097FF2568002D06D1A9
:1033B00000F0B2FA65752561FFF72AFF05E01248B3
:1033C0000122627520610424347007B0F0BDC0464C
:1033D0000010004068030020340500008003002036
:1033E0002C0500000C040000B8050900B90509000F
:1033F00018030020BD050900C0050900C10509002A
:10340000C8050900CF0509009932000070B50C4DC0
:10341000A124E4002E5901F025F886420AD001F0DB
:1034200021F82851FFF7F4FE064900204968FFF70C
:10343000AEF870BD044B18780028F3D0F4E7C0460E
:10344000001000408403002080030020F0B5864C6B
:103450000125636989B0281C002B01D101F0FAF91C
:103460000126284000D0D3E02178B14202D100F0FB
:103470004BFA10E0022908D000F042FFFFF758F89D
:10348000A678002E00D0A9E00EE0784A1378033B1E
:10349000DDB2AE4240410028EED0754E75487768E7
:1034A000012279086161CBE0FFF7D2FC704D071E65
:1034B00000D08EE020780190061E012E06D0002854
:1034C00063D0022865D1FFF7A1FF65E000F024FA80
:1034D00000F014FE00281DD100F024FC012851D971
:1034E000FFF706F8071E0CD000F0FAFF002849D1BC
:1034F000287E00280BD100F0DBFF2669B04241D1C5
:1035000005E0206900F0C2FF381C00F0D7FFFFF78C
:10351000C5F837E0698B002920D0A2898A421DD3E3
:10352000311C381C00F09EFD00F08EFC0290A28938
:103530000392E68900F082FC69460A79029905AB9C
:103540001A7006910C226946515A5870181C19813C
:103550005E819F70DF7000F0B3FB13E001F07AF939
:10356000002802D0444800F0B7FEA1234348DF0002
:10357000C65900F077FF864202D0E1890131E1812E
:10358000FFF746F80120296800E06968FEF7FFFFB1
:1035900002E03B4800F0A0FE6D7E012D23D1FEF736
:1035A000A7FF00281FD12478012C07D0002C0DD0B4
:1035B000022C18D0334800F08FFE14E000F09EFD7E
:1035C000002810D100F034FC00280CD1FFF74CF893
:1035D00009E06968301CFEF7DAFF04E0647E002C25
:1035E00001D0FFF7BBF800F09DFB01280CD905A81E
:1035F000002103230370416001814181417081708A
:10360000C17000F05DFB2DE01F4800F065FE29E071
:10361000FEF78EFFA778002F1DD12178022912D145
:10362000124B1D78033D012D04D900F069FEFFF710
:10363000EDFE17E00E4F321C786841080D486161BD
:1036400001F00EF90EE000F05BFE094A381C5168EB
:10365000FEF79DFF06E000F053FE607E002801D0DB
:10366000FFF77CF809B0F0BD4C0300208003002078
:1036700084030020B94200000A0509000010004040
:1036800058040900720409008C04090007B5019070
:10369000C046C046C046C046C046C046C046C046FA
:1036A000C046C046C046C046C046C046019B013B1E
:1036B0000193002BECD107BD70B58022164B910011
:1036C00000245C501549C2250E78AD00144A032E23
:1036D00007D109267442C1265C510825B4001D514A
:1036E0000AE0012676425E51C0230E4D02265B00A1
:1036F000EE50146103244C700023536053619360B7
:103700004B600B75984205D0074801680A69002A8A
:1037100000D0904770BDC04600100040B8030020A4
:10372000FC10004000E100E028030020F8B53F4B0A
:103730001A69012A53D19D693D4C802296000135BA
:10374000032104209D611870C025A15139496A00E8
:1037500002278F50384F00263E61C1227E607E6175
:10376000BE60364E08259100655035682A7D3D1CA7
:10377000002A17D0A927F9006258314F9A75A02363
:10378000D9007A58024202D12E4800F0A5FD00204F
:103790000123A12228620421A361D300F950A927A3
:1037A000F90060506868002802D0274800F094FDB6
:1037B0002D69002D02D0254800F08EFD244A536863
:1037C00099072DD43768F968002900D088473668F2
:1037D000707D002828D035681E4AA55024E0022AB2
:1037E0001AD1154900250D6111484D6180244D60A5
:1037F00001278D60C221A6007A428C0085511D7080
:103800000251032058705D601D750C4B1E683769AE
:10381000AF4209D0B84707E00F4800F05DFD03E074
:103820000E4800F059FDCDE7F8BDC046B8030020B2
:103830000010004000E100E0FC10004028030020E0
:1038400000F00140AD020A00B6020A00B7020A0009
:10385000FCE100E004050000E7020A00B8020A00EB
:1038600070B51E4D061C6B7D6C78002B02D11C4878
:1038700000F032FD287D002802D01A4800F02CFD0F
:10388000012200212A756975022C0CD816482301E3
:10389000C318002E01D11E683260621E012A05D8AD
:1038A000997A297002E0114800F016FD104D286841
:1038B000037D002B11D0022C0FD10E4C0E4E251C77
:1038C0003259530702D40D4800F006FD0C494859FF
:1038D000002802D10B4800F0FFFC70BDB8030020A7
:1038E00021010A0022010A003C4C00003A010A00B2
:1038F000280300200405000000F0014040010A00F8
:103900000010004041010A00024B98680138434210
:1039100058417047FC100040F8B5164B164C022079
:103920000121C027C222D8674D4282407B00134E3E
:103930008021134FA55081400025F0500122655091
:103940007D61104D2261A2612C78944201D1062044
:1039500003E0023C012C00D9101C0024FFF796FE66
:103960007C61201C2C70FFF7A7FE02206C75306074
:10397000F8BDC04604E100E00010004000E100E0B6
:10398000FC100040B803002038B50E4B0E4C1860F8
:103990000E490F4B0F4A0225201DC56799500E484E
:1039A000A421CA009850FFF7B7FF0C480023032159
:1039B000037041704360036103754375837525602F
:1039C00038BDC0462803002000E100E0141000408C
:1039D00000F001402405000004110040B80300205D
:1039E00070B55C4C2369607D0133657823610028E4
:1039F00002D0594800F070FC2178032948D1574E75
:103A00003269002A44D0012D35D12269032A02D01F
:103A1000534800F061FCA06902210130514A802521
:103A2000A06100238D400120217053514542C220E6
:103A300088401550C02568004B4D29504B493361D3
:103A4000096873607361B3600326667063602375F1
:103A5000087D98420DD0A925E80016580125A675C5
:103A60003E4C042623629561A124414DE4002E5171
:103A70001350CA6865E0022D08D12369012B02D0DA
:103A80003C4800F029FCFFF751FE61E03A485DE058
:103A9000032D5AD0012D3CD12169012918D12F487D
:103AA0000021304B0126C2224160816070429100AA
:103AB000C1265850B0001D502C4D304E2A68117D43
:103AC000002902D02A4D0420A851E4689C513FE00F
:103AD00002293DD1234E214A80230025980002214E
:103AE000C22315615561556035504A429800C12185
:103AF00032508B000822F25003262670656025752F
:103B00001A4C2568261C2869002800D08047306898
:103B100016E0022DB7D0657819482B01C1180E7B2D
:103B20000025AE4203D00D4A15696A1E95418B7A75
:103B300001202370FFF7C0FD002D09D00B4C206839
:103B40008268002A04D0904702E00E4800F0C4FBCF
:103B500070BDC046B803002090010A00FC10004070
:103B60009F010A000010004000E100E0280300204F
:103B700000F00140A4010A00A9010A0004050000A8
:103B80003C4C0000D6010A0008B5022804D8054BB9
:103B900018784342584103E0034800F09DFB0020A1
:103BA00008BDC046B8030020F9020A00F8B52B4C46
:103BB0000301061C2A4F207DFF18002802D0294847
:103BC00000F08AFB301CFFF7DFFF002802D12648F7
:103BD00000F082FB0121C222244D002348429100C3
:103BE0006375C02268502249022052008850214843
:103BF00066700268116852682361A3613B68A16026
:103C0000E2606360022E18D8387A80239B00E85067
:103C1000F87A194B002805D1E950EA58002A08D152
:103C2000164804E0EA50E958002902D1144800F08F
:103C300053FB7F7AC1208300EF500E4D29680A7D27
:103C4000002A07D0022E05D10B480E4B0026042770
:103C5000A6751F5001256575F8BDC046B803002044
:103C60003C4C0000DB000A00DD000A0000100040B0
:103C700000E100E0280300200405000000010A0024
:103C800005010A0000F001407047C04610B5041E4F
:103C900002D1084800F020FB074B00221C60191DD0
:103CA000DA670833CA678020DA67044B44031C6074
:103CB00010BDC04629000B00DC03002000E100E03D
:103CC00070B5144C051C2368002B02D1124800F07B
:103CD00003FB201C0830C16F092902D90F4800F0EE
:103CE000FBFAE66F0C225643A319043343CD43C3BA
:103CF000251C0835E86F0130E867E16F0131E167A5
:103D0000E66F092E01D90022E2678024044B650387
:103D10005D6070BDDC03002034000B0035000B003B
:103D2000FCE100E0034B0A200833D96F421AD0B2FD
:103D30007047C046DC030020F0B587B0012383F351
:103D40001088134C124D0834E06F00281BD02A1D38
:103D5000D16F0C26714303AB69180431181CE0C9FC
:103D6000E0C0E76F0026013FE767D46F0134D467F6
:103D7000D56F092D00D9D66786F31088044A1768D5
:103D800007CBB847DAE780F3108807B0F0BDC0462C
:103D9000DC03002038B50A4C051CE36F002B02D170
:103DA000084800F099FA291C0831E06F00F03CFC4B
:103DB0000021884201D0E1670121081C38BDC046BE
:103DC000640400206F020C0010B500F0B7FB002166
:103DD000124A8800002384188818A361A363041C76
:103DE00080348830237003700D480C180131237023
:103DF0000829EDD1111C101C141C9031913058343D
:103E0000137053609360D360136153610B70037040
:103E10002370D36792320123137010BD6404002015
:103E2000F8040020014B185C7047C046F8040020DD
:103E3000014B90331878704764040020014B586898
:103E40007047C04664040020014B98687047C04624
:103E500064040020014BD8687047C0466404002009
:103E600010B5104C2378002B02D00F4800F034FA24
:103E7000E06F002802D100F08BFBE067E06F0028C4
:103E80000FD0012143784A4206210B434370027050
:103E90000023C218FF2101339170202BF9D1032395
:103EA000237010BD640400203B010C0038B5124C97
:103EB0002378002B1ED1201C90300178002919D1C5
:103EC0000825606900F028FC002805D0231C6069E3
:103ED000903301221A70206161690131082900D1F3
:103EE0000021231C616190331A78002A02D1013D20
:103EF000002DE6D138BDC0466404002038B5094D18
:103F0000041C2B1C90331878002804D02969A14286
:103F100001D1FFF7CBFF2A19034B00258032157022
:103F20001D5538BD64040020F8040020F0B5464D4E
:103F300085B00393EB6F061C0C1C171C002B02D1E1
:103F4000424800F0C9F92878032802D0404800F020
:103F5000C3F9E96F01234A781A4202D192352D78CC
:103F60006B400425002E61D050070126810F1E40B2
:103F7000251C231C0A0608330E353F023249A800CF
:103F80003F0A02930B5817430B980A9A00251560B5
:103F900005609F4233D0201CFFF7FCFE0190AE422B
:103FA00000D0051C01232E1C1E40002828D0029999
:103FB000254A063188008750039F1D1C002F20D002
:103FC000244F3B5D002B1CD0201C00F0A5FB0028DB
:103FD00002D1214800F080F9201C00F05BFB051E97
:103FE00002D0201CFFF78AFF0A990D60002D02D134
:103FF0001A4800F071F900203855022501E00195BA
:104000000325002E0DD0201C00F06CFB0B9E3060B1
:10401000002802D1124B336005E00E4F01223A55C1
:1040200001E00B9C26600199002905D1064CE06F48
:1040300000F0CCFA0020E067034A00261670FFF774
:1040400035FF281C05B0F0BD640400205B010C00A6
:104050005C010C00F804002091010C0096010C009A
:10406000BC040020F8B51F4C071C23780E1C013B34
:10407000012B02D91C4800F02FF90425002F19D07C
:104080002078012802D0194800F026F9E268002AB9
:1040900002D1174800F020F9E16800250F78AF42FF
:1040A00008D06068FFF776FE0225002802D111488B
:1040B00000F012F9002E0ED06768381C00F0EAFA02
:1040C000061E02D0381CFFF719FFA3689E4202D0DB
:1040D000094800F001F900202070FFF7E7FE281CD6
:1040E000F8BDC04664040020FC000C0002010C0076
:1040F00003010C000E010C001E010C00014B18788E
:104100007047C0466404002038B5041C0D1C00F044
:1041100013FB002801D1002008E0281C211C00F01E
:1041200083FA0028F7D0FFF7C1FE012038BD08B59B
:1041300000F0D8FA08BD10B5041CFFF7DFFE201C04
:1041400000F000FB10BD08B500F0E6FA08BD08B5A8
:10415000083000F0C7FA08BD08B5083000F09AFA38
:1041600008BD08B5083000F0EDFA08BD08B5083004
:1041700000F0D2FA08BD10B52A4C2378002B02D0EB
:10418000294800F0A9F8201C90300178002927D098
:104190002069606000F0A6FAA060002802D12348E0
:1041A00000F09AF8A26801235078034004D1211C42
:1041B00092310A78002A10D16068FFF7D7FF0228F1
:1041C0000ED8E36F002B02D100F0E2F9E067E16F57
:1041D000E160002904D0012001E0E36002202070AA
:1041E0002278002082421BD0A368834202D110486B
:1041F00000F072F820696060063081006318DA7898
:1042000003210132D0B2D870A36808405A78410027
:10421000062082430A435A70903400232370012001
:1042200010BDC04664040020C3000C00C9000C008F
:10423000E7000C0008B500F0ABF908BD08B500F0C8
:10424000C5F908BD08B500F077FA08BD014B9233F7
:104250001870704764040020014B9233187870473F
:10426000640400207047C046024B98705870187064
:104270007047C0460005002010B5041E012C02D96D
:10428000024800F029F8024B5C7010BD2A000D00B6
:1042900000050020014B18787047C046000500203B
:1042A000014B98787047C04600050020014B5878B4
:1042B0007047C0460005002008B5054B1A785878AD
:1042C0009A701870034B8100CA58904708BDC046C9
:1042D000000500207800002008B5FEF7FFF808BDB3
:1042E00010B5041E02D10448FFF7F6FF034B00226D
:1042F0001C605A609A6010BD2A0001002C03002047
:10430000094B00B518689A68016801329A608A42C0
:1043100008D359684068002201319A60596081428F
:1043200000D35A6000BDC0462C030020F8B5002819
:104330002AD0164CA36801280ED1276801333A68A9
:10434000A360934220D36068796800250130A5609E
:104350006060884218D316E02668C7183568A760E1
:10436000381C291C00F042FB62683B1C801860600E
:10437000AB4201D35B1BFBE771686568A3608D42AC
:1043800001D36D1AFBE76560F8BDC0462C03002021
:10439000024B1A6899681068401A70472C03002075
:1043A00070B50D4D041C2B685868844202D30B482D
:1043B000FFF792FF6E68B4420CD002D829684A68B1
:1043C000A418FFF7E5FF2D68F3432E681919714310
:1043D000081800E0002070BD2C03002068000100D8
:1043E00070B5041C0D1C884202D30B48FFF774FF04
:1043F0000A4E33681868854202D90948FFF76CFFF6
:10440000B168601AA14206D30020A94203D33268E2
:1044100015686E1A301970BD7D0001002C03002054
:104420007E00010038B5041C101C0D1CFFF7B8FFFE
:10443000002801D0001911E0201C291CFFF7D0FF33
:10444000041CFFF7A5FF031C201E984206D3044955
:104450000D686A682C68013A5443001938BDC0469B
:104460002C030020074B10B51A68596850681C1CB3
:10447000814202D30448FFF72FFF236861689A68DE
:10448000505C10BD2C030020B200010038B5064B73
:10449000041C1A681D1C5068844202D30348FFF7AD
:1044A0001BFF6C6038BDC0462C030020B900010022
:1044B000014B58687047C0462C03002038B5064BA6
:1044C000041C1A681D1C1068844202D30348FFF7BD
:1044D00003FFAC6038BDC0462C030020C5000100BE
:1044E000014B98687047C0462C03002010B50F4B55
:1044F0001A68002393420BD20D499C006458A042D5
:1045000003D10C48FFF7E8FE0CE00133DBB2F1E722
:1045100000242222624308495318984204D00134EF
:10452000062CF6D1002000E0012010BD040500207B
:1045300008050020F60003001006002010B5002238
:104540000F495000801800230C1801326370A370CB
:104550004354102AF4D122225A430A490A485418D3
:10456000211C9A0084502231DE22227001348C42B8
:10457000FAD10133062BEED1044C236010BDC046A6
:10458000200500201006002008050020040500205A
:1045900038B50A4B1C68002C0ED0621E08499000EA
:1045A0004458084D1A604550201CFFF79FFF002813
:1045B00002D10548FFF790FE201C38BD04050020FD
:1045C00008050020ADDEADDE7D00030070B5104CA7
:1045D000051C2368052B02D90E48FFF77DFE281C19
:1045E000FFF784FF002802D10B48FFF775FE216812
:1045F0000A488A0011580A4B061C994202D0094801
:10460000FFF76AFE206882000130B550206070BD5F
:104610000405002085000300860003000805002033
:10462000ADDEADDE88000300F8B5051C0C1E0F2CB6
:1046300002D91448FFF750FE281CFFF757FF002847
:1046400002D11148FFF748FE104966003019435C5B
:104650000022022B13D80B185F78C0190C4F800072
:10466000C5515D780135E8B258705F78022F00D9E6
:104670005A7032198C5C0134E6B28E540122101C3F
:10468000F8BDC0468F000300900003002005002005
:104690005005002038B5041E0F2C02D90E48FFF734
:1046A0001BFE0E4A65002919885C002813D0531898
:1046B000987809180A488900085899780131C9B2D0
:1046C00099709978022901D9002199702C19155DEA
:1046D000013DEBB2135538BDA600030020050020B4
:1046E0005005002010B5041E0F2C02D90748FFF713
:1046F000F3FD074B62001119C85C002805D058185B
:1047000084780B1903499A00505810BDB700030074
:10471000200500205005002010B5041E0F2C02D9E2
:104720000348FFF7D9FD630002491819405C10BD2A
:10473000C800030020050020014B18687047C046E0
:104740000405002038B5051E0F2D0CD90948FFF7C8
:10475000C3FD08E0084B9C4202D10848FFF7BCFDAE
:10476000201CFFF733FF281CFFF794FF041EF1D134
:1047700038BDC046D7000300ADDEADDEDB00030070
:10478000164BA12110B50122CC0000205A60DA603E
:1047900018515A64124A1C1C9958814202D011487F
:1047A000FFF79AFD0123C222584291000E4B605040
:1047B0000022A2215A640420CB00E0500B490C4C8B
:1047C000012022602271627108700A4B8022C02190
:1047D000D40081405C501C6010BDC04600A0004069
:1047E0004405000035000400FCA00040DC06002069
:1047F0003803002000E100E0034B044901220020BF
:104800001A6008707047C04600A00040DC06002017
:10481000094A30B501235360084CD3608025084A0B
:10482000C0200021ED009840116011712550517198
:10483000044A137030BDC04600A0004000E100E013
:1048400038030020DC060020014B18787047C04672
:10485000DC060020014B18797047C0463803002061
:10486000F7B5334F0092334C8022C2237E790191F9
:10487000051C990050026050002E02D02E48FFF710
:104880002BFD002D02D12D48FFF726FD3A68002AA6
:1048900002D02B48FFF720FD3D60009D294E012DE1
:1048A0000DD0002D03D0022D0DD1A92208E001204A
:1048B000254B00996064E5582064716407E0A822E4
:1048C000D500655903E02148FFF706FD00250122C8
:1048D0007A71019FA821E81987B20023C800736488
:1048E0002750275800976264174AA758716C1E1CFE
:1048F000994202D01648FFF7EFFC009BAB4205D36C
:10490000AF4201D39F420CD3124808E0301CAF42A3
:104910007041009DAF427641B04202D00E48FFF791
:10492000DBFC8022C12157028E00A751F7BDC04693
:104930003803002000A0004073000400750004004C
:1049400076000400FCA0004044050000890004003B
:104950009B000400B0000400C90004000048704738
:1049600048A000400048704740A1004070B5802238
:10497000134C144DC22350029900002668506664FF
:10498000114C2268B24202D11048FFF7A5FC104B2F
:10499000012166712068A82226606964EE58D30060
:1049A000EA580C4D1432AE4203D8C0231D02AA426D
:1049B00002D80021964249412171804770BDC0460E
:1049C000FCA0004000A0004038030020EC000400E0
:1049D00044050000FF3F000002B471464908490049
:1049E000095C49008E4402BC7047C046002934D09F
:1049F0000123002210B488422CD301242407A142B1
:104A000004D2814202D209011B01F8E7E400A1426D
:104A100004D2814202D249005B00F8E7884201D308
:104A2000401A1A434C08A04202D3001B5C082243E0
:104A30008C08A04202D3001B9C082243CC08A04251
:104A400002D3001BDC082243002803D01B0901D03D
:104A50000909E3E7101C10BC704701B5002000F005
:104A60000BF802BD0029F8D003B5FFF7C1FF0EBC5B
:104A70004243891A1847C0467047C046002310B504
:104A80009A4200D110BDCC5CC4540133F8E7000059
:104A9000F8B5C046F8BC08BC9E467047F8B5C0469D
:104AA000F8BC08BC9E46704700000020982F8A4240
:104AB00091443771CFFBC0B5A5DBB5E95BC2563970
:104AC000F111F159A4823F92D55E1CAB98AA07D888
:104AD000015B8312BE853124C37D0C55745DBE72AB
:104AE000FEB1DE80A706DC9B74F19BC1C1699BE42B
:104AF0008647BEEFC69DC10FCCA10C246F2CE92DBB
:104B0000AA84744ADCA9B05CDA88F97652513E98DE
:104B10006DC631A8C82703B0C77F59BFF30BE0C6E5
:104B20004791A7D55163CA0667292914850AB72773
:104B300038211B2EFC6D2C4D130D385354730A6510
:104B4000BB0A6A762EC9C281852C7292A1E8BFA2E7
:104B50004B661AA8708B4BC2A3516CC719E892D14F
:104B6000240699D685350EF470A06A1016C1A419D2
:104B7000086C371E4C774827B5BCB034B30C1C39D1
:104B80004AAAD84E4FCA9C5BF36F2E68EE828F7490
:104B90006F63A5781478C8840802C78CFAFFBE90AA
:104BA000EB6C50A4F7A3F9BEF27871C66D69746F0F
:104BB000736973206C656674206B6579626F6172CE
:104BC000640000006D69746F7369732072696768AF
:104BD00074206B6579626F6172640000656E637248
:104BE000797074696F6E206B65790000656E637211
:104BF000797074696F6E206E6F6E636500000000DF
:104C00004D4143206B6579003054AF7E1A22FA8EF5
:104C100029B60B132667D385000000000010014061
:104C20001101040000B000400B000400FF0F03005E
:104C300000001F00030200000102000000100040FD
:104C4000101100400310000001000000001000409F
:104C5000000000000B0204000000000004100040EF
:104C60000000000007080301000000000000000031
:084C700098B4FF7F0100000071
:104C7800000000000000000000000000000000002C
:104C8800000000000000000000000000000000001C
:104C9800000000000000000000000000000000000C
:104CA80000000000000000000000000000000000FC
:104CB80000000000000000000000000000000000EC
:104CC80000000000000000000000000000000000DC
:104CD800400300200500000004192A3F4D00000091
:104CE80000000000000000004D3400009931000071
:084CF800E9000000C10000000A
:0400000300001C419C
:00000001FF
