:100000000C9435060C947C060C947C060C947C06AF
:100010000C947C060C947C060C947C060C947C0658
:100020000C947C060C947C060C9401270C94D42729
:100030000C94871A0C947C060C947C060C947C0619
:100040000C947C060C947C060C947C060C947C0628
:100050000C947C060C94FB1A0C947C060C947C0685
:100060000C947C060C947C060C947C060C947C0608
:100070000C947C060C947C060C947C060C947C06F8
:100080000C947C060C947C060C947C060C947C06E8
:100090000C947C060C947C060C947C060C947C06D8
:1000A0000C947C060C947C060C947C060A0025308B
:1000B000313662003A200025303258000A722F6330
:1000C00020303132333435363738394142434445B4
:1000D000460A000129022900016502650001AA0201
:1000E000AA0001AB02AB0001A902A90001AE02AE59
:1000F00000140013001C0006000500190010001871
:10010000001D000F00040011000C0016000900077C
:100110000017000B0012001500360037000D000A12
:1001200000380033001A000E0034001B00000000ED
:100130003002302B00E000E20028004C004B0000B1
:100140000000000130E3000800407041702C002ADC
:10015000004E00000001000100010001000100014B
:100160000001000100010001000100010001000187
:100170000001000100010001000100010001000177
:100180000001000100010001000100010001000167
:100190000000000100010001000100010001000158
:1001A0000001000000000001000100010001000149
:1001B000000100010001000000240222025200237D
:1001C0000231022F002400250026002D001F0250BE
:1001D0000051004F00200226022100220023002EA1
:1001E0000225022D021E02210231002F021E001FD5
:1001F000002000280000004A003500A50001000191
:10020000002E0035023700000000004D0001000103
:10021000000100010027000100460000000100016C
:100220000001000100010030004000410042004395
:10023000000100010001000100010027023D003E15
:10024000003F0044000100010001000100010030F6
:10025000023A003B003C00450000000100010001A3
:100260000001000100010001000100000000000188
:100270000001000100010001000100010001000077
:10028000000A44454255473A20656E61626C6564D8
:100290002E0A000A002530325820006B6579626F03
:1002A0006172645F7265706F72743A20000A002593
:1002B000303258006B6579626F6172645F73657488
:1002C0005F6C65643A200064656C5F6B65795F62A2
:1002D00069743A2063616E27742064656C3A202546
:1002E0003032580A006164645F6B65795F626974DB
:1002F0003A2063616E2774206164643A20253032AD
:10030000580A004F6E6573686F743A2074696D65A2
:100310006F75740A00290A002575002F00257500E5
:100320005D2800256400200025640020002564006D
:1003300020002564007C0025303258006D6F7573F5
:10034000656B6579205B62746E7C782079207620FD
:10035000685D287265702F61636C293A205B006DBF
:100360006B5F776865656C5F74696D655F746F5FFF
:100370006D6178203D2025640A006D6B5F776865AC
:10038000656C5F6D61785F7370656564203D2025E5
:10039000640A006D6B5F74696D655F746F5F6D619A
:1003A00078203D2025640A006D6B5F6D61785F7376
:1003B00070656564203D2025640A006D6B5F696E81
:1003C00074657276616C203D2025640A006D6B5F58
:1003D00064656C6179203D2025640A006D6B5F7750
:1003E0006865656C5F74696D655F746F5F6D61787A
:1003F000203D2025640A006D6B5F776865656C5F42
:100400006D61785F7370656564203D2025640A0026
:100410006D6B5F74696D655F746F5F6D6178203DB2
:100420002025640A006D6B5F6D61785F7370656590
:1004300064203D2025640A006D6B5F696E746572EF
:1004400076616C203D2025640A006D6B5F64656CED
:100450006179203D2025640A000A00257500363A9E
:1004600020776865656C5F74696D655F746F5F6D3B
:1004700061783A20000A00257500353A20776865D2
:10048000656C5F6D61785F73706565643A20000A22
:1004900000257500343A2074696D655F746F5F6D77
:1004A00061783A20000A00257500333A206D6178A2
:1004B0005F73706565643A20000A00257500323A62
:1004C00020696E74657276616C286D73293A20001C
:1004D0000A00257500313A2064656C6179282A315B
:1004E000306D73293A20000A092D2056616C75651C
:1004F00073202D0A004D3E004D25643E20003F0034
:100500007365742064656661756C740A00433E20EF
:100510000077686572652064656C74613A20637564
:1005200072736F723D25642C20776865656C3D257C
:10053000640A53656520687474703A2F2F656E2EB7
:1005400077696B6970656469612E6F72672F77696F
:100550006B692F4D6F7573655F6B6579730A000A60
:10056000092D204D6F7573656B6579202D0A4553F4
:10057000432F713A09717569740A313A0964656CDF
:100580006179282A31306D73290A323A09696E740B
:10059000657276616C286D73290A333A096D61784A
:1005A0005F73706565640A343A0974696D655F74D8
:1005B0006F5F6D61780A353A09776865656C5F6DC4
:1005C00061785F73706565640A363A0977686565B6
:1005D0006C5F74696D655F746F5F6D61780A0A7036
:1005E0003A097072696E742076616C7565730A647D
:1005F0003A097365742064656661756C74730A7575
:10060000703A092B310A646F776E3A092D310A70FE
:100610006775703A092B31300A7067646F776E3AEC
:10062000092D31300A0A7370656564203D206465C8
:100630006C7461202A206D61785F73706565642039
:100640002A2028726570656174202F2074696D6599
:100650005F746F5F6D6178290A003F004D3E200096
:10066000433E20004C25640A0074696D65725F7218
:10067000656164333228293A202530346C580A00E9
:100680006B65796D61705F636F6E6669672E6E6B07
:10069000726F3A2025580A006B6579626F61726447
:1006A0005F69646C653A2025580A006B6579626F52
:1006B0006172645F70726F746F636F6C3A2025585B
:1006C0000A00686F73745F6B6579626F6172645F53
:1006D0006C65647328293A2025580A000A092D20E0
:1006E000537461747573202D0A004743433A2036D2
:1006F0002E332E30204156522D4C4942433A20325F
:100700002E302E30204156525F415243483A2061EC
:100710007672350A004F5054494F4E533A204C558B
:100720004641204D4F5553454B455920455854524D
:10073000414B455920434F4E534F4C4520434F4D5D
:100740004D414E44204E4B524F20343039360A0032
:100750004255494C443A2022323031372D30372D22
:1007600033302D32323A30363A3034222028323289
:100770003A30363A3034204A756C203330203230EB
:100780003137290A005649443A20307846454544D5
:1007900028756E6B6E6F776E29205049443A203071
:1007A0007836303630284D69746F73697329205656
:1007B00045523A203078303030310A0044455343B6
:1007C0003A20712E6D2E6B2E206B6579626F6172EF
:1007D00064206669726D7761726520666F72204D64
:1007E00069746F7369730A000A092D205665727364
:1007F000696F6E202D0A000A092D20436F6E736FFA
:100800006C65202D0A4553432F713A09717569743F
:100810000A6D3A096D6F7573656B65790A000A098F
:100820002D204D61676963202D0A443A09446562B1
:100830007567204D65737361676520546F67676CDA
:10084000650A583A094D6174726978204465627589
:1008500067204D6F646520546F67676C65202D209D
:1008600053686F77206B6579707265737365732059
:10087000696E206D617472697820677269640A4BD1
:100880003A094B6579626F617264204465627567ED
:1008900020546F67676C65202D2053686F77206B3D
:1008A00065797072657373207265706F72740A4D2A
:1008B0003A094465627567204D6F75736520546F02
:1008C00067676C650A563A0956657273696F6E0AF6
:1008D000533A095374617475730A433A0941637456
:1008E000697661746520436F6E736F6C65204D6F20
:1008F00064650A46312D4631303A0953776974638D
:100900006820746F204C6179657220302D39202861
:10091000463130203D204C30290A302D393A0953D8
:10092000776974636820746F204C61796572203038
:100930002D390A4553433A09537769746368207423
:100940006F204C6179657220302028616C7465726B
:100950006E617465206B65792031290A47524156D2
:10096000453A0953776974636820746F204C617944
:10097000657220302028616C7465726E6174652028
:100980006B65792032290A50415553453A094A7519
:100990006D7020746F20426F6F746C6F616465724C
:1009A00020285265736574290A4E3A094E4B524FFE
:1009B00020546F67676C650A003F004E4B524F3AF8
:1009C000206F66660A004E4B524F3A206F6E0A0047
:1009D0000A6D6F7573653A206F66660A000A6D6F5F
:1009E0007573653A206F6E0A000A6B6579626F61F4
:1009F00072643A206F66660A000A6B6579626F61FD
:100A000072643A206F6E0A000A6D61747269783AF6
:100A1000206F66660A000A6D61747269783A206F09
:100A20006E0A000A64656275673A206F66660A009E
:100A30000A64656275673A206F6E0A000A0A4A7591
:100A40006D70696E6720746F20626F6F746C6F6178
:100A50006465722E2E2E2000433E20005B735D00E5
:100A60004B6579626F6172642073746172742E0ACF
:100A7000005B575D005B535D005B525D005B445D56
:100A8000005B435D0010034D00690074006F00734C
:100A900000690073000000100375006E006B006EAB
:100AA000006F0077006E0000000403090409028D46
:100AB00000050100A0FA090400000103010100097A
:100AC00021110100012240000705810308000A09E5
:100AD0000401000103010200092111010001224D5E
:100AE000000705820308000A090402000103000050
:100AF00000092111010001223600070583030800C7
:100B00000A09040300020300000009211101000189
:100B100022220007058403200001070504032000AA
:100B20000109040400010300000009211101000172
:100B30002239000705850320000112011001000081
:100B40000008EDFE606001000102000105010906D8
:100B5000A101050719E029E7150025019508750190
:100B60008102050819012905950575019102950174
:100B7000750391010507190029F71500250195F85E
:100B800075018102C00631FF0974A10109751500C4
:100B900026FF009520750881020976150026FF00C2
:100BA000952075089102C005010980A101850216F2
:100BB00001002603001A81002A8300751095018127
:100BC00000C0050C0901A1018503160100269C0245
:100BD0001A01002A9C02751095018100C0050109C7
:100BE00002A1010901A10005091901290515002526
:100BF00001950575018102950175038101050109C2
:100C00003009311581257F9502750881060938154F
:100C100081257F950175088106050C0A380215812A
:100C2000257F950175088106C0C005010906A1014F
:100C3000050719E029E715002501950875018102CE
:100C400095017508810105081901290595057501AA
:100C500091029501750391010507190029FF1500FF
:100C600026FF00950675088100C011241FBECFEF36
:100C7000DAE0DEBFCDBF04B603FE27C080913A02A2
:100C800090913B02A0913C02B0913D028730904B85
:100C9000A740B04BD1F410923A0210923B0210924E
:100CA0003C0210923D0214BE84B7877F84BF0FB60A
:100CB000F894A895809160008861809360001092FC
:100CC00060000FBEE0E0F8E3099511E0A0E0B1E0BC
:100CD000ECE4F6E502C005900D92A633B107D9F712
:100CE00022E0A6E3B1E001C01D92AA33B207E1F70A
:100CF0000E9447240C94242B0C940000FF93EF9344
:100D0000E0913601F0913701309709F00995EF91A4
:100D1000FF910895FC018591803011F0EFDFFBCF4A
:100D20000895FF27E0E230E247FF0CC0419597FFAE
:100D300009C0EDE26095709580959095611D711DDB
:100D4000811D911D27FF02C0219530E350E2AA27A3
:100D5000660F771F881F991FAA1FA41710F0A41BE6
:100D600063955A95A9F7AA3008F0A95FA05DAF93E3
:100D7000F395611571058105910541F7ED3211F487
:100D8000EF93F395F21718F43F93F395FBCF8F9100
:100D9000B5DFFA95E1F70895E991F99185918030F1
:100DA00021F0853219F0AADFF9CF089520E0E89408
:100DB00055915532C1F3503311F4689455915A331B
:100DC00048F4505390F3220F022E220F220F200DD1
:100DD000250FF4CF0EF4219589919991533619F38B
:100DE000533729F1533559F1BC0188279927E894E5
:100DF0005C3621F48991999168945591543639F46F
:100E000046EF7EF077FF0DC08FEF9FEF0AC055379A
:100E10004AE039F0583540E121F0523642E009F01D
:100E20000895FF93EF937DDFEF91FF91B7CFFF938D
:100E3000EF93FC0181918030B9F360DFFBCFFF932A
:100E4000EF9368DFF1CFDF93CF93CDB7DEB7259671
:100E5000A3DFCF91DF91089508950C942C070C9493
:100E60006E0ACF93DF93CDB7DEB72B970FB6F8940A
:100E7000DEBF0FBECDBF1092CC001092CD0088E136
:100E80008093C90086E08093CA0083E78093CE00F8
:100E9000FE0131968BE0DF011D928A95E9F7CE01C4
:100EA0000C96DF0140E050E0BA012091C80027FD18
:100EB0000AC04F5F5F4F6F4F7F4F413127E25207AC
:100EC0006105710590F32091CE002D93A817B90705
:100ED00061F78B85803E91F4A8E3B1E09E01255F28
:100EE0003F4F818140E2849FC00111244081842BC7
:100EF0008D939D933296E217F30799F70E94700A3B
:100F000081E02B960FB6F894DEBF0FBECDBFDF9108
:100F1000CF910895E82FF0E0EE0FFF1FE85CFE4F41
:100F2000808191810895CF92DF92EF92FF920F938B
:100F30001F93CF93DF938CEB90E00E948A0688E3A7
:100F4000E82E81E0F82EC0E0D0E097EBC92E90E0CB
:100F5000D92E0EEA10E0DF93CF93DF92CF920E945A
:100F6000230784EB90E00E948A06F701819191911A
:100F70007F010E94F4199F938F931F930F930E94F8
:100F800023078CEA90E00E948A0621968DB79EB7CF
:100F900008960FB6F8949EBF0FBE8DBFC530D10521
:100FA000D1F6DF91CF911F910F91FF90EF90DF90DD
:100FB000CF9008951092CC001092CD0088E18093DC
:100FC000C90086E08093CA000895519A599A80B367
:100FD000806380BB81B3806381BB08950E942D072D
:100FE0000E94DA070C94E5070C94C3080895FC01ED
:100FF0006130E1F028F0623041F180E090E0089546
:101000008281882339F00E94B91A90934401809319
:101010004301F3CF80914301909144010E94D11A82
:101020008739910508F587EE90E008958281811156
:10103000EACF80914301909144010E94D11A8739EF
:101040009105A8F48DED90E0089582818111DBCFA8
:1010500080914301909144010E94D11A87399105F2
:1010600048F483ED90E008958CEE90E0089582EED0
:1010700090E0089588ED90E008950F931F93CF932B
:10108000DF93EC018B016091C4017091C5018091E7
:10109000C6019091C7010E948D19C03420E7D20784
:1010A000D1F0C13490E7D90709F442C0109242014F
:1010B000833009F066C0CE01CA970C9718F0E0970C
:1010C00009F05FC0F801C28182E0CC2309F457C067
:1010D0000E946A0F16C0F80182818823C1F00E9425
:1010E000B91A909344018093430181E080934201B7
:1010F00082E00E944B1643E061E082E00E941D0AFC
:10110000C0E08C2FDF91CF911F910F9108958091B6
:101110004301909144010E94D11A8C32914020F0F9
:10112000809142018111E7CF82E00E946C16E3CFEB
:10113000F8018281882379F00E94B91A90934401C2
:101140008093430181E0809342010E944B1681EE1F
:101150000E947D0ED0CF80914301909144010E9466
:10116000D11A8C32914020F0809142018111C3CF7D
:1011700081E00E946C1681EE0E943B0FBCCF0E9462
:10118000630FC1E0BECF6091C4017091C501809131
:10119000C6019091C7010E948D19813071F028F02D
:1011A000823039F0833059F008958D9A599A8C9A8B
:1011B00008958D9A599A8C9808958D98F7CF8D9AA5
:1011C0005998F5CF81E008950C943D080E94E011F4
:1011D0002FEF84E39CE0215080409040E1F700C075
:1011E000000087E797E790930108809300080C942C
:1011F000201BFF920F931F93CF93DF938C01FC0171
:10120000C081D18180916801811127C082818823AA
:10121000F9F0CE010E945C17F82E682FCE010E94D3
:101220000717BE018F2D0E94750AEC01B8010E94BC
:10123000E408882331F0B801CE010E94860C8111A8
:10124000C6C080E0DF91CF911F910F91FF9008956C
:10125000CE010E943117F82EE4CFCE010E945C1718
:10126000BE01E1CFF8018281882359F30E94E6088C
:10127000E8CFF8018281882321F381E892E00E947F
:101280008A068091F50181608093F501DACFF8013B
:101290008281882309F4B2C00E94211A811102C000
:1012A0000E94071A0E94341A90E090932C028093B7
:1012B0002B02FE01E350F047E231F105C0F4EB5997
:1012C000F64F80912B020C94D42A8309850990094A
:1012D000870989098B098D098F0992099409960953
:1012E000A10998099A099C099E09A009A30980915E
:1012F0002B02816080932B0280912B020E94381A6E
:101300000E94E0119ECF8260F5CF8460F3CF8061B0
:10131000F1CF8062EFCF8064EDCF8068EBCF846047
:101320008860E8CF8E7FE6CF8D7FE4CF8B7FE2CFE2
:101330008F7EE0CF8F7DDECF8F7BDCCF8F77DACFD4
:101340008B7F877FD7CF87FB992790F921E0922762
:1013500090FB87F9CFCFF8018281882361F010924A
:1013600047010E94B91A909346018093450182E09B
:101370000E94630F66CF8091470181110FC0809159
:101380004501909146010E94D11A883C910530F4A4
:1013900086E20E947D0E86E20E943B0F82E00E9460
:1013A0006A0F4FCF8091480181110FC08091450194
:1013B000909146010E94D11A883C910530F487E251
:1013C0000E947D0E87E20E943B0F80E2E8CFC5318C
:1013D000F0E7DF07D8F4C23080E7D80708F057CF2E
:1013E000C115E0E7DE0709F43DCFC130D04709F46D
:1013F00040CF81E08093470180934801C801DF918D
:10140000CF911F910F91FF900C94E208CC3380E7AD
:10141000D80709F4A0CFCD33D04759F7F80182811E
:10142000882309F4BFCF109248010E94B91A909303
:1014300046018093450180E29BCF8F929F92AF92AD
:10144000BF92CF92DF92EF92FF920F931F93C12C26
:10145000D12C7601C3949701860104C0000F111F9F
:10146000221F331F6A95D2F74601570104C0880C2A
:10147000991CAA1CBB1C8A95D2F7D501C401802BEC
:10148000912BA22BB32B0091C4011091C501209187
:10149000C6013091C701082319232A233B23801753
:1014A0009107A207B30769F4842F1F910F91FF9052
:1014B000EF90DF90CF90BF90AF909F908F900C9463
:1014C0004B16842F1F910F91FF90EF90DF90CF90DC
:1014D000BF90AF909F908F900C946C160C94EE0779
:1014E0000C94F4070C94F6070895972F70E02AE007
:1014F000929F600D711D1124FB0192E3899FE00D05
:10150000F11D1124EE0FFF1FEF50FF4F85919491B5
:101510000895FC01EE0FFF1FEF50FF4F859194914E
:1015200008950E94750A0E94040C811520E4920718
:1015300008F08DC0811540E3940708F0E7C0803EB5
:10154000910508F071C0803C910508F0CBC0883A45
:10155000910580F4853A910508F0C9C08130910564
:1015600009F46EC020F08430910508F069C080E075
:1015700090E008958D3B9105D0F7883A910509F4E4
:1015800004C1893A910509F403C18A3A910509F425
:1015900002C18B3A910509F401C18C3A910509F415
:1015A00000C18B3B910509F4FFC08C3B910509F408
:1015B000FEC08D3A910509F4FDC0803B910509F408
:1015C000FCC08E3A910509F4FBC08F3A910509F4ED
:1015D000FAC0813B910509F4F9C0823B910509F4F9
:1015E000F8C0833B910509F4F7C0843B910509F4E9
:1015F000F6C0853B910509F4F5C0863B910509F4D9
:10160000F4C0873B910509F4F3C0883B910509F4C8
:10161000F2C0893B910509F4F1C08A3B910509F4B8
:10162000F0C080E094E408958F3F910509F048F4FC
:10163000803F910508F066C0883E910508F097CF7D
:101640000895811520E2920708F05EC00895811583
:1016500043E5940760F5811522E5920708F061C023
:10166000811541E5940708F057C0811520E59207E0
:1016700008F44FC09C0154E0369527955A95E1F740
:10168000922F9370482F437021E030E002C0220F68
:10169000331F4A95E2F73C68392B8695869583700F
:1016A00040E2849FC0011124822B932B0895811561
:1016B00045E5940750F4811524E5920708F445C0E8
:1016C000982F8827846F906A0895811546E59407BE
:1016D00008F44FC09C0130562115304108F047CF27
:1016E0009F704BC0805C91090E94890A0895853AD9
:1016F000910509F444C0863A910509F043C082E897
:1017000090E40895906508959F70EECF9927906CAE
:1017100008959F70906A0895982F8827816F906A26
:101720000895AC014370552721E030E002C0220F3C
:10173000331F4A95E2F78695869540E2849FC00163
:101740001124822B932B9C680895AC01437055277C
:1017500021E030E002C0220F331F4A95E2F7869560
:10176000869540E2849FC0011124822B932B9A68B6
:101770000895982F882788279F719062089581E89F
:1017800090E4089583E890E4089582EE94E4089547
:1017900089EE94E408958AEE94E4089585EB94E448
:1017A000089586EB94E4089583EB94E4089584EB24
:1017B00094E4089587EB94E408958CEC94E4089500
:1017C0008DEC94E4089583E895E408958AE895E41F
:1017D000089582E995E4089584E995E4089581E205
:1017E00096E4089583E296E4089584E296E40895E9
:1017F00085E296E4089586E296E4089587E296E409
:1018000008958AE296E41CCF8238910549F1B0F43C
:101810008133910509F45AC048F48932910509F4DD
:1018200050C08A32910509F456C008958533910558
:1018300009F442C08933910599F00895833E9105DA
:1018400021F138F4803E910581F0823E9105A1F0AE
:101850000895863E910501F1873E910531F1089585
:1018600020912B022370E1F5089520912B0220FF97
:1018700012C089E390E0089520912B0222FF0BC053
:1018800024FF31C080E090E0089520912B0222FDDA
:101890002DC024FDF7CF089520912B0223FFFBCF0D
:1018A00024FDF0CF87EE90E0089520912B0223FFD6
:1018B000F0CF86EE90E0089520912B0225FD19C00F
:1018C000089520912B0225FD17C0089520912B0229
:1018D00026FD15C0089520912B0226FD13C0089502
:1018E00080EE90E0089583EE90E0089582EE90E01F
:1018F000089589E290E0089585E390E008958AE2F2
:1019000090E0089581E390E0C6CF08950F931F9370
:10191000CF938C01FB018281811106C0C1E08C2F25
:10192000CF911F910F910895C0915601C11125C00B
:101930000531104799F70E94850C81E0809356018C
:101940000E94B91A90935501809354011092490155
:1019500010924B0110924A0110924D0110924C01CD
:1019600010924F0110924E011092510110925001AD
:101970001092530110925201D2CF80915401909154
:1019800055010E94D11A883C910540F68091490189
:10199000E82FF0E0EE0FFF1FE65BFE4F11830083A0
:1019A0008F5F80934901C0E0BACF90935C01809330
:1019B0005B010895E0915B01F0915C01309721F0AB
:1019C0000190F081E02D099480E00895EF92FF925C
:1019D0001F93CF93DF93F82E192FE0915B01F091C5
:1019E0005C013097A9F10280F381E02D0995809187
:1019F000F50182FF2DC080FF04C08BE992E00E94B8
:101A00008A06CF2DD12F10E285E9E82E82E0F82E4C
:101A10008091F50180FF0BC088811F928F93FF9208
:101A2000EF920E9423070F900F900F900F9011508C
:101A300021961111EDCF8091F50180FF09C083E956
:101A400092E0DF91CF911F91FF90EF900C948A0666
:101A5000DF91CF911F91FF90EF900895E0915B018E
:101A6000F0915C01309721F00480F581E02D09941C
:101A700008952091590130915A012817390771F0C2
:101A800090935A0180935901E0915B01F0915C01C0
:101A9000309721F00680F781E02D09940895209178
:101AA0005701309158012817390771F09093580168
:101AB00080935701E0915B01F0915C01309721F038
:101AC0000084F185E02D0994089508950C94650D26
:101AD0000E94B01A0E942F070C94311BCF93C82F7D
:101AE0008091F50182FF1EC080FF04C084EB92E06C
:101AF0000E948A068091F50180FF0CC01F92CF934F
:101B00008FEA92E09F938F930E9423070F900F908C
:101B10000F900F908091F50180FF04C08DEA92E054
:101B20000E948A068C2FCF910C94720A5F926F925A
:101B30007F928F929F92AF92BF92CF92DF92EF925D
:101B4000FF920F931F93CF93DF93CDB7DEB72A9702
:101B50000FB6F894DEBF0FBECDBF0E9431079EE5E1
:101B6000A92E91E0B92E00E010E088248394912CF6
:101B7000502E802F0E948A077C01F501C190D190E0
:101B80005F018C159D05B1F40F5F1F4F05301105E6
:101B900079F78FEF89838A831B820E94B91A81604B
:101BA000782F9D838C8349815A816B818D810E941E
:101BB0004F0E36C08091F50181FD0E94930780E0B1
:101BC00090E0CE24DF243401082E02C0660C771C7E
:101BD0000A94E2F7960126213721232B09F443C00A
:101BE0008E835F82E620F72081E0EF2809F480E011
:101BF00088870E94B91A8160782F9A8789874E81D9
:101C00005F8168858A850E944F0E000F111FF801C1
:101C1000E25AFE4F80819181682679267182608226
:101C20000E94421D0E94DA0C90915D01891709F112
:101C30000E94DA0C80935D012A960FB6F894DEBFFD
:101C40000FBECDBFDF91CF911F910F91FF90EF900D
:101C5000DF90CF90BF90AF909F908F907F906F90CC
:101C60005F900C946E0D01968A30910509F0ABCF10
:101C70008BCF2A960FB6F894DEBF0FBECDBFDF9193
:101C8000CF911F910F91FF90EF90DF90CF90BF9079
:101C9000AF909F908F907F906F905F900895CF93BB
:101CA000DF93CDB7DEB72B970FB6F894DEBF0FBE2C
:101CB000CDBF4F83588769877A878B87DE0111965E
:101CC00086E0FD0111928A95E9F785E0FE013796DD
:101CD00001900D928A95E1F749815A816B817C814F
:101CE0008D819E810E94A9142B960FB6F894DEBFB9
:101CF0000FBECDBFDF91CF910895CF93C82F88231A
:101D000009F4B7C08CEF8C0F813A58F48C2F0E94E5
:101D10008A208111AEC08C2F0E945518CF910C944F
:101D2000451980E28C0F883048F4C77081E001C00B
:101D3000880FCA95EAF70E94F218F0CF8BE58C0F56
:101D4000833078F4C53A39F0C63A41F083E890E040
:101D5000CF910C94390D81E890E0FACF82E890E0C1
:101D6000F7CF88E58C0F853108F083C0C83A09F4B5
:101D700041C0C93A09F441C0CA3A09F441C0CB3A5A
:101D800009F441C0CC3A09F441C0CB3B09F441C04D
:101D9000CC3B09F441C0CD3A09F441C0C03B09F441
:101DA00041C0CE3A09F441C0CF3A09F441C0C13B29
:101DB00009F441C0C23B09F441C0C33B09F441C02E
:101DC000C43B09F441C0C53B09F441C0C63B09F41A
:101DD00041C0C73B09F441C0C83B09F441C0C93BFD
:101DE00009F441C0CA3B09F441C080E090E0CF91C2
:101DF0000C944F0D82EE90E0FACF89EE90E0F7CF91
:101E00008AEE90E0F4CF85EB90E0F1CF86EB90E0A6
:101E1000EECF83EB90E0EBCF84EB90E0E8CF87EB65
:101E200090E0E5CF8CEC90E0E2CF8DEC90E0DFCF5E
:101E300083E891E0DCCF8AE891E0D9CF82E991E0B4
:101E4000D6CF84E991E0D3CF81E292E0D0CF83E294
:101E500092E0CDCF84E292E0CACF85E292E0C7CF94
:101E600086E292E0C4CF87E292E0C1CF8AE292E0BC
:101E7000BECFCF910895882329F19CEF980F913A16
:101E800020F40E94A2180C94451990E2980F983003
:101E900050F4877091E001C0990F8A95EAF7892F75
:101EA0000E94F818F0CF9BE5980F933020F480E063
:101EB00090E00C94390D885A853120F480E090E050
:101EC0000C944F0D0895882321F00E94F2180C9471
:101ED00045190895882321F00E94F8180C9445199B
:101EE00008958F929F92AF92BF92DF92EF92FF92EE
:101EF0000F931F93CF93DF937C01D62FC72FFC0145
:101F00001281058102950F700E94F917882319F03C
:101F100082E00E94331811110E9411190E944E187C
:101F2000D82E882371F0112331F180E28D0F883093
:101F300010F182E00E9433180E944E1891E0D82ED2
:101F4000D926EC2FE295EF708E2F90E0FC01E5553D
:101F5000F04F0C94D42ABD0FBD0F0E100E104D1073
:101F60006B10EB0FEB0F7610EB0F111111118311AA
:101F7000EB0FEB0F8C11D12CE4CF8C2F807FCF7027
:101F8000882311F0C295C07F1123A9F0CC2359F00A
:101F900080E28D0F883010F0D11109C08C2F0E9483
:101FA000F2180E9445198D2F0E947D0E14C08C2FAF
:101FB0000E940319F6CF8D2F0E943B0FCC2359F0BE
:101FC00080E28D0F883010F0D11124C08C2F0E9438
:101FD000F8180E944519DD2009F4A5C10E94F517E3
:101FE00080FDA1C1F70112820E94EF170E944B16DB
:101FF000C7010E949F110E94EF17DF91CF911F919F
:102000000F91FF90EF90DF90BF90AF909F908F90D7
:102010000C946C168C2F0E940919DBCF8C2F807FBB
:10202000CF70803211F0C295C07FDD2369F0D130CE
:1020300021F1112361F1002359F0F701858180FF1F
:10204000B2CF8F70858304C0112361F0011104C0E9
:102050008C2F0E94630FBFCF8C2F0130D1F70E94CD
:102060002519B9CF011106C00E942E198C2F0E948C
:102070006A0FB1CF0130C1F7AECF112321F0063086
:1020800008F0A9CFE5CF053008F0A5CFEFCF0023AA
:1020900069F38D2F0E943B0F9ECF8C2F86958695DE
:1020A000837059F0813009F096CF112389F08D2F7C
:1020B0009C2F93700E944F0D8ECF112331F08D2FE6
:1020C0009C2F93700E94390D86CF80E090E0FACF6C
:1020D00080E090E0EFCF8D2F112329F00E94C91BE3
:1020E0000E94B51C78CF0E94311CFACF8C2F8370D0
:1020F00009F048C011116FCF2D2F2295269527701A
:10210000220F220F6D2F6F70862E912CA12CB12CD7
:10211000022E04C0880C991CAA1CBB1C0A94D2F77E
:10212000D4FF1EC06FE070E080E090E004C0660F56
:10213000771F881F991F2A95D2F760957095809513
:102140009095C695C695C370C23071F0A0F4682909
:1021500079298A299B29C13091F00E94F4153BCF3F
:1021600060E070E0CB01EDCF682979298A299B29AD
:102170000E94101630CF0E94F415C501B4010E94D0
:10218000D81529CF1123C9F18C2F8170882309F428
:1021900022CF2D2F229526952770220F220F6D2FEB
:1021A0006F70862E912CA12CB12C022E04C0880CAD
:1021B000991CAA1CBB1C0A94D2F7D4FF20C06FE064
:1021C00070E080E090E004C0660F771F881F991FC1
:1021D0002A95D2F76095709580959095C695C6958D
:1021E000C370C23081F0B0F4682979298A299B290B
:1021F000C130A1F00E94CE16EECE8695C7CF60E02A
:1022000070E0CB01EBCF682979298A299B290E94AC
:10221000EA16E1CE0E94CE16C501B4010E94B216A4
:10222000DACE8D2F90E0FC01E05EF109E531F10599
:1022300008F061C0E25EFE4E0C94D42A33113311D3
:10224000331133113311331133113311331133116E
:1022500033113311331133113311331140114E1136
:1022600055115C116611DF708C2F8F71112321F0D5
:102270000E944B168D2FEDCE0E946C168D2FF7CE3F
:10228000112341F0053008F0A6CE8C2F8F710E94EB
:102290009116A1CE063008F09ECEF7CF112339F06B
:1022A0008C2F8F710E944B1696CE1123C9F38C2F61
:1022B0008F710E946C168FCE112329F08C2F8F7195
:1022C0000E94361688CE0E942C1685CE112349F026
:1022D000CF718C2F0E944B1663E08C2F0E94231825
:1022E0007ACE81E00E943318023008F474CE82E086
:1022F0000E94331870CE112319F0002389F253CEB7
:102300000023A9F2C6CE4C2F4F706D2FC7010E943B
:10231000F7070E9452155FCE4C2F4F706D2FC701EB
:102320000E94740A58CEDF91CF911F910F91FF90B8
:10233000EF90DF90BF90AF909F908F9008950F9394
:102340001F93CF93DF93EC01988189812B813C818E
:10235000232B39F08F3F19F481E09F3F19F080E083
:1023600001C081E080FD13C0CE010E94F9088823DE
:1023700071F0688179818A810E94A9178C010E947D
:1023800006170E94CD15B801CE010E94710FDF9192
:10239000CF911F910F9108950E9411190E94221947
:1023A0000E94E4180E9445190E94E51D0E94B51C78
:1023B00080E090E00E94390D80E090E00C944F0D99
:1023C0000E9400190C94CC110E949E17E92FE295EF
:1023D000EF704E2F50E0FA013297EE30F105D8F44D
:1023E000EC50FE4E0C94D42A021202120B120B1265
:1023F0000D120B120B120B120212021212120B12FE
:102400000B121212803F19F020F4803E20F481E07C
:102410000895843FE1F380E00895803EC0F3813F5A
:10242000D1F7F5CF93FB882780F90895CF93DF93F9
:1024300000D000D01F92CDB7DEB70F900F900F9055
:102440000F900F90DF91CF910895CF93DF9300D03D
:1024500000D000D0CDB7DEB726960FB6F894DEBF19
:102460000FBECDBFDF91CF9108951F93CF93DF9320
:10247000C091690116E080916A01C81304C0DF9120
:10248000CF911F910895D0E01C9FF0011D9FF00D8A
:102490001124E559FE4F408151816281738184810D
:1024A00095810E9425122196C770E5CF40919B012E
:1024B00050919C0160919D0170919E0180919F01BE
:1024C0009091A0010C9425121F93CF93DF938091DC
:1024D000A00182958F70D1F480919D018823B1F085
:1024E00080916901D0916A01B0919B01C0919C01DA
:1024F00040919E0150919F01A1E0BF3F09F0A0E0F3
:10250000BA016095709516E08D1304C0DF91CF91EC
:102510001F91089541155105D9F1CF3FD9F120E020
:1025200090E020FD3CC0189FF001199FF00D112490
:10253000E559FE4F21812C1332C020812B132FC06F
:10254000228121112CC0238134812417350720F1E9
:10255000241B350B283C310510F52091A0012F706C
:1025600020612093A00126E0289FF001299FF00D13
:102570001124E059FE4F80818F70806180838BE948
:1025800091E00E949F11DF91CF911F910C94351221
:1025900021E0C6CF2A2FC4CF260F371FDBCF0196ED
:1025A0008770B2CFAF92BF92CF92DF92EF92FF923D
:1025B0000F931F93CF93DF93CDB7DEB761970FB61D
:1025C000F894DEBF0FBECDBF8C0185E0F801DE01BF
:1025D0001D9601900D928A95E1F7D8014C911196C4
:1025E0005C9111971296EC9030919B0160919C0147
:1025F00080919E0190919F01009739F06F3F19F4EF
:1026000021E03F3F19F020E001C021E0B22FB1707E
:10261000BB2E20FD90C1F801C380D480A0909D0105
:10262000AA2009F432C12091A001C816D90610F1E0
:10263000D601A81BB90BCD01FF24F394883C91056A
:10264000F0F0F12C207F09F0E9C07C2DD98AC88AEE
:102650006E2D89890E9416128BE991E00E949F11CC
:10266000EBE9F1E086E0DF011D928A95E9F70E942F
:1026700056121EC0809590958C0D9D1DDDCF822F2A
:10268000807F09F084C0651325C0341323C0FE2C5D
:10269000E11020C02F7020612093A0010E945612EB
:1026A0008BE991E00E949F118091A001F801858340
:1026B0008F2D61960FB6F894DEBF0FBECDBFDF91B0
:1026C000CF911F910F91FF90EF90DF90CF90BF902F
:1026D000AF900895CD2839F05F3F19F481E04F3F66
:1026E00019F080E001C081E080FD24C081E08E25EA
:1026F000F82FF170FF2E80FF3FC08091690120917B
:102700006A0136E0821318C04D875E878D859E85ED
:102710000E949E17292F22952F70223008F1243015
:1027200030F59F7009F1D80115969C91907FE1F4E6
:10273000FB2CBECF80E0DCCF90E0389FF001399FCA
:10274000F00D1124E559FE4F6181561306C06081DA
:10275000641303C06281E6120FC001968770D2CF66
:102760009F7011F0882321F3805E883008F3C80140
:102770000E949F11BF2CDCCFFE2CEE2009F498CFD5
:102780008091A00181608093A001F12C91CF65130D
:1027900014C0341312C0E11010C08091A001F801E0
:1027A0008583C8010E949F1186E0F801ABE9B1E082
:1027B00001900D928A95E1F75ACF4D875E878D85FE
:1027C0009E850E94E411882309F4BFC0EE2009F41D
:1027D000BCC02091A001822F82958F7090E002975B
:1027E00074F080919B0190919C0198878F8319864A
:1027F000DB86CA862C87CE0107960E949F1186E051
:10280000F801ABE9B1E001900D928A95E1F70E94E1
:1028100064120E945612FF24F3944ACF651314C029
:10282000341312C0E11010C08091A001F80185831B
:10283000C8010E949F1186E0EBE9F1E0DF011D92E3
:102840008A95E9F7FA2C34CF4D875E878D859E8572
:102850000E94E411882309F478C0EE2009F475C0C1
:102860002091A001822F82958F7090E002973CF218
:1028700080919B0190919C019A8389831B82DD82C8
:10288000CC822E83CE010196B8CFC816D90680F02F
:10289000F601E81BF90BCF01883C910570F0F12C93
:1028A0007C2DD98AC88A6E2D89890E941612D8CEAD
:1028B000809590958C0D9D1DEFCFFE2CEE2009F498
:1028C00044C0651327C0341325C08091A00180FD4A
:1028D00018C0982F92959F70292F30E0211531054F
:1028E00081F0D80115968C9315972F30310509F496
:1028F00058CF9F5F9295907F8F70892B15968C9300
:1029000050CF86E0F801ABE9B1E001900D928A95D5
:10291000E1F7CECE4D875E878D859E850E94E411BE
:1029200081116DCF8091A00181608093A001C801C9
:102930000E949F11BDCEEE2041F04D875E878D85B0
:102940009E850E94E41181115ACFC8010E949F11F7
:1029500062CF1F93CF93DF93CDB7DEB72C970FB61F
:10296000F894DEBF0FBECDBF4F83588769877A8743
:102970008B879C87CE0107960E94D212882349F14B
:102980009F8188852A853B85232B39F08F3F19F459
:1029900081E09F3F19F080E001C081E080FD08C028
:1029A0004F81588569857A858B859C850E94251283
:1029B00016E08091690190916A01891343C02C96B9
:1029C0000FB6F894DEBF0FBECDBFDF91CF911F9140
:1029D000089586E0FE013796DE01119601900D9272
:1029E0008A95E1F79F8188852A853B85232B39F0DD
:1029F0008F3F19F481E09F3F19F080E001C081E032
:102A000080FDD6CF20916A0130E0C9010196877020
:102A100099274091690150E084179507A9F196E044
:102A2000929FD001939FB00D1124A559BE4FFE0176
:102A3000319601900D929A95E1F780936A010E9478
:102A40003512B6CF819FC001112485599E4F0E9437
:102A5000D212882309F4B3CFE09169011E9FF001DF
:102A60001124E559FE4F4081518162817381848137
:102A700095810E9425128091690190E001968770EE
:102A800099278093690195CF0E94E01110926A0105
:102A900010926901EBE9F1E086E0DF011D928A9571
:102AA000E9F78DCFEF92FF920F931F93CF93DF93B0
:102AB0008C01892B81F0F12CEE24E394E80121961E
:102AC000F8018491843770F4843008F062C081305A
:102AD000B1F08230B1F1DF91CF911F910F91FF9052
:102AE000EF900895853709F44FC008F43FC09CE784
:102AF000980F903780F78F770E943B0F4CC00E5F86
:102B00001F4FFE01849190E2980F983060F4877017
:102B1000FE2D01C0FF0F8A95EAF78F2F0E9414192E
:102B20000E94451902C00E947D0E8F2D882309F452
:102B3000C5CFEFE9FFE03197F1F700C00000815009
:102B4000F5CF0E5F1F4FFE01849190E2980F9830F1
:102B500050F48770FE2D01C0FF0F8A95EAF78F2F82
:102B60000E941A19DDCF0E943B0FDFCF0E5F1F4F6F
:102B7000FE01C491CC23C9F28FE99FE00197F1F7E0
:102B800000C00000C150F6CF0E5F1F4FFE01F49051
:102B9000CCCF0E947D0E8E01C8CF08956093C801EE
:102BA0007093C9018093CA019093CB010C94CC110E
:102BB0000F931F930091C8011091C9012091CA0180
:102BC0003091CB01DC01CB01802B912BA22BB32BBD
:102BD0008093C8019093C901A093CA01B093CB011F
:102BE0001F910F910C94CC110F931F930091C8016A
:102BF0001091C9012091CA013091CB01DC01CB01B8
:102C000080239123A223B3238093C8019093C90109
:102C1000A093CA01B093CB011F910F910C94CC11DA
:102C20000F931F930091C8011091C9012091CA010F
:102C30003091CB01DC01CB0180279127A227B3275C
:102C40008093C8019093C901A093CA01B093CB01AE
:102C50001F910F910C94CC111092C4011092C501D8
:102C60001092C6011092C7010C94CC1141E050E0C3
:102C700060E070E004C0440F551F661F771F8A95FF
:102C8000D2F74093C4015093C5016093C60170937D
:102C9000C7010C94CC1141E050E060E070E004C04A
:102CA000440F551F661F771F8A95D2F78091C40184
:102CB0009091C501A091C601B091C701842B952BBD
:102CC000A62BB72B8093C4019093C501A093C60196
:102CD000B093C7010C94CC1141E050E060E070E08B
:102CE00004C0440F551F661F771F8A95D2F7409581
:102CF0005095609570958091C4019091C501A09107
:102D0000C601B091C70184239523A623B7238093DE
:102D1000C4019093C501A093C601B093C7010C9460
:102D2000CC1141E050E060E070E004C0440F551F5A
:102D3000661F771F8A95D2F78091C4019091C501D3
:102D4000A091C601B091C70184279527A627B72770
:102D50008093C4019093C501A093C601B093C701AD
:102D60000C94CC110F931F930091C4011091C501D5
:102D70002091C6013091C701DC01CB01802B912B42
:102D8000A22BB32B8093C4019093C501A093C601DD
:102D9000B093C7011F910F910C94CC110F931F9307
:102DA0000091C4011091C5012091C6013091C70165
:102DB000DC01CB0180239123A223B3238093C401A0
:102DC0009093C501A093C601B093C7011F910F91C5
:102DD0000C94CC110F931F930091C4011091C50165
:102DE0002091C6013091C701DC01CB0180279127DA
:102DF000A227B3278093C4019093C501A093C60175
:102E0000B093C7011F910F910C94CC1108952AE043
:102E1000929F800D1124982F977041E001C0440FBC
:102E20009A95EAF786958695869595E0899FF001B3
:102E30001124EF55FE4F80E090E070E050819B013F
:102E4000082E02C0369527950A94E2F72170219545
:102E5000252724232527219301968530910571F795
:102E600008952AE0929F800D1124982F97708695DF
:102E70008695869525E0829FA001112460E070E090
:102E800080E0FA01E60FF71FEF55FE4F208130E09A
:102E9000092E02C0369527950A94E2F72170332750
:102EA000062E01C0220F0A94EAF7822B6F5F7F4F34
:102EB0006530710531F70895BF92CF92DF92EF929E
:102EC000FF920F931F93CF93DF938C01C090C401A7
:102ED000D090C501E090C601F090C7018091C80173
:102EE0009091C901A091CA01B091CB01C82AD92AF9
:102EF000EA2AFB2ACFE1D0E0BC2ED701C6010C2E76
:102F000004C0B695A795979587950A94D2F780FD4A
:102F10000EC0219788F7B12C8B2DDF91CF911F9197
:102F20000F91FF90EF90DF90CF90BF900895B80180
:102F30008C2F0E94910A019761F3EECFCF93DF931C
:102F4000EC010E945C17BE010E94910ADF91CF91B3
:102F500008951F93CF93DF93EB019091680199231C
:102F600039F0CB010E949E17DF91CF911F910895F8
:102F7000882369F0CB010E945C17182F682FCE01BF
:102F80000E940717BE01812F0E94910AEDCFCB014D
:102F90000E943117182FF6CF0E94B91A2091CF0145
:102FA0003091D0018217930778F00E94B91A2091CE
:102FB000CF013091D001821B930B9C0181E0243F13
:102FC000314008F480E008950E94B91A2091CF01A1
:102FD0003091D00120953095280F391FEFCF809187
:102FE000CE0185958595859508958091CE01877050
:102FF00008950E94B91A2091CC013091CD01821719
:103000009307B0F00E94B91A2091CC013091CD0104
:10301000821B930B843F914018F480E081700895E7
:103020008091CE0182FB882780F991E08927F6CF35
:103030000E94B91A2091CC013091CD012095309594
:10304000820F931FE7CF98E0899F90011124622B94
:103050006093CE010E944B160E94B91A9093CD0145
:103060008093CC0108952091CE0180958223809396
:10307000CE01982F977089F430E0482F082E000C6D
:10308000550B2417350749F08595859585950E9440
:103090006C161092CD011092CC0108959091CE0142
:1030A000977081E009F480E00895909112019923CE
:1030B00061F190912B0297FF28C0982F96959695D5
:1030C00096959F3189F0E0910001F0910101E90F9F
:1030D000F11D877021E030E001C0220F8A95EAF7E8
:1030E0008181822B818308959091F50190FF22C008
:1030F0001F928F9385EE92E09F938F930E942307F8
:103100000F900F900F900F90089520910001309133
:103110000101F90132969FEF40E05191851751F07E
:103120009F3F19F4511101C0942F4F5F4E31A9F701
:103130009F3F09F40895290F311D97FD3A95F90134
:103140008283089590911201992371F190912B023D
:1031500097FF2AC0982F9695969596959F3199F04E
:10316000E0910001F0910101E90FF11D282F277076
:1031700081E090E001C0880F2A95EAF7809591815F
:103180008923818308959091F50190FF1CC01F92BF
:103190008F9387EC92E09F938F930E9423070F9069
:1031A0000F900F900F900895E0910001F0910101B0
:1031B0009F01225E3F4F9281891301C01282319696
:1031C000E217F307C1F7089581E090E0E091000174
:1031D000F0910101E80FF91F1082019680329105EC
:1031E000A9F708959091F401892B8093F401089533
:1031F000982F90958091F40189238093F40108958C
:103200001092F40108959091F301892B8093F301BA
:103210000895982F90958091F30189238093F3016D
:1032200008951092F30108959091F201892B8093F3
:10323000F2010895982F90958091F201892380934F
:10324000F20108951092F20108958093D1010E9435
:10325000B91A9093D0018093CF0108951092D101B3
:103260001092D0011092CF01089520910001309169
:103270000101F9013196205E3F4F80E0919191115B
:103280008F5FE217F307D1F70895E0910001F09105
:1032900001018091F4018083E0910001F09101012E
:1032A00080819091F301892B8083E0910001F0915E
:1032B000010180819091F201892B80838091D1015D
:1032C000882301F10E94CC17882371F08091F501C9
:1032D00080FF08C083E093E09F938F930E942307B1
:1032E0000F900F900E942E19E0910001F0910101C2
:1032F00080819091D101892B80830E9435198111A1
:103300000E942E1980910001909101010C94E60C0D
:1033100090933701809336010895CF92DF92EF9218
:10332000FF926C01EE24FF24C114D104E104F104E6
:1033300009F440C0C701B60120E1C72ED82EE92EFE
:10334000FF24C114D104E104F10419F0285FC7017E
:10335000B6016B017C0154E0F694E794D794C794CE
:103360005A95D1F7C114D104E104F10419F02C5F8E
:10337000C701B6016B017C0142E0F694E794D79453
:10338000C7944A95D1F7C114D104E104F10419F0AE
:103390002E5FC701B6019695879577956795672B40
:1033A000682B692B09F02F5F822FFF90EF90DF9041
:1033B000CF90089520E0C1CF829590E09C01220F2C
:1033C000331F220F331F2C7C9595879595958795F4
:1033D0008373282B30E0C901880F991F8A7A3595AD
:1033E00027952575822B0895CF93DF93D92F0E94BF
:1033F000DC19C82F8D2F0E94DC192C2F30E0322FC2
:103400002227A901482BCA01DF91CF9108956DEEC3
:103410007EEF80E090E00E940E2B60E082E090E082
:103420000E94FC2A60E083E090E00E94FC2A60E0B9
:1034300084E090E00E94FC2A60E085E090E00C943B
:10344000FC2A80E090E00E94F62A21E08D3E9E4F0B
:1034500009F020E0822F089582E090E00C94EE2A9B
:1034600083E090E00C94EE2A84E090E00C94EE2A45
:10347000682F84E090E00C94FC2A80913102843023
:1034800039F11092F60120E488E190E00FB6F8944B
:10349000A895809360000FBE2093600080E00E949A
:1034A000720A83B7817F846083BF83B7816083BFE3
:1034B0007894889583B78E7F83BF0FB6F894A895CC
:1034C00080916000886180936000109260000FBE60
:1034D000089508950C94691ACF930E946A1A0E9465
:1034E00031070E94691AC0E08C2F0E948A07892B3D
:1034F00031F4CF5FC530C1F780E0CF91089581E00E
:10350000FCCF0E94E0110E94DA0C0C94720A1F9208
:103510000F920FB60F9211248F939F93AF93BF9387
:103520008091F601811113C08091270290912802A9
:10353000A0912902B0912A024196A11DB11D80934C
:10354000270290932802A0932902B0932A02BF91E8
:10355000AF919F918F910F900FBE0F901F90189574
:1035600082E084BD93E095BD9AEF97BD80936E0095
:1035700008952FB7F8948091270290912802A09186
:103580002902B0912A022FBF08952FB7F8946091B5
:103590002702709128028091290290912A022FBF60
:1035A0000895CF92DF92EF92FF920F931F932FB760
:1035B000F89440912702509128026091290270915D
:1035C0002A022FBF6A017B01EE24FF248C0120E038
:1035D00030E0C016D106E206F30650F0481B590B46
:1035E000CA011F910F91FF90EF90DF90CF90089547
:1035F00041505109F3CF1F920F920FB60F92112431
:103600008F939F93AF93BF9380912702909128024D
:10361000A0912902B0912A020196A11DB11D8093AB
:10362000270290932802A0932902B0932A02BF9107
:10363000AF919F918F910F900FBE0F901F90189593
:1036400087E797E790930108809300089AE088E164
:103650000FB6F894A895809360000FBE9093600019
:10366000FFCF0E94211A811102C00E94071A0E94F6
:103670002C1A8093F5010E94341A90E090932C024A
:1036800080932B020E94301A682F70E080E090E057
:103690000C94CE158091F90180FF12C06091050154
:1036A00085E0689FB00111247595679575956795BC
:1036B00060387105A8F56115710581F581E00895FF
:1036C00081FF09C06091050185E0689FB001112468
:1036D00075956795EDCF82FF07C06091050185E084
:1036E000689FB0011124E4CF9091FA019923A1F0D1
:1036F00060910401961788F72091050185E0289FC5
:1037000090011124929FA001939F500D112470E00D
:10371000CA010E94C02ACCCF65E070E0862F0895D0
:103720008FE708958091F90180FF0CC0609103013B
:1037300070E075956795759567956115710539F513
:1037400081E0089581FF06C06091030170E07595E6
:103750006795F3CF82FF08C06091030170E0603885
:10376000710558F38FE708958091FA01882369F075
:1037700060910201861780F790910301899FC00133
:10378000112470E00E94C02AEACF61E070E0862F29
:103790000895803F31F40E944A1B81958093FD017A
:1037A0000895813F19F40E944A1BF8CF823F31F4FB
:1037B0000E944A1B81958093FC010895833F19F470
:1037C0000E944A1BF8CF893F29F40E94921B8093E4
:1037D000FE0108958A3F21F40E94921B8195F7CF44
:1037E0008B3F31F40E94921B81958093FF010895D5
:1037F0008C3F19F40E94921BF8CF843F31F48091E2
:10380000FB0181608093FB010895853F21F4809145
:10381000FB018260F7CF863F21F48091FB01846039
:10382000F1CF873F21F48091FB018860EBCF883F87
:1038300021F48091FB018061E5CF8D3F31F48091CF
:10384000F90181608093F90108958E3F21F4809100
:10385000F9018260F7CF8F3FB9F78091F901846059
:10386000F1CF803FC1F48091FD0187FD1092FD01F1
:103870008091FC0181110EC08091FD0181110AC06F
:103880008091FE01811106C08091FF01811102C06B
:103890001092FA010895813F29F48091FD011816D4
:1038A0002CF3E6CF9091FC01823F29F497FFE0CF03
:1038B0001092FC01DDCF833F19F41916CCF3D8CF59
:1038C000893F39F48091FE01181694F61092FE019A
:1038D000CFCF8A3F29F48091FE0187FFC9CFF6CF71
:1038E0008B3F39F48091FF0187FFC2CF1092FF0117
:1038F000BFCF8C3F29F48091FF011816BCF3B8CFDD
:10390000843F31F48091FB018E7F8093FB01B0CF27
:10391000853F21F48091FB018D7FF7CF863F21F415
:103920008091FB018B7FF1CF873F21F48091FB01D8
:10393000877FEBCF883F21F48091FB018F7EE5CF1D
:103940008D3F31F48091F9018E7F8093F90190CF02
:103950008E3F21F48091F9018D7FF7CF8F3F09F0E1
:1039600087CF8091F9018B7FF0CF8091F50183FFA4
:103970007EC08CE393E00E948A068091FB011F9237
:103980008F9387E393E09F938F930E94230785E3B0
:1039900093E00E948A068091FC01282F082E000CDB
:1039A000330B3F938F9382E393E09F938F930E9417
:1039B000230780E393E00E948A068091FD01282F6F
:1039C000082E000C330B3F938F938DE293E09F936F
:1039D0008F930E9423078BE293E00E948A068091D6
:1039E000FE01282F082E000C330B3F938F9388E2A3
:1039F00093E09F938F930E94230786E293E00E94B7
:103A00008A068091FF01282F082E000C330B3F936C
:103A10008F9383E293E09F938F930E94230780E22A
:103A200093E00E948A068091FA011F928F938DE1A4
:103A300093E09F938F930E9423078BE193E00E9472
:103A40008A068091F9011F928F9388E193E09F93FA
:103A50008F930E94230785E193E00E948A068DB729
:103A60009EB74C960FB6F8949EBF0FBE8DBF8BEFDE
:103A700091E00E942E0D0E94B91A9093F801809354
:103A8000F70108951F93CF93DF938091F7019091F1
:103A9000F8010E94D11AAC019091FA019923D1F05A
:103AA0002091060130E04217530780F08091FC011D
:103AB000C091FD01D091FE011091FF01811111C053
:103AC000C1117FC0D1117DC011117BC0DF91CF9199
:103AD0001F910895209107018AE0289F90011124E9
:103AE000E2CF9F3F19F09F5F9093FA01181624F4DC
:103AF0000E944A1B8093FC018091FC0187FF05C056
:103B00000E944A1B81958093FC011C1624F40E949C
:103B10004A1B8093FD018091FD0187FF05C00E9433
:103B20004A1B81958093FD016091FC01662331F170
:103B3000C091FD01CC2311F1062E000C770B880BF0
:103B4000990B0E94BB2923E333E343E35FE30E9425
:103B50001F2A0E9483296093FC016C2FCC0F770BE6
:103B6000880B990B0E94BB2923E333E343E35FE314
:103B70000E941F2A0E9483296093FD011D1624F4D0
:103B80000E94921B8093FE018091FE0187FF05C079
:103B90000E94921B81958093FE01111624F40E94CD
:103BA000921B8093FF018091FF0187FF05C00E9457
:103BB000921B81958093FF01DF91CF911F910C940F
:103BC000B51C9F3F09F08FCFA0CFEBEFF1E085E070
:103BD000DF011D928A95E9F71092FA011092F9011E
:103BE00008958FE595E00E948A061F9281E08F93E9
:103BF0001F9285E08F9381E195E09F938F930E94C0
:103C000023070F900F900F900F900F900F90089533
:103C1000833009F445C028F4813061F0823049F1E5
:103C20000895853009F46AC008F451C0863009F45B
:103C30007CC0089580910701262F30E0280F311DA8
:103C40002F3F310594F4680F6093070180910701BD
:103C50001F928F938AE494E09F938F930E9423078F
:103C60000F900F900F900F9008958FEF80930701A2
:103C7000EDCF80910601262F30E0280F311D2F3F18
:103C8000310554F4680F60930601809106011F927C
:103C90008F9388E394E0E0CF8FEF80930601F5CF18
:103CA00080910501262F30E0280F311D2F3F31056F
:103CB00054F4680F60930501809105011F928F9362
:103CC00085E294E0C9CF8FEF80930501F5CF809115
:103CD0000401262F30E0280F311D2F3F310554F409
:103CE000680F60930401809104011F928F9380E11B
:103CF00094E0B2CF8FEF80930401F5CF8091030160
:103D0000262F30E0280F311D2F3F310554F4680F66
:103D100060930301809103011F928F9387EF93E0DB
:103D20009BCF8FEF80930301F5CF20910201862F67
:103D300090E0820F911D8F3F910554F4620F6093C4
:103D40000201809102011F928F938CED93E084CF4A
:103D50008FEF80930201F5CF8330C9F128F48130D1
:103D600061F0823019F10895853009F452C008F4E9
:103D70003FC0863009F45EC008958091070168173E
:103D800090F4861B80930701809107011F928F9307
:103D90008DEC93E09F938F930E9423070F900F90D9
:103DA0000F900F90089510920701EECF80910601B9
:103DB000681750F4861B80930601809106011F92BC
:103DC0008F938BEB93E0E6CF10920601F6CF8091B4
:103DD0000501681750F4861B809305018091050149
:103DE0001F928F9388EA93E0D5CF10920501F6CF0A
:103DF00080910401681750F4861B80930401809120
:103E000004011F928F9383E993E0C4CF10920401C1
:103E1000F6CF80910301681750F4861B809303014D
:103E2000809103011F928F938AE793E0B3CF1092A2
:103E30000301F6CF80910201681750F4861B80932E
:103E40000201809102011F928F938FE593E0A2CF30
:103E500010920201F6CFCF93C82F1F928F9384E662
:103E600096E09F938F930E94230761E070E080E0CB
:103E700090E004C0660F771F881F991FCA95D2F77C
:103E80000E94CE150F900F900F900F90CF910C9431
:103E9000E011873208F05BC08E3108F02AC1803112
:103EA00009F4B6C010F5873009F494C048F48630A0
:103EB00009F47EC089EB99E00E948A0680E00895AB
:103EC0008B3009F470C08E30A9F78091F50182FB28
:103ED000992790F921E0922790FB82F98093F501D0
:103EE00082FF93C089EF99E02CC0863109F4BAC0F3
:103EF000A0F48131F9F60E94E01180912B0287FB3A
:103F0000992790F921E0922790FB87F980932B0263
:103F100087FFECC086EC99E048C0893109F48BC07A
:103F20008B3141F68091F50181FB992790F921E0D1
:103F3000922790FB81F98093F50181FF63C086E1B0
:103F40009AE00E948A068091F501816058C088330A
:103F500051F148F4893229F0853319F0873209F09C
:103F6000A9CF80E007C08334E1F338F48A3308F442
:103F7000A1CF89530E942B1F14C0883409F09ACF17
:103F80000E94E0118CE39AE00E948A062FEF83EDF5
:103F900090E3215080409040E1F700C000000E9473
:103FA000201B81E008958EE198E00E948A06F9CFF7
:103FB0008091F501817F8E7F8093F50187EF97E0F7
:103FC0000E948A0688E59AE00E948A0681E0809332
:103FD000010208958091F501982F909590FB80F94A
:103FE0008093F50180FF03C080E39AE0DECF83E297
:103FF0009AE00E948A068091F501897F877F8093ED
:10400000F501CFCF88E09AE0D0CF89EE99E0CDCF0F
:104010008091F50183FB992790F921E0922790FB8D
:1040200083F98093F50183FF03C08DED99E089CF7B
:1040300080ED99E0BACF88EE97E00E948A068CEB7B
:1040400097E00E948A0685E897E00E948A0680E54C
:1040500097E00E948A0685E197E00E948A068AEE30
:1040600096E0A3CF8CED96E00E948A060E94DA0CBF
:104070001F928F9382EC96E09F938F930E94230769
:10408000809112011F928F938BEA96E09F938F93FA
:104090000E942307809126021F928F9388E996E061
:1040A0009F938F930E94230780912B0287FB882781
:1040B00080F91F928F9380E896E09F938F930E94E0
:1040C00023070E94C51A9F938F937F936F9389E66E
:1040D00096E09F938F930E9423078DB79EB74696D5
:1040E0000FB6F8949EBF0FBE8DBF5BCF8BEB99E0F0
:1040F0005CCF8D513FCF80E008950C947B208E5192
:104100008A3030F4E82FF0E0ED5EFE4F80810895B4
:1041100080E00895CF93C82F809101028130D1F0C3
:1041200038F0823009F44DC01092010280E010C0D6
:10413000E0910001F091010180818232B9F78C2F6A
:104140000E947D2081111EC08C2F0E94491F81700A
:10415000CF910895E0910001F091010180818232B8
:1041600071F38C2F0E947B2081111BC0C431D9F0C8
:1041700060F4CB3071F0C031D1F08AE596E00E9456
:104180008A0613C081E090E0E2CFC93261F0C83303
:10419000A1F787EF97E00E948A0680E696E00E94EA
:1041A0008A0681E0D4CF1092010280E0D0CF0E9435
:1041B000F11D8CE596E00E948A0682E08093010260
:1041C000F0CFC432C8F4CE3108F0BEC0CB30E1F03D
:1041D00040F4C73009F4CCC08EEF94E00E948A0608
:1041E00026C0C331C1F1C431B9F7809100028823E0
:1041F00051F1109200020AC0CB3409F4B7C0C8F4E0
:10420000C93299F3C83341F70E94F11D8091000231
:10421000882309F4C4C01F928F9388EF94E09F9382
:104220008F930E9423070F900F900F900F9081E0C3
:104230008FCFC13509F494C0C23509F48BC0CE3498
:1042400059F66AE08EC08DE095E00E948A0681E012
:10425000809301027DCF87EE94E00E948A0685ED6F
:1042600094E00E948A06809107011F928F9382ED4D
:1042700094E09F938F930E94230780ED94E00E9427
:104280008A068EEB94E00E948A06809106011F92B6
:104290008F938BEB94E09F938F930E94230789EB7E
:1042A00094E00E948A068AEA94E00E948A0680913D
:1042B00005011F928F9387EA94E09F938F930E944A
:1042C000230785EA94E00E948A0684E994E00E942C
:1042D0008A06809104011F928F9381E994E09F9355
:1042E0008F930E9423078FE894E00E948A068AE752
:1042F00094E00E948A06809103011F928F9387E7C2
:1043000094E09F938F930E94230785E794E00E9497
:104310008A068EE594E00E948A06809102011F922F
:104320008F938BE594E09F938F930E94230789E5F9
:1043300094E00E948A068DB79EB748960FB6F8940F
:104340009EBF0FBE8DBF62CF8C2F0E947F208093B7
:1043500000025CCF61E0809100020E94081E56CFEF
:1043600061E0809100020E94AC1E50CF6AE0F3CF62
:104370008EE18093070182E3809306018AE08093B7
:10438000050184E18093040188E08093030188E2C1
:104390008093020180E095E00E948A0637CF85EF86
:1043A00094E01CCF8091250208959FB7F894109255
:1043B00004029FBF90913102943009F049C02091CE
:1043C000E9002F709091EC0090FD30C090E0922BAE
:1043D00024E02093E9002091EB0020FF36C02091DB
:1043E000EE0027FF32C020910202222321F020910B
:1043F000E80025FF2AC01092020226E03091E80072
:1044000035FF16C08093F1008091E80085FD29C03A
:104410008091E80080FFFCCF8091E8008E77809348
:10442000E8009F709093E90080E0089590E8CFCF76
:1044300030913102343049F43091EB0035FD05C044
:10444000215041F481E0809302029F709093E90033
:104450008FEF0895EFE9FFE03197F1F700C000001A
:10446000CDCF8FB7F89421E0209304028FBFD9CF2E
:10447000CF93DF9300D01F92CDB7DEB79C01809120
:104480003102843019F593E099833B832A8390931A
:10449000E9008FEF9091E800815095FD06C095ED01
:1044A0009A95F1F700008111F5CF8091E80085FF22
:1044B0000DC040E050E063E070E0CE0101960E9444
:1044C000F9248091E8008E778093E8000F900F9098
:1044D0000F90DF91CF910895CF93DF9300D01F927B
:1044E000CDB7DEB720913102243031F522E02983A7
:1044F000805891099B838A8383E08093E9008FEF42
:104500009091E800815095FD06C095ED9A95F1F7E0
:1045100000008111F5CF8091E80085FF0DC040E0DB
:1045200050E063E070E0CE0101960E94F924809192
:10453000E8008E778093E8000F900F900F90DF9146
:10454000CF9108959C01809131028430F9F482E08A
:104550008093E9009FEF8091E800915085FD06C0AF
:1045600085ED8A95F1F700009111F5CF8091E80073
:1045700085FF0CC040E050E065E070E0C9010E949A
:10458000F9248091E8008E778093E8000895CF9316
:10459000DF93EC0180913102843079F58091120132
:1045A000882371F180912B0287FF2AC085E08093D8
:1045B000E9008FEF9091E800815095FD06C095E1EC
:1045C0009A95F1F700008111F5CF8091E80085FF01
:1045D00014C040E050E060E270E0CE010E94F92497
:1045E0008091E8008E778093E80080E2FE01A5E0EC
:1045F000B2E001900D928A95E1F7DF91CF91089595
:1046000081E08093E9008FEF9091E800815095FD63
:1046100006C095ED9A95F1F700008111F5CF8091D4
:10462000E80085FFEACF40E050E068E070E0D5CFD9
:1046300081E89AE00E948A0680913002811109C0C7
:104640000E9486260E94E3268091E2008460809387
:10465000E20008958DE79AE00E948A0610923002E7
:10466000089589E79AE00C948A0685E79AE00C940D
:104670008A0681E79AE00E948A060C94811A2091AA
:1046800003022F5F822F62E30E94B42A992319F05C
:10469000209303020895109203028091040288235C
:1046A000E9F0809131028430B9F49091E9009F7073
:1046B0008091EC0080FD13C080E0892B94E0909302
:1046C000E9009091EB0090FF04C09091EE0097FDFF
:1046D0000AC08F708093E90010920402089580E868
:1046E000ECCF1092F1009091E80095FDFACF9091F7
:1046F000E80090FFEECF9091E8009E779093E8005D
:10470000E8CF42E061EC81E00E94032642E061ECE8
:1047100082E00E94032642E061EC83E00E940326CF
:1047200042E261EC84E00E94032642E261EC85E013
:104730000C94032680913302833009F455C030F481
:10474000813071F1823009F491C008958A3009F402
:104750007DC08B3009F463C0893009F044C080917A
:104760003202813209F03FC08091360290913702C7
:10477000009711F00497B9F58091E800877F809346
:10478000E8008091E80082FF2AC08091F1008093C8
:1047900025028091E8008B778093E8000C943826FE
:1047A00080913202813AF9F48091E800877F80930A
:1047B000E8008091360290913702892B61F460E223
:1047C00085E092E070E00E9448258091E8008B77B8
:1047D0008093E800089560E080E090E0F3CF80915E
:1047E00031028111CECF089580913202813AD9F7FA
:1047F0008091360290913702892BA9F78091E800C9
:10480000877F8093E8008091E80080FFFCCF809153
:1048100012018093F1008091E8008E77BDCF8091E6
:104820003202813201F78091360290913702892B52
:10483000D1F68091E800877F8093E8000E943826B7
:1048400080913402809312010C94E0118091320225
:10485000813249F68091E800877F8093E8000E94CA
:104860003826809135028093260208958091320285
:10487000813A09F0B8CF8091E800877F8093E80003
:104880008091E80080FFFCCF80912602C2CF84B7E0
:10489000877F84BF0FB6F894A895809160008861E7
:1048A00080936000109260000FBE80E880936100EA
:1048B000109261000E94660D0E9486260E94E326E7
:1048C0008091E20084608093E20085ED91E20E9495
:1048D000881978940E9467290E94680D88E091E009
:1048E0000E94D50C80E69AE00E948A0680913102EF
:1048F000853019F00E94960DF9CF8CE59AE00E9460
:104900008A060E943D1A80912F02882379F30E9423
:104910006C1A882359F30E94E324E8CF292F332708
:104920002330310579F158F421303105F1F022308E
:10493000310519F180E090E020E030E01AC021322A
:10494000310599F122323105A9F7653098F770E009
:10495000FB01EE0FFF1FEE5DFE4F20813181635E94
:104960007E4FFB01808190E004C082E190E02AE369
:104970003BE0FA013183208308958DE890E02DEA31
:104980003AE0F7CF99278130910561F028F002973E
:1049900089F6E5E8FAE002C0E9EAFAE0849190E0FD
:1049A0009F01E7CFE7E9FAE0F9CF653008F0C2CF21
:1049B000E62FF0E0EE0FFF1FE45DFE4F2081318116
:1049C00089E090E0D6CF80E189BD82E189BD09B45C
:1049D00000FEFDCF8091D8008F7D8093D80080911C
:1049E000E00082608093E0008091E00081FDFCCFD8
:1049F0000895AF92BF92DF92EF92FF920F931F93B1
:104A0000CF93DF93EC018B017A010E945726D82EB9
:104A1000811124C0E114F10439F0F7018081918102
:104A2000081B190BC80FD91FA12CB12C011511059A
:104A3000A9F08091E80085FD22C08091E8008E7782
:104A40008093E800E114F104A1F0F70180819181E5
:104A5000A80EB91EB182A08285E0D82E8D2DDF91DF
:104A6000CF911F910F91FF90EF90DF90BF90AF908B
:104A700008950E9457268823C9F2D82EEFCF899136
:104A80008093F10001501109FFEFAF1ABF0ACECF9A
:104A9000209138023091390226173707A8F06115A6
:104AA000710529F42091E8002E772093E800FC019D
:104AB00020E06115710551F4211108C08091E800D2
:104AC00082FF33C080E00895B901F1CF80913102B7
:104AD0008823B9F18530B9F18091E80083FD2FC0BA
:104AE0008091E80082FDEACF8091E80080FFE1CF6D
:104AF0002091F3008091F20090E0922B61157105F6
:104B000019F08830910550F021E0089709F020E075
:104B10008091E8008E778093E800CBCF219120939D
:104B2000F100615071090196E9CF8091310288232B
:104B300041F0853041F08091E80083FFBFCF81E0F4
:104B4000089582E0089583E008952091380230911D
:104B5000390226173707A8F06115710529F420914D
:104B6000E8002E772093E800FC0120E06115710534
:104B700051F4211108C08091E80082FF34C080E028
:104B80000895B901F1CF809131028823C1F18530B8
:104B9000C1F18091E80083FD30C08091E80082FD82
:104BA000EACF8091E80080FFE1CF2091F30080916F
:104BB000F20090E0922B6115710519F08830910593
:104BC00050F021E0089709F020E08091E8008E770E
:104BD0008093E800CBCF24912093F100319661506F
:104BE00071090196E8CF80913102882341F0853028
:104BF00041F08091E80083FFBECF81E0089582E01C
:104C0000089583E00895982F973028F08F7080934F
:104C1000E90081E008959093E900981751F07091B0
:104C2000EC002091ED005091F00021FD06C09F5F47
:104C3000EBCF242F762F50E0F8CF3091EB003E7F62
:104C40003093EB003091ED003D7F3093ED003091DB
:104C5000EB0031603093EB007093EC002093ED009B
:104C60005093F0002091EE0027FDE1CF80E0089501
:104C70008091320287FF13C08091E80082FF06C056
:104C80008091E8008B778093E80004C08091310226
:104C90008111F2CF0895809131028823D9F3809158
:104CA000E80080FFF8CF8091E8008E77ECCF20916C
:104CB000E4003091E50085E69091EC0090FD20C085
:104CC0009091E80092FD20C090913102992391F0DB
:104CD000953091F09091EB0095FD10C04091E4006B
:104CE0005091E5004217530739F381509A0121F79B
:104CF00084E0089582E0089583E0089581E00895B6
:104D00009091E80090FFE0CF80E008950E94F426A3
:104D10000E94FC26E0EEF0E0808181608083E8ED77
:104D2000F0E080818F77808319BCA7EDB0E08C9193
:104D30008E7F8C9380818F7E8083109230020895C5
:104D40000F931F93CF93DF930E94F4260E94FC26BB
:104D5000C8EDD0E088818F778883888180688883D8
:104D600088818F7D888319BC1092310210922D02A8
:104D700010922F0210922E0200EE10E0F8018081B6
:104D80008B7F808388818160888342E060E080E05F
:104D90000E940326E1EEF0E080818E7F8083E2EEC8
:104DA000F0E0808181608083808188608083F80169
:104DB00080818E7F8083888180618883DF91CF911D
:104DC0001F910F910895E8EDF0E080818F7E808340
:104DD000E7EDF0E080818160808384E082BF81E044
:104DE000809330020C94A026E8EDF0E080818E7F65
:104DF00080831092E20008951092DA001092E10090
:104E000008951F920F920FB60F9211242F933F9384
:104E10004F935F936F937F938F939F93AF93BF93C2
:104E2000EF93FF938091E10082FF0BC08091E2003D
:104E300082FF07C08091E1008B7F8093E1000E9498
:104E40003F238091DA0080FF19C08091D80080FF55
:104E500015C08091DA008E7F8093DA008091D900AE
:104E600080FF94C080E189BD82E189BD09B400FE64
:104E7000FDCF81E0809331020E9418238091E100F0
:104E800080FF19C08091E20080FF15C08091E20090
:104E90008E7F8093E2008091E20080618093E20047
:104EA0008091D80080628093D80019BC85E08093FF
:104EB00031020E9435238091E10084FF29C0809156
:104EC000E20084FF25C080E189BD82E189BD09B48B
:104ED00000FEFDCF8091D8008F7D8093D800809117
:104EE000E1008F7E8093E1008091E2008F7E8093CD
:104EF000E2008091E20081608093E20080912D02C7
:104F0000882309F449C084E0809331020E94392348
:104F10008091E10083FF29C08091E20083FF25C0DA
:104F20008091E100877F8093E10082E080933102ED
:104F300010922D028091E1008E7F8093E10080919C
:104F4000E2008E7F8093E2008091E2008061809396
:104F5000E20042E060E080E00E9403268091F000E1
:104F600088608093F0000E943123FF91EF91BF9100
:104F7000AF919F918F917F916F915F914F913F91F1
:104F80002F910F900FBE0F901F90189519BC109283
:104F900031020E942A2372CF8091E30087FD02C074
:104FA00081E0B2CF83E0B0CF1F920F920FB60F9285
:104FB00011242F933F934F935F936F937F938F931E
:104FC0009F93AF93BF93CF93EF93FF93C091E9006B
:104FD000CF708091EC001092E9008091F000877F03
:104FE0008093F00078940E9410281092E90080913C
:104FF000F00088608093F000C093E900FF91EF918A
:10500000CF91BF91AF919F918F917F916F915F9160
:105010004F913F912F910F900FBE0F901F901895B9
:105020001F93CF93DF93CDB7DEB7AA970FB6F8944F
:10503000DEBF0FBECDBFE2E3F2E08091F1008193CD
:1050400022E0EA33F207C9F70E949A238091E80030
:1050500083FF44C08091320290913302492F50E087
:105060004A30510508F03AC0FA01E75CF74D0C945C
:10507000D42A432867286E2867286E28C228E52886
:105080006E283A294729803879F0823839F580919D
:1050900036028F708093E9008091EB0085FB8827B2
:1050A00080F91092E90006C080912E0290912F02A3
:1050B000911182609091E800977F9093E80080932F
:1050C000F1001092F1008091E8008E772DC0282F1A
:1050D0002D7F21F48823D1F0823059F18091E800AE
:1050E00083FF0AC08091E800877F8093E800809169
:1050F000EB0080628093EB00AA960FB6F894DEBFB7
:105100000FBECDBFDF91CF911F91089580913402E2
:10511000813021F7933009F080E080932F021092C4
:10512000E9008091E800877F8093E8000E9438269C
:10513000D5CF809134028111F2CF809136028F70E9
:1051400069F28093E9002091EB0020FFE8CF9330D3
:1051500031F48091EB0080628093EB00E0CF90917E
:10516000EB0090619093EB0021E030E001C0220F52
:105170008A95EAF72093EA001092EA008091EB000A
:105180008860EACF8111AACF109134021F778091F5
:10519000E3008078812B8093E3008091E800877F93
:1051A0008093E8000E9438268091E80080FFFCCFC1
:1051B0008091E30080688093E300111104C082E0D5
:1051C000809331028BCF83E0FBCF8058823008F090
:1051D00085CF80913402909135028C3D23E0920777
:1051E000A1F583E08A838AE289834FB7F894DE01D0
:1051F000139620E03EE051E2E32FF0E05093570099
:10520000E49120FF03C0E295EF703F5FEF708E2FB7
:1052100090E0EA30C0F0C7968D939D932F5F2431C4
:1052200059F74FBF8091E800877F8093E8006AE2DA
:1052300070E0CE0101960E9448258091E8008B77AE
:105240008093E8004BCFC096E7CFAE014F5F5F4F32
:10525000609136020E948E24BC01892B09F43ECF56
:105260009091E800977F9093E80089819A810E944D
:10527000A525E3CF803809F031CF8091E800877F02
:105280008093E80080912D028093F1001CCF811162
:1052900025CF90913402923008F020CF8091E80021
:1052A000877F8093E80090932D020E94382680919A
:1052B0002D02882311F084E005C08091E30087FD72
:1052C000FACF81E0809331020E94812307CFCF93F0
:1052D00080913102882399F0C091E900CF708091CC
:1052E000EC0080FD0EC080E0C82B1092E900809198
:1052F000E80083FD0E941028CF70C093E900CF9191
:10530000089580E8F1CF0E948A296894B1110C9425
:10531000192A08950E94FE2988F09F5798F0B92F06
:105320009927B751B0F0E1F0660F771F881F991FDA
:105330001AF0BA95C9F714C0B13091F00E94182A3A
:10534000B1E008950C94182A672F782F8827B85F4A
:1053500039F0B93FCCF3869577956795B395D9F732
:105360003EF490958095709561957F4F8F4F9F4F3C
:105370000895E89409C097FB3EF490958095709548
:1053800061957F4F8F4F9F4F9923A9F0F92F96E991
:10539000BB279395F695879577956795B795F11106
:1053A000F8CFFAF4BB0F11F460FF1BC06F5F7F4FA3
:1053B0008F4F9F4F16C0882311F096E911C07723B5
:1053C00021F09EE8872F762F05C0662371F096E8BE
:1053D000862F70E060E02AF09A95660F771F881F8D
:1053E000DAF7880F9695879597F9089557FD9058A5
:1053F000440F551F59F05F3F71F04795880F97FB99
:10540000991F61F09F3F79F0879508951216130652
:105410001406551FF2CF4695F1DF08C01616170681
:105420001806991FF1CF86957105610508940895B6
:10543000E894BB2766277727CB0197F908950E9448
:10544000322A0C94A32A0E94952A38F00E949C2AA2
:1054500020F0952311F00C948C2A0C94922A11249C
:105460000C94192A0E94F62970F3959FC1F3950FA9
:1054700050E0551F629FF001729FBB27F00DB11DD8
:10548000639FAA27F00DB11DAA1F649F6627B00D68
:10549000A11D661F829F2227B00DA11D621F739F51
:1054A000B00DA11D621F839FA00D611D221F749F5F
:1054B0003327A00D611D231F849F600D211D822FA6
:1054C000762F6A2F11249F5750409AF0F1F08823CD
:1054D0004AF0EE0FFF1FBB1F661F771F881F9150FA
:1054E0005040A9F79E3F510580F00C948C2A0C94F3
:1054F000192A5F3FE4F3983ED4F386957795679534
:10550000B795F795E7959F5FC1F7FE2B880F911D23
:105510009695879597F9089597F99F6780E870E0C9
:1055200060E008959FEF80EC089500240A94161619
:10553000170618060906089500240A941216130681
:10554000140605060895092E0394000C11F488230F
:1055500052F0BB0F40F4BF2B11F460FF04C06F5F2B
:105560007F4F8F4F9F4F0895991B79E004C0991F7B
:10557000961708F0961B881F7A95C9F780950895AD
:1055800097FB072E16F4009407D077FD09D00E94F0
:10559000DA2A07FC05D03EF4909581959F4F089537
:1055A000709561957F4F0895EE0FFF1F0590F49160
:1055B000E02D0994AA1BBB1B51E107C0AA1FBB1F0A
:1055C000A617B70710F0A61BB70B881F991F5A958F
:1055D000A9F780959095BC01CD010895F999FECF6A
:1055E00092BD81BDF89A992780B50895A8E1B0E0F1
:1055F00042E050E00C94162B262FF999FECF92BD75
:1056000081BDF89A019700B4021639F01FBA20BD87
:105610000FB6F894FA9AF99A0FBE08950196272FBB
:105620000E94FD2A0C94FC2ADC01CB01FC01F999B3
:10563000FECF06C0F2BDE1BDF89A319600B40D92DE
:0C56400041505040B8F70895F894FFCF97
:10564C00D2012808140A321ED221C722A2226C22AF
:10565C0038220101020304050607080900404D36F3
:10566C0022392A0CDD0BA70B850B4C0BBF0AD80A71
:06567C00F10A0A0B2A0BE3
:00000001FF
