:1000000000400020DD1C00001D1D00001F1D000021
:1000100000000000000000000000000000000000E0
:10002000000000000000000000000000211D000092
:100030000000000000000000231D0000251D00003E
:10004000271D00007D3A0000411B0000271D000015
:10005000271D000000000000271D0000271D0000D4
:10006000271D0000271D0000094A0000271D000071
:10007000271D0000271D0000271D0000271D000070
:10008000271D0000271D0000271D0000271D000060
:10009000D53D0000271D0000271D0000271D000082
:1000A000271D0000271D00000000000000000000C8
:1000B0000000000000000000000000000000000040
:1000C00010B5064C2378002B07D1054B002B02D02E
:1000D000044800E000BF0123237010BD9000002001
:1000E000000000007C4C0000044B10B5002B03D036
:1000F0000349044800E000BF10BDC04600000000F6
:10010000940000207C4C0000144B002B00D1124BBB
:100110009D46402292029A1A924600218B460F4633
:100120001148124A121A00F07BF80D4B002B00D038
:1001300098470C4B002B00D098470020002104006A
:100140000D000B4800F016F800F046F820002900DA
:1001500000F0DEFA00F016F8000008000040002071
:10016000000000000000000090000020D8090020DE
:10017000B1010000002310B501001A00180000F0C2
:1001800057F810BD084B10B50400002B02D0002119
:1001900000F0B4F8054B1868836A002B00D098472C
:1001A000200000F007F9C046FD020000604B00008F
:1001B00070B5074D074C641BA410002C02D104F04D
:1001C000C9FC70BD013CA300EB589847F5E7C04659
:1001D000880000208C00002070B500260C4D0D4CCE
:1001E000641BA410A64209D1002604F0ADFC0A4D00
:1001F0000A4C641BA410A64205D170BDB300EB5895
:1002000098470136EEE7B300EB5898470136F2E71E
:10021000840000208400002084000020880000204A
:1002200003008218934200D1704719700133F9E737
:10023000F0B52D4D85B0060028680192009102931B
:1002400000F0B4F8294A1468002C0AD1284B136036
:10025000284A1C00002A04D0190012688831039231
:100260000A6063681F2B06DD286800F0A1F80120F2
:10027000404205B0F0BD002E29D0270088373868ED
:10028000002812D11C4B002B03D1286800F08FF8F6
:10029000EDE78420400000E000BF0028F5D0030017
:1002A0000022FC335A609A6038606168019A8B00C2
:1002B000C31804C301228A40FC30416811434160E5
:1002C0000299D967022E02D183681A43826063685B
:1002D00028685A1C62600233009A9B001A5100F091
:1002E00067F80020C5E7C046600000203801002004
:1002F000AC0000200000000000000000F7B5294B12
:10030000019018680F0000F051F8274B1D68002D70
:1003100004D1244B186800F04BF8F7BD2B0088334C
:100320001E686B685C1E002CF3DB002F09D0002ECA
:1003300001D1013CF7E73300A20080339B58BB4258
:10034000F7D128006968A200083001398358A1421A
:1003500019D16C60002BECD069680091002E08D098
:10036000FC218C460120B4446146A040496801420A
:100370000CD198470C4B6A6800991B688A42C4D11B
:100380009D42D6D0C1E700218150E3E7B1586246D3
:100390009268024202D101989847EBE7080098471B
:1003A000E8E7C04660000020380100207047704731
:1003B00070470000FEE7C0462D4B1B78012B00D094
:1003C00070472C4B1B681B07FAD12B4AF02312688D
:1003D000110019401A4201D0102946D1274A12684B
:1003E0001A421FD0F022244B1B681340402B29D007
:1003F000F022214B1B681340A02B01D0D02BDFD162
:10040000F0231E4A12681A42DAD11D4A1368012BE2
:1004100004D01C4B13601368012BFCD1C0221A4B73
:100420001A60CDE7194B1A4A1A608022194B120242
:100430001A600F4B1B78012BC2D10E4B1B681B0798
:10044000D0D0BDE70D4B1B681342D1D18022C12310
:100450000121DB00D205D150054B1B78012BAFD118
:10046000044B1B681B07C3D0AAE73029B6D0B9E7F5
:10047000E00F00F0E40F00F0E80F00F0EC0F00F0E8
:1004800000EC06407593000014EC064004050040A3
:10049000DFFF07C0186C0040F0B5DE4657464E46F9
:1004A0004546E0B5037883B0042B09D0022B00D178
:1004B00008E103B03CBC90469946A246AB46F0BD6D
:1004C0008C4A017911708C4A127C002A5DD000227E
:1004D00001250224884910260A74884AAC469246AF
:1004E0001278A146D10821405411A4001C40214398
:1004F000D4102C4021430735D4082C402143140646
:10050000E4177F4F3440214339705146A846654671
:100510004C78A1110D4091001940294301914146A9
:1005200095000D402900019D92000D4332402A4361
:100530004D462106C91729400A43BA7062082A406D
:100540006546E110890019400A436110294045467B
:100550000A43610829400A43610831400A433A715D
:1005600052464D4692782401110929409511AD005B
:100570002B400B4334401C4343461606F6171E40DF
:10058000163334431A40BC713A725E4C237C002B04
:1005900024D10379732B00D198E0574B5A49DB687B
:1005A0005A1C554BDA60E3680133E3608A4208D98C
:1005B000002253490A708A700A718A710A724E4980
:1005C000CA60514A934200D873E700234C4AE36063
:1005D0005370D3705371D37153726AE700230221B1
:1005E000042608252374494B884699461B78AC4657
:1005F0005A090A40D90831400A43D9090A4359081F
:1006000029400A43083559003D4F29400A437A7072
:100610004A46517852789E1052B20192350001221A
:100620009E001540AB46350004263540AA465D467F
:1006300056463543464633402B4310258E082E4000
:10064000019D3343EE1165462E4033434646FB7011
:10065000CB081E40043D4B082B4033434E1116403F
:100660001E43B24666464B00334056460C35C90021
:10067000294033430B4349467B714B4689789B782D
:1006800049B289460C3D1909294065469E082E400D
:10069000019D3143154029434D464646ED113540F5
:1006A0002943F97119110A40494602360E40414664
:1006B00032439E080E4061469B0032430B401A4372
:1006C0007A7266E7406800F0E5FFF2E60B210C481D
:1006D00001F03EF90A200138C046C046C046C04677
:1006E000C046C046C046C046C046C046C046C046DA
:1006F000F1D152E7D405002024030020540100204A
:100700004801002048050020102700007401002047
:10071000F0B5DE46454657464E460124E0B5DA4B75
:10072000DA4900255A58DA4E22435A5080225200A4
:100730008DB09D50012132001C60D648102300F07E
:100740005FFB320010230021D34800F059FB102337
:1007500032000221D14800F053FBD14F3422002156
:100760003800FFF75DFD3023332698463422002100
:10077000CC48FD54BC55FFF753FD4246C94B002100
:100780009C55C94C9D542000253AFFF749FDE023B4
:1007900005A80200A372C54B32CB32C2012300214F
:1007A000C34A00F0CDFF002800D0DDE1012001F0B8
:1007B000E7FDC04801F040FCBF4801F055FC01F0E6
:1007C000B3FABE4BBE4E1C789846BE4B25009A46E7
:1007D000BD4B9B463023994615E04B46FC5C012CF3
:1007E00054D0022C00D1E0E0002C00D1A7E001237E
:1007F00001205D40002143461D7032687368121865
:100800004B4132607360002DE7D14A46A54B9C5C9A
:10081000012C00D1E0E0022C00D1D2E0002CE6D186
:100820002F341B5D0E2BE2D88021974A4900505887
:100830000028DCD0A1209B49C0008C4610580390B2
:10084000581CC0B2085563440399203319708023A3
:100850005B00D5500F28CAD161460F222031604677
:1008600004F068F9494601228E4B32205A541D5536
:1008700031238C49CB5C0133DBB20B54002B5BD1B1
:100880000B0032215A5443461D78B0E78F4B1B783A
:10089000DDB2002B00D08EE08C4B0F211C70322378
:1008A000FB5C3800039308AB0093894A102300F0E7
:1008B00033FE00283DD0039B10211C40013463010E
:1008C0001C19744BA4009C46102364440193814A74
:1008D0000094013B08A800F033FE002829D0220034
:1008E0001023103201930092112310217A4A08A894
:1008F00000F026FE00281CD01023E561019308AB10
:10090000009310210823754A08A800F019FE00285A
:100910000FD02000102208A9303000F009FB002879
:1009200007D0200000F0BAFA002802D002234A467D
:10093000BB540023654A137043461D7857E72F23A5
:100940001900FB5C0E2B00D951E780204E4A400075
:100950001058002800D14AE7A120C0001058844652
:10096000581CC0B278546146FB182033197080239C
:100970005B00D4500F2800D039E739000F22203116
:10098000380004F0D7F82F230122FC544B46FA54C8
:1009900031233221FB5C0133DBB27B54002BCBD102
:1009A0003223FA5443461D7821E7484B1B78DDB2C9
:1009B000002B00D196E0534652469B68013393606A
:1009C00015E7424B1B78002B00D1ABE05B465A4643
:1009D0009B68013393600AE73C4B1B78002BF5D1F1
:1009E00032223A4B0F211C702E4B2E489B5C3C4A06
:1009F000039308AB0093102300F08EFD002898D0DD
:100A0000039B10211C40013463011C19224BA400DC
:100A10009C461023644401932E4A0094013B08A88D
:100A200000F08EFD002884D02200102310320193A4
:100A3000009211231021284A08A800F081FD002807
:100A400000D176E71023E561019308AB00931021F4
:100A50000823224A08A800F073FD002800D168E7A7
:100A60002000102208A9303000F062FA002800D1DE
:100A70005FE7200000F012FA002800D159E70223B6
:100A80004946084A535454E700D00040040500008A
:100A90009C4B000098010020BC030020380300207C
:100AA000D80500200C06002048010020904B0000D3
:100AB00099040000040302010807060564000020F1
:100AC000400100202403002048050020940100205C
:100AD000AC4B0000644B0000744B0000884B0000DE
:100AE000BC4B0000224A013313703133FB5C214AB6
:100AF000FB73D3610F213B003A001E4800F086FDD6
:100B0000002800D115E73B001A48102239001033A5
:100B1000303000F0F5FC002800D10AE703234A46F4
:100B2000BB5406E7124A013313703222124B0F21D5
:100B30009B5C104A0F48D3610F4AD373130000F037
:100B400065FD002800D1F4E60B4B0A4810220A4943
:100B50001033303000F0D4FC002800D1E9E6032344
:100B60004946054A5354E4E600F094FD1EE6C046AB
:100B700094010020380300200C06002082B002B04F
:100B80007047C04682B002B07047C0467047C0464A
:100B9000F0B5CE464746182380B58FB0041E0191AC
:100BA000039308D001283CD001F0B6F90FB00CBC7B
:100BB00090469946F0BD08AD2900002003AA01F037
:100BC00019F9854E3378002B23D101273770EB7844
:100BD000002B4DD03B4001335F01FF187F4BBF001E
:100BE000FF1838000822290004AB303000F088FCE0
:100BF000002853D17A4A136801331360794B3022AD
:100C00009A5C032A36D000230020337001F084F967
:100C1000CCE7734A002093680133936001F07CF9BC
:100C2000C4E708AD2900012003AA01F0E3F86A4EE9
:100C30003378002B2AD13470EB78002B5FD16A4FC8
:100C400038000822290004AB303000F059FC00289D
:100C50005ED1664A136801331360654B30229A5C9B
:100C6000032A07D000230120337001F055F99DE7D6
:100C70005A4FB6E700221D002000327001F04CF9F7
:100C800020222900200001F072F88FE7574A012046
:100C900093680133936001F03FF987E7102204A9BC
:100CA0000AA803F039FF80460028A3D16B682A0008
:100CB000FB61032138004F4B00F0A8FC002859D0FD
:100CC0000122474B91461A7442463120DA603222A3
:100CD000444BE9789A5C1F5C974201D08A425BD012
:100CE000002903D0444A696891428CD933229A5C26
:100CF000002A84D10020327001F00EF956E723401B
:100D00000133DBB25F01FF18374BBF00FF1897E7D5
:100D1000102204A90AA803F0FFFE8046002898D1FB
:100D20006B682A00FB6103213800344B00F06EFC35
:100D3000002828D001222D4B91461A7442463120BA
:100D4000DA6032222A4B995C1F5CEA788F4201D02C
:100D50008A4231D0002A03D0274A6968914281D95A
:100D600033229A5C002A00D078E70120327001F02B
:100D7000D3F81BE71A4A30705368002001335360E0
:100D800001F0CAF812E7194A3070536801200133A4
:100D9000536001F0C1F809E733214F461A54404629
:100DA0005F5403395854002A00D12CE7124A69686D
:100DB000914200D827E722E733214F461A54404694
:100DC0005F5403395854002A00D14BE70A4A696836
:100DD000914200D942E745E79401002098010020A4
:100DE00024030020D8050020BC0300204805002073
:100DF0000C06002054010020A08601007401002090
:100E000030B505000C001000190087B0022C02D983
:100E1000002007B030BD1D4BA400E25802AB009388
:100E2000102300F079FB0028F2D010240F231021AA
:100E3000174A0194009502A800F082FB0028E7D031
:100E40002B001033009310211123124A019402A8A1
:100E500000F076FB0028DBD00023EB6102AB0093AF
:100E6000102108230C4A019402A800F069FB002815
:100E7000CED02800102202A9303000F059F8002806
:100E8000C6D0280000F00AF8C3E7C046CC4B0000EB
:100E9000644B0000744B0000884B0000002804D015
:100EA000034A044BD050012070470020FCE7C046A5
:100EB00000E000400405000070B500282ED0184A5C
:100EC000184BD158814200D0D05082248025002375
:100ED0008022134964006D000B514B5101330B60AC
:100EE000520402E0013A002A18D04B590859034332
:100EF000F8D00D480368013303600C4803681E00F6
:100F000080235B049C4600236644B21A02604B5166
:100F10000A590120002A00D170BD0B510020FBE7C7
:100F200000E00040040500005C0500206005002092
:100F3000F0B50500C64620350400A84600B50F2AC6
:100F400000D951E11023002020269B1AA055012B27
:100F50003AD00136A055022B36D00136A055032BCE
:100F600032D00136A055042B2ED00136A055052BCA
:100F70002AD00136A055062B26D00136A055072BC6
:100F800022D00136A055082B1ED00136A055092BC2
:100F90001AD00136A0550A2B16D00136A0550B2BBE
:100FA00012D00136A0550C2B0ED00136A0550D2BBA
:100FB0000AD00136A0550E2B06D00136A055102BB5
:100FC00002D11F33E05441E000200500A71A343756
:100FD000B9424541A61A2F0030360D1DAE424041A0
:100FE0000743BC460827501E8742BF4160467F42E8
:100FF000074200D1FDE030000843800700D0F8E050
:101000000D6890083560012805D04D68756003288B
:1010100001D18868B06003201500854328005B1962
:10102000AA4213D04E5DE218203216705A1C6E1C74
:101030000F2B0BD08E5DA2182032167002309A1C36
:101040000E2B03D00B5CA21820321370200010224C
:1010500000213030FFF7E4F850223F21A35C4046E6
:101060008B43A354FFF728FF002800D1B9E04F239A
:10107000E25C5300E3734E23E35CD20959000A4358
:10108000A2734D22A25CDB0951000B4363734C2316
:10109000E35CD20959000A4322734B22A25CDB09AC
:1010A00051000B43E3724A23E35CD20959000A431F
:1010B000A2724922A25CDB0951000B4363724823F0
:1010C000E35CD20959000A4322724722A25CDB0981
:1010D00051000B43E3714623E35CD20959000A43F4
:1010E000A2714522A25CDB0951000B4363714423CA
:1010F000E35CD20959000A4322714322A25CDB0956
:1011000051000B43E3704223E35CD20959000A43C8
:10111000A2704122A25CDB0951000B4363704023A3
:10112000E15CD2094B001A4322707F2904D979234C
:10113000E27B5B425340E373E27B5300E377A37BA4
:10114000D20959000A43A277627BDB0951000B43A5
:101150006377237BD20959000A432277E27ADB09BD
:1011600051000B43E376A37AD20959000A43A276D1
:10117000627ADB0951000B436376237AD209590066
:101180000A432276E279DB0951000B43E375A37928
:10119000D20959000A43A2756279DB0951000B4359
:1011A00063752379D20959000A432275E278DB0975
:1011B00051000B43E374A378D20959000A43A27487
:1011C0006278DB0951000B4321786374D2094B002C
:1011D0001A4322747F2904D97923E27F5B4253406A
:1011E000E37704BC9046F0BD1022280003F0A2FC77
:1011F0002CE70878E3182033187011239B1A102B62
:1012000000D123E74878E3182033187012239B1A83
:10121000102B00D11AE78878E318203318701323B5
:101220009B1A102B00D111E7C878E31820331870EF
:1012300014239B1A102B00D108E70879E3182033F8
:10124000187015239B1A102B00D1FFE64879E3187C
:101250002033187016239B1A102B00D1F6E68879DC
:10126000E3182033187017239B1A102B00D1EDE6DA
:10127000C879E3182033187018239B1A102B00D15B
:10128000E4E6087AE3182033187019239B1A102B10
:1012900000D1DBE6487AE318203318701A239B1A32
:1012A000102B00D1D2E6887AE318203318701B2364
:1012B0009B1A102B00D1C9E6C87AE31820331870A6
:1012C0001C239B1A102B00D1C0E6087BE3182033A7
:1012D00018701D239B1A102B00D1B7E6487BE3182A
:1012E000203318700E2A00D1B0E62F238A7BE254F7
:1012F000ACE6C046F0B514003022454657464E468F
:101300009446DE465023E0B5844410276246C35C11
:1013100083B09B06DB0EFF1A060088463D00019253
:10132000BC4263D950229146313A93461F329246CD
:10133000019A4146D0182A0003F0FCFB4B46F25CB0
:1013400051469306DB0EFF185B463B408A435F0025
:1013500017434A46B7545246A844641B3A40202AD1
:101360001ED01027FF1A3D00019AD018AC42DFD8DA
:101370002200414603F0DEFB5021735C01209A06F7
:10138000D20EA4181F2214401F326400934323433B
:10139000735403B03CBC90469946A246AB46F0BDA0
:1013A000FB0712D430002030FFF786FD0028F0D074
:1013B0004B463F22F35C10279343012213434A46D6
:1013C0001025B35401980023D0E7336B326C53409F
:1013D0003363726C736B53407363B26CB36B534083
:1013E000B363F26CF36B5340F363DBE7D018BFE7F2
:1013F000F0B550230400C646E25C123B0E0000B577
:1014000030301340202B38D1236B226853402363A4
:101410006268636B53406363A268A36B5340A3632A
:10142000E268E36B5340E3635023E35CDB070FD5D3
:10143000236B226C53402363626C636B5340636382
:10144000A26CA36B5340A363E26CE36B5340E36372
:1014500020002030FFF730FD051E0AD050223F212A
:10146000A35C30008B432100A3544031403A03F089
:1014700061FB280004BC9046F0BD210092061031AB
:10148000D20E032A3AD927000B00043A904692085C
:10149000944614379200BF181A6A1D6804336A40D4
:1014A000DA619F42F8D163466246454601339200B5
:1014B0009B00AA1A012A05D9CD5AC75A023A7D4083
:1014C000C5520233002A03D0CA5CC55C6A40C254CC
:1014D0005023E25C9206D20EA3181F7C1D008023CD
:1014E0005B4230357B402B700E2A9DD80F23551C54
:1014F00049199A1A401903F01DFB95E70023D9E713
:1015000070B504001D00FFF7F5FE002803D0290088
:101510002000FFF76DFF70BD30B597B004000D00DF
:1015200001A811001A00FFF703FD002805D02A00CA
:1015300021001A9B01A8FFF7E3FF17B030BDC0469A
:10154000F0B54546DE4657464E469B46FF23E0B57E
:101550009BB0259D8046894692461B019D4248D8F6
:101560002F09FFB22B074CD16B46DC1C0123002650
:101570002370002F0FD147E0102201A903F0DAFAFF
:101580001036103DB6B223780133DBB22370BB4274
:101590003AD8002B38D04A46414605A8FFF7C8FC88
:1015A000002826D02378012B06D9102201A905A8EE
:1015B000FFF7A0FE00281CD05A46514605A8FFF7A9
:1015C00099FE002815D00122210005A8FFF792FE00
:1015D00000280ED001A905A8FFF70AFF002808D0AF
:1015E000249B9819102DC7D82A0001A903F0A2FA4C
:1015F000C9E700201BB03CBC90469946A246AB46CA
:10160000F0BD0137FFB2AFE70120F3E7F8B5050001
:101610000C0017001E00102901D90020F8BDFFF7AB
:101620004BFC0028F9D0290020318C46032C2ED900
:101630002B6A3A6853403360231F032B11D96A6A1F
:1016400079684A4072602200083A032A09D9BA68C8
:10165000A96A4A40B260102C03D1EA6AF9684A408C
:10166000F26003229B0801339B001440012C06D931
:101670006146FA5ACD5A023C6A40F2520233002CBB
:10168000CCD06146FA5CC95C4A40F254C6E70023FC
:10169000ECE7C046002300B585B001AA90600021A8
:1016A00003481380536000F005F805B000BDC04644
:1016B00001400000BFF34F8F034B044ADA60BFF3D1
:1016C0004F8FC046FDE7C04600ED00E00400FA057C
:1016D00010B5047884B0012C0CD0022C1BD0002C47
:1016E00006D1032302AA1370124B10001B689847FF
:1016F00004B010BD042302AA1370436801211B78B3
:101700000D48137100F07EF90C4B02A81C70094BB8
:101710001B689847ECE702AB1C70C36801210648C0
:101720000193039300F06EF9024B02A81B689847DF
:10173000DEE7C0466405002068050020690500203A
:10174000F0B589B00400684605001B499C46C8C92D
:10175000C8C5C8C9C8C548C948C5A168634681612C
:101760002579037729004E1EB14101756379591E11
:101770008B410E215B420B404375E3788360A37875
:10178000C36023784360637800930C4B1A60002297
:101790000B4B1A70022D0DD00A4900F04BF80028AF
:1017A00001D009B0F0BD00F0B5F90121064800F004
:1017B00029F9F6E70620F4E7084C0000640500204C
:1017C00069050020D11600006805002030B5FF250E
:1017D00003232A000340DB009A4089010D40D243D5
:1017E0009D40C4B2002814DB104B80089C46C023E7
:1017F000800060449B00C1580A401543C5501F2318
:10180000C0211C401E3BA340084A490053501360AE
:1018100030BD0F23064923408C46083B9B089B00A4
:101820006344D9690A401543DD61E8E700E100E05F
:1018300000ED00E0F0B5D6464F464646C0B53A4CFE
:10184000E37E002B6ED1002868D0026801339340FC
:10185000A022A125D205ED005351A9460325036816
:10186000AA46C133FF339B009D5000254368AC4618
:10187000C133FF339B009D5087692C4B2C4D5F512A
:10188000077D457D3D432B4FDD5145680768A846E0
:10189000294D5F514746294D5F51057D012D19D1D5
:1018A00087683E00E0277F00B8464644B70066469A
:1018B000BE50C668B5404E4695515646C568C135BE
:1018C000FF35AD00AE504E46C26885689A51A222DF
:1018D000D2009D5003696160236000290DD0002370
:1018E000174A017F1360174A17481360C1230F4A34
:1018F0009B00D0500220FFF769FFA02304210B4A70
:10190000DB00D1500023E3822376802300205B009C
:1019100063831CBC90469946A246F0BD80230B48C9
:101920009B0095E70820F4E76C05002000200040AC
:10193000240500006C0500000C05000014050000E3
:101940001C2100404421004080000200284C00007F
:10195000F0B5264B9A7D002A16D101259975244CA5
:1019600024499A8298600A6025600A609A8A224C0B
:10197000855C9A8A2148013292B29A8225505A682F
:10198000002A03D00020F0BD1120FCE7250000272D
:1019900004000132FF329E7D988AB04203D312E0E8
:1019A000988A904202D008680028F9D0988A90421C
:1019B000F2D00F60988A9E68365C988A013080B2B7
:1019C00098822E51E7E78022998A520091420AD0EC
:1019D00008490A68002AFCD001210020084A116049
:1019E00000229A75CFE70F20FAE7C0466C05002069
:1019F000082000401C210040002000401C05000081
:101A00000C200040F0B53D4B5A68002A05D0C22496
:101A100081263B4DA400B6002E51DC7D002C0ED05B
:101A20001C7E002C59D118611976002A18D0C123C8
:101A300081210020324A9B008900D150F0BDD97528
:101A4000997ED8605C761C760029EED12D4A116013
:101A50002D4A116001212A4A11605A68002AE6D1F4
:101A60002A4FA3253A60274A27499446244EED0081
:101A70006246146808683A68002809D1002A27D00D
:101A80000021D975002C26D10F20002AD6D114E0D0
:101A900020001043F4D1DA7D002A16D008605A7E67
:101AA000DC687059A0545A7E0132D2B25A765A7EFE
:101AB000D87D9042DCD80022DA759B7E002B16D0B0
:101AC00001220F4B00201A60B8E70A607259EEE756
:101AD000002CCDD0DA750320B0E7002A0CD0C1234A
:101AE0008121074A9B0089001120D150A6E70122DD
:101AF000074B00201A60A1E711209FE76C0500202A
:101B000000200040242100400821004044210040E2
:101B100004200040064A937E002B07D105490B6044
:101B200005490B60054901330B6093767047C04649
:101B30006C050020242100400821004000200040C6
:101B4000C12210B55D4B92009A5884B0920557D5CA
:101B50005B4A1168002953D000211160C222812103
:101B6000920089009950574B9A7E002A02D1012198
:101B7000554A1160022269460A7090214F48C900F7
:101B80004258425069460392DA7D68460A72DA6822
:101B900001920022DA751A760ACB98474B4A1368ED
:101BA000002B10D0474B998A9C7D8C4261D9002133
:101BB00011609A8A9968895C9A8A013292B29A82F3
:101BC0003E4A434BD150434B1A68002A16D000229C
:101BD0001A603C4B9A7E002A02D00121374A1160DC
:101BE000DA7D002A0AD0002268460121DA755A7E81
:101BF00001700272DA680ACB0192984704B010BDF6
:101C0000C1232E4A9B00D3585B07C7D532490B68C6
:101C1000002BC3D02B4BD87D002838D00020086083
:101C2000A320C000597E1258D86842545A7E01320F
:101C3000D2B25A765A7ED97D9142AFD11A7E002A0D
:101C40002AD19A7E002A02D101211F4A1160C222A4
:101C500081201A49920080008850002268460121A4
:101C6000DA755A7E01700272DA680ACB01929847DF
:101C700094E700211160002CA5D06A4611701472FF
:101C80009A686846019299750ACB98479BE7086065
:101C9000A321C9005258CDE7DA751A69D968DA600C
:101CA00000226C46587E1A765A76013220720191D3
:101CB00068460ACB2270984770E7C0460020004073
:101CC000242100406C050020042000401C2100401D
:101CD0001C050000442100400821004003210A485F
:101CE00002680A430260094802680A430260084920
:101CF000084A094B9B1A03DD043BC858D050FBDC53
:101D0000FEF75AFBFEF700FA240500405405004098
:101D1000884C00000000002090000020FEE7FEE755
:101D2000FEE7FEE7FEE7FEE708B5064B1868002869
:101D300003D1054902220A7002E001F049F90120AD
:101D400008BDC0468805002040060020014B1868E9
:101D5000407E70478805002008B500F011FE00287D
:101D600002D100F0F8FD01E0FEF710FF08BDF8B564
:101D7000051C0F1C161C072804D904221B4E00202A
:101D8000327031E003220029F8D00622202EF5D847
:101D900000F04CFE09220228F0D8281C00F04AFE70
:101DA0000A220228EAD800F049FE08220128E5D9D3
:101DB00000F0F4FD4378041C0670012003436370B7
:101DC000391C321CA01C02F0B5FEE8B2211C00F048
:101DD000F9FD051C0120002D06D1054802F0CAFAC4
:101DE000024F0F213970281CF8BDC0464006002064
:101DF000DD000500F8B5061C0D1C171C00F01AFECE
:101E0000002803D1154F0B253D7025E00322002D3E
:101E100007D0301C00F0FCFD3A6803789A4204D2E7
:101E200006220E4E0020327016E0301C00F0E6FD57
:101E3000041E0AD00278811C3A60281C02F07AFE47
:101E4000201C00F0B5FD012006E0054802F092FAE2
:101E500002490F200870201CF8BDC0464006002033
:101E60000501050008B5072804D9044B04221A709F
:101E7000002001E000F0DAFD08BDC0464006002069
:101E800008B5072805D9044B042201201A704042E6
:101E900001E000F0CFFD08BD4006002008B500F0CD
:101EA000CDFD0623181A08BD10B5041E072C03D952
:101EB0000B4B04241C7003E0FFF7D4FF022801DD64
:101EC00000200CE0201CFFF7DBFF0228F8DCFFF706
:101ED000E5FF0623181A012181429241504210BDAC
:101EE0004006002008B50A4B19684A7E002A04D033
:101EF000084A0C211170002009E0072803D9054B7E
:101F000004201870F7E7C0B200F09CFD012008BD66
:101F1000880500204006002008B5072804D9054B95
:101F200004221A70002003E0C0B200F0A5FD0120D9
:101F300008BDC0464006002010B501280AD0002880
:101F400003D0022808D1002000E0012001F028F889
:101F5000012005E00220F9E7024B05221A7000205B
:101F600010BDC0464006002010B500F011FD01284C
:101F70000AD00224002808D0A04201D1012404E0A4
:101F8000034802F0F7F900E00024201C10BDC04611
:101F90007001050038B5134A031C10680C1C407E04
:101FA000002804D0104D02202870002018E00139CC
:101FB0000F2903D90C4907220A7011E0002B03D125
:101FC000094C03232370F0E7084D191C10C5221C8F
:101FD000281C02F0AFFD281C211C00F0BDFD0120D3
:101FE00038BDC0468805002040060020680000205B
:101FF0000C4B10B51A680C68944201D3102C04D90C
:10200000094C0720207000200AE0002803D106496F
:1020100003220A7004E00A60191D02F08BFD012002
:1020200010BDC0466800002040060020014B186823
:102030007047C0466800002008B5074B19684A7E03
:10204000002A04D0054B02201870002002E000F0A6
:102050001DFD012008BDC046880500204006002067
:1020600008B500F023FD08BD08B5074B19684A7E86
:10207000002A04D0054B02201870002002E000F076
:102080001BFD012008BDC046880500204006002039
:1020900008B500F01FFD08BD08B50A4B1A68537E4D
:1020A000002B04D0084B02221A70002008E00728F9
:1020B00003D9054804210170F7E700F011FD012064
:1020C00008BDC046880500204006002010B50C1C45
:1020D000072804D90422064B00201A7006E00322C8
:1020E0000029F8D000F028FD2070012010BDC04666
:1020F0004006002008B5074B19684A7E002A04D024
:10210000054B02201870002002E000F065FD012060
:1021100008BDC046880500204006002008B500F034
:1021200061FD08BD08B50E4A031C1068407E0028FA
:1021300004D00C480222027000200FE0012B0AD0CC
:10214000002B07D0022B01D1012004E0054B0E210A
:10215000197003E0022000F0DDFD012008BDC0463B
:10216000880500204006002008B501F023F8002172
:10217000012801D8014B195C081C08BD484C00001F
:1021800008B5134B19684A7E002A04D0114A02216F
:10219000117000201BE006280FD802F06BFC12140F
:1021A0000406080A0C00FC200EE0F8200CE0F420E5
:1021B0000AE0F02008E0EC2006E0064B0E20187044
:1021C000E7E7042000E0002000F046FD012008BD04
:1021D000880500204006002008B500F04BFDF028DF
:1021E00013D004D8042814D0EC2806D10FE0F82826
:1021F00007D0FC2803D0F42805D001200AE00220F3
:1022000008E0032006E0042004E0052002E00620A8
:1022100000E0002008BD08B5064B19684A7E002A78
:1022200004D0054B02201870002002E000F0E0FC12
:10223000012008BD880500204006002008B500F0F8
:10224000DDFC08BD08B5074B19684A7E002A04D09A
:10225000054B02201870002002E000F097FC0120DE
:1022600008BDC046880500204006002008B500F0E3
:1022700093FC08BD08B5074B19684A7E002A04D0B4
:10228000054B02201870002002E000F0CBFC01207A
:1022900008BDC046880500204006002008B500F0B3
:1022A000C9FC08BD08B5074B19684A7E002A04D04E
:1022B000054B02201870002002E000F0A5FC012070
:1022C00008BDC046880500204006002008B500F083
:1022D000A3FC08BD08B5074B19684A7E002A04D044
:1022E000054B02201870002002E000F0A9FC01203C
:1022F00008BDC046880500204006002008B500F053
:10230000A5FC08BD08B50B4B19684A7E002A04D00D
:10231000094A0221117000200AE0002805D0012896
:1023200003D0054B0E201870F5E700F05BFF01208D
:1023300008BDC046880500204006002008B500F012
:1023400057FF01384342584108BD08B50A4B196888
:102350004A7E002A04D0094A0221117000200AE0B6
:10236000002805D0012803D0044B0E201870F5E793
:1023700000F050FF012008BD880500204006002025
:10238000F8B51E4D00241E4E071C281C211C0C22D3
:10239000083034706C60FDF743FF1A4800F048FEC7
:1023A0002860A04203D101203070002024E0164BA9
:1023B000181D1968FFF7EEFD051C381CFFF7BCFD62
:1023C0000540042000F0EEFB201CFFF79BFFEFB25E
:1023D00007400120FFF7D4FE07400220FFF7A2FECE
:1023E0000740201CFFF7B1FF041C01203C4000F017
:1023F000E7FE002CD7D00120F8BDC046880500209C
:10240000400600207F2400006800002008B500F08E
:1024100007FF01384342584108BD024B0022DA60F1
:102420007047C04688050020014BD8687047C046F9
:1024300088050020044B002200B51A72904202D099
:1024400018610120187200BD88050020014B187822
:102450007047C04640060020014B00221A707047AA
:1024600040060020014B58687047C0468805002090
:10247000014B00225A607047880500207047F0B574
:1024800089B0040C031C060A84460190101C0392B8
:1024900097B2020C0D1C002002910092E1B262463C
:1024A00006AC069060600590D0B21B0EF6B205280F
:1024B00054D802F0DFFA03142943403D6A4649B27A
:1024C000484223701388E080281C6780A38000F0B6
:1024D0006FFA301C06996268FEF750FB41E0224912
:1024E0000B68587E002802D1204801F043FF281CC9
:1024F0006D4600F05DFA67802F88301CA780069932
:102500006268FEF73FFB2CE048B205AC4242237004
:102510006280002B07D0002D02D1154801F02AFF60
:10252000281C00F045FA301C0599FEF731FB18E035
:10253000FEF72CFB15E0FFF7A1FF12E00A4DE9685A
:102540002B7A0131E960002B0BD02F69002F02D1CB
:10255000FFF702FC05E0013F2F6102E0054801F0B2
:1025600009FF09B0F0BDC04688050020B50305008D
:10257000C3030500E3030500024B03490F221A7051
:1025800048607047400600208805002000B5064AD4
:1025900001231178022903D05068421E904100E0C7
:1025A000181C1840C0B200BD4406002008B5FFF753
:1025B000EDFF044B044A002801D0D06800E0906889
:1025C000186008BDA00500207C06002008B5044B5B
:1025D0005A68002A01D0013A5A60FFF7E7FF08BDA8
:1025E0004406002010B500231A1C041C1C410121C4
:1025F00021400724E41AA1400A430133D2B2082B38
:10260000F3D1101C10BD70B50024061C251C301C15
:10261000E040C0B2FFF7E6FF1823191B88400834DA
:102620000543202CF3D1281C70BD38B50D1C01F0DA
:1026300071FE084C63699D4202D8074801F09AFE7A
:1026400060690122291A054802F058F900216161E8
:1026500038BDC046440600204D0609005543000021
:1026600007B5A12303210F4A8B40D15001F094FDFF
:10267000002815D002280AD9032811D1002300937D
:102680000193181C191C1A1C01F09EFC03E0002089
:10269000011C01F035FD042802D0034801F06AFE58
:1026A00007BDC04600F00140E801090008B501F08F
:1026B00027FFA1230E4AD900505001F06DFD0128DB
:1026C00007D001F069FD022802D00A4801F052FE4D
:1026D000002001F0B9FA02F093F9074BA221CA00D9
:1026E00098500648064AC1684868985008BDC046D8
:1026F000001000401E06090000F00140A005002067
:102700001405000008B502F0EDF801280FD002F022
:10271000CDF8074B187F002803D180210122CB057B
:102720005A60002001F0F6FD024A0020506008BD0A
:102730007C0600204406002010B501F06AFD002848
:102740001AD00E4B00229A81DA8101F0C5FB0C4CA5
:102750000C49605001F0C0FBA62201238340D10048
:10276000635001F0BFFB084C206001F0C1FB074B38
:102770006060E360FFF79AFF10BDC046440600208A
:10278000001000402C0500006006002035280000E5
:1027900008B502F0A7F8012822D101F0D5FD0028E4
:1027A00002D0104801F0E6FD1E210F48002202F081
:1027B000A5F80E4B197F002902D002F06BF80FE04C
:1027C0000B480C4B0122026059608021C805026051
:1027D000C046C046C046C0465A68002AFCD0ECE756
:1027E00008BDC0462C060900554300007C060020A9
:1027F00014050040FC0000401FB5FFF783FF01F007
:10280000D9F80A4A002301A80521017043601C1C65
:102810000381438143708370C3709370537601F0DA
:102820009DFA03480470FFF71BFF1FBD44060020FC
:1028300078060020F0B53E4B8022D000195887B0B2
:10284000012904D03B4C00261D59B54206D13A4E11
:102850002022776800263B789A427641374C012542
:1028600061692E40281C002901D102F041F828425C
:1028700001D10120606101F08FFC012802D03048B5
:1028800001F078FD2F4DEF683B7D002B02D02E48E4
:1028900001F070FD01F08EF8002E47D00120011CE0
:1028A00001F02EFC042836D802F0E4F80332183286
:1028B000320001F017FBE289071CA689019201F0A2
:1028C0000BFBE9686D46897D0497AF8803AB002256
:1028D0001A701E815F815870997014E001F002FB3C
:1028E000071CE089A689019001F0F6FAEB686D46B5
:1028F0009A7D0497AF8803AB00219A7019701E81EE
:102900005F8158700122DA70181C01F027FA02E08A
:102910000E4801F02FFD01F019FE0D4E2061706987
:102920006060FFF743FE002001F016FE07B0F0BD27
:10293000001000403405000060060020440600201E
:10294000A8060900A0050020A9060900C80609007C
:102950007C060020704708B5012282F31088074BDF
:10296000597E002905D09878002802D19A70FFF787
:102970000FFF002282F3108808BDC04644060020E5
:10298000024B0120597E48407047C0464406002053
:10299000014B18787047C0464406002008B5012353
:1029A00083F3108801F094FC002181F3108808BDA6
:1029B00008B5012383F3108801F08EFC002080F31A
:1029C000108808BD08B5012383F3108801F0EAFBE5
:1029D00000280DD008488278002A04D1417E0029C1
:1029E00001D0FFF7D5FE002383F31088012001E01A
:1029F00080F3108808BDC0464406002008B50123B6
:102A000083F3108801F0F6FB002181F3108808BDE4
:102A100008B501F0EAFB08BD08B5012383F310886F
:102A200001F0D3FB002181F3108808BD08B501F047
:102A3000D8FB08BD08B501F0E7FB08BD08B501F0FB
:102A40004FFC08BD10B50123041C83F3108808480F
:102A50000278002A05D0417E002902D0054801F005
:102A600089FC201C01F0B5FB002484F3108810BD04
:102A700044060020FB02090008B5012383F31088F7
:102A800001F0BDFB002080F3108808BD08B5044BA1
:102A90001862FFF7B8FD0349034A505008BDC0460D
:102AA0007C0600201C05000000100040014B186A45
:102AB0007047C0467C06002008B5044B5862FFF7FB
:102AC000A2FDA421024ACB00D05008BD7C06002004
:102AD00000100040014B586A7047C0467C06002039
:102AE000F8B5031C081C072B1AD80F4A03261E40F2
:102AF000D118F600FF24B4402831E74308700B4C8E
:102B0000032B01D80A4D01E0A525ED0063591F40B4
:102B10006751FFF767FD6759B0400743675102E00F
:102B2000044801F027FCF8BD7C060020001000409E
:102B3000240500003903090010B5041E072C02D932
:102B4000034801F017FC034B18192830007810BD1A
:102B5000410309007C06002038B5051C0C1E02D17B
:102B6000074801F007FC002D02D1064801F002FCE5
:102B7000054B00209D605C6001F0D6FC38BDC0466E
:102B80004803090049030900A0050020014B5861D2
:102B90007047C0467C060020014B58697047C0460C
:102BA0007C060020064B074AA32110B55877CB00BE
:102BB000D4580104044820400843D05010BDC046FA
:102BC0007C06002000100040FFFFF8FF014B587FFB
:102BD0007047C0467C060020014B18617047C04614
:102BE0007C060020014B18697047C0467C06002017
:102BF000014B58607047C0467C060020014B586866
:102C00007047C0467C06002008B5024BD860FFF72D
:102C1000CDFC08BD7C060020014BD8687047C0463B
:102C20007C06002008B5024B9860FFF7BFFC08BD8A
:102C30007C060020014B98687047C0467C06002047
:102C4000014B58837047C0467C060020014B588BCF
:102C50007047C0467C060020034B0449044A3033C9
:102C6000187050507047C0467C0600200C050000CC
:102C700000100040014B3033187870477C0600206C
:102C8000184B10B531331870174A184BFF24995858
:102C9000A1439950032821D8995801F0EBFE1D0259
:102CA0000A140124214399501149FF205850114919
:102CB00006E00220014399500F490D4A99500F49EF
:102CC000A722D20008E00324214399500C48084968
:102CD000A7225850A2400021995002E0094801F073
:102CE00049FB10BD7C0600203405000000100040A8
:102CF0003C05000007010000FFFF0000211001005B
:102D0000FFFFFF00C2030900014B31331878704701
:102D10007C0600201F4B00B532331870012821D0EB
:102D2000002810D0022834D1A2211B4ACB00D05059
:102D30001A491B481B4A08601B4B1C481C491A6057
:102D400008601C4A20E0A223134AD9005050134BBC
:102D50001348154A186013491748154B116018603D
:102D6000164A11E0A2230C4AD90050500B4B0C48D4
:102D70000C490D4A186011601148124A0C4B124957
:102D800018601160114A02E00E490A60104A1148A9
:102D9000026000BD7C0600200010004024170040A7
:102DA000005000784E0000542817004008800C6046
:102DB0002C1700408864720003800C60226472004B
:102DC00002800C603017004011646600DEC08F8204
:102DD0003E420F8234170040F8B5A122334C344BE9
:102DE000344E354DD000002703210122F7503150D9
:102DF00067516251E05831490F220140E150E558D6
:102E0000062095430543E550E1582D4DC022900220
:102E10000D400543E550A323DD006159294A802375
:102E20000A40625160595904014361516059FF22BF
:102E3000904320231843605161592348C022084021
:102E40006051224853000221C15001F0D5FD2049B4
:102E5000204A70507251204D032373511F4800F0D7
:102E6000E1FD1F4E1F4DF060687FFFF79BFE286A53
:102E7000FFF70CFE686AFFF71FFEE819283001789B
:102E8000381C0137FFF72CFE082FF6D12F1C3037E6
:102E90003978154AA1502C1C313420783235FFF78F
:102EA000EFFE2878FFF736FFF8BDC046001000405F
:102EB0001405000000F00140FC0F0000FFFEFFFFC2
:102EC000FFFFF0FFFFFFFFFDFF00FFFF00E100E05D
:102ED0001C050000041100400405000060060020ED
:102EE000A00500207C0600200C05000070B5274ED0
:102EF00086B0337872789A4245D0002B01D1FFF723
:102F00006BFF7078002801D1FFF7AAFB2049214D03
:102F100000246C5000F04EFD1F4D2C606C602C6145
:102F2000AC60EC603378012B08D101F035F9A04298
:102F300017D0201C211C01F0E3F812E0022B10D165
:102F400000F038FD154A2C61147001F025F90328B2
:102F500007D100940194201C211C221C231C01F089
:102F600033F8FFF723FB70780024307003A80426A1
:102F7000067044600481448144708470C47000F021
:102F8000EDFE012000E0002006B070BD44060020E8
:102F90001405000000F001406006002078060020C3
:102FA00008B5012383F3108808490A78824208D0C3
:102FB0004870487E002802D1FFF798FF01E0FFF734
:102FC000E7FB002383F3108808BDC04644060020B9
:102FD00038B5124B5A7E1C1C002A1DD1FFF7FCFE8F
:102FE0000F488168051C002902D10E4801F0C2F982
:102FF0006B68002B02D10C4801F0BCF901F098F984
:10300000002802D0094801F0B5F9002001F082F94A
:1030100001226276FFF7BCFB38BDC04644060020A3
:10302000A00500205E0209005F0209006602090097
:10303000F8B5071C012080F31088544D544B554EB1
:103040000024002203211C605C609C60DC601C6129
:103050001A7529702A766A76B46074606870AC70EC
:103060006C60AC60AC81EC812C616C6101F0D6FBD2
:10307000381C00F059FE00F0F5FE201C01F042F96A
:10308000301C01F07BF9444FC2208300F958434AB9
:10309000C0260A40FA50B0003B584149C5221940A9
:1030A00039509600BB59FF20402183430B43BB514D
:1030B0000120FFF775FF3B4E3B4B3C48311C336210
:1030C000706228310123301C0B7029300223311C1F
:1030D00003702A3103200870FF22311C32612B312A
:1030E00004220A707277321C2C3205201070321CB8
:1030F0002D320621301C11702E3007220270301C38
:103100002F300821321C0170303200201070321C28
:103110000120311C32321070313196229A400B70EE
:103120001E2171617260F360FFF740FA0F23B360F4
:10313000FFF73CFA01207483307670760021201C62
:103140006924317701F0D0F834606E780124A6420A
:1031500002D0174801F00EF900262C70AE706E6098
:10316000AE60AE81EE812E616E612E766E76FFF7D7
:1031700033FEC023802180225800CC0053033C50F2
:103180003B5086F31088281CF8BDC046440600203A
:1031900060060020A005002000E100E0FFFF00FF26
:1031A000FF00FFFF7C06002004070A0D05080B0E38
:1031B0003C020900014B3233187870477C0600202E
:1031C000054B10B5041CD868002802D1034801F053
:1031D000D1F803490C7510BDA0050020F6030900C5
:1031E00060060020014B18767047C0467C06002020
:1031F000014B187E7047C0467C060020014B587674
:103200007047C0467C060020014B587E7047C04680
:103210007C060020014B18777047C0467C060020D2
:10322000014B187F7047C0467C06002008B501F0AE
:103230005BF808BD08B50B4BD868417D002906D066
:10324000012000F05BFB084B9A8901329A81074903
:10325000074B084A0020585051681368C91AFFF7F5
:10326000E4F908BDA0050020440600201405000074
:1032700000F001407C060020084B10B51A781C1C99
:10328000012A02D0064801F075F80649064A0220D4
:10329000002320700B61CA6010BDC0467806002074
:1032A00092050900600600204933000010B500F0C7
:1032B00081FB194819491A4C00230122027023612D
:1032C0000869A623174AD900505000F065FF00286E
:1032D0000AD100F075FD01280DD900F00FFE6060E5
:1032E000002808D1104804E000F056FF032802D05F
:1032F0000E4801F03FF8022000F0A6FC002000F08C
:10330000FDFA00F049FF032802D0094801F032F825
:10331000FFF7B2FF10BDC046780600207C060020F3
:1033200060060020001000407B05090080050900B0
:103330008805090008B5034B05221A70FFF7B6FF90
:1033400008BDC04678060020F0B5484A8023D80062
:10335000115887B0464C012904D0464D00235659D8
:103360009E4205D1676800233978202088425B415E
:10337000414E032500210127357021603B408B42DF
:1033800055D08123D80015583C4B11583C48D1509A
:1033900002A912583B1C00910194381C291C00F012
:1033A00013FE032841D801F065FB1E02204E02984F
:1033B000002802D0334800F0DDFF281C00F024FF75
:1033C000002802D1304800F0D5FF304903A8CF686B
:1033D0000223B97D0027037047603A1C07814781AB
:1033E000457081701DE02A482BE0029A002A02D124
:1033F000284800F0BFFF281C00F006FF002802D17B
:10340000254800F0B7FF214F03A8FB68029F997D74
:10341000022200230270476003814381457081705E
:103420000122C27000F09AFC0DE01C4809E00093F4
:103430000193181C191C1A1C00F0C6FD042802D0A8
:10344000174800F097FF2568002D06D100F0B2FA6A
:1034500065752561FFF72AFF05E0124801226275B4
:1034600020610424347007B0F0BDC0460010004055
:103470006006002034050000780600202C050000BE
:103480000C040000B8050900B9050900A0050020DA
:10349000BD050900C0050900C1050900C8050900EE
:1034A000CF0509003533000070B50C4DA124E400B0
:1034B0002E5901F025F886420AD001F021F8285152
:1034C000FFF7F4FE064900204968FFF7AEF870BD2B
:1034D000044B18780028F3D0F4E7C04600100040F1
:1034E0007C06002078060020F0B5864C0125636933
:1034F00089B0281C002B01D101F0FAF901262840DF
:1035000000D0D3E02178B14202D100F04BFA10E0B4
:10351000022908D000F042FFFFF758F8A678002EE5
:1035200000D0A9E00EE0784A1378033BDDB2AE424A
:1035300040410028EED0754E754877680122790821
:103540006161CBE0FFF7D2FC704D071E00D08EE02A
:1035500020780190061E012E06D0002863D0022894
:1035600065D1FFF7A1FF65E000F024FA00F014FE3A
:1035700000281DD100F024FC012851D9FFF706F8DE
:10358000071E0CD000F0FAFF002849D1287E002841
:103590000BD100F0DBFF2669B04241D105E0206984
:1035A00000F0C2FF381C00F0D7FFFFF7C5F837E086
:1035B000698B002920D0A2898A421DD3311C381C76
:1035C00000F09EFD00F08EFC0290A2890392E68935
:1035D00000F082FC69460A79029905AB1A700691DF
:1035E0000C226946515A5870181C19815E819F70CF
:1035F000DF7000F0B3FB13E001F07AF9002802D08D
:10360000444800F0B7FEA1234348DF00C65900F04C
:1036100077FF864202D0E1890131E181FFF746F868
:103620000120296800E06968FEF7FFFF02E03B48DF
:1036300000F0A0FE6D7E012D23D1FEF7A7FF00282C
:103640001FD12478012C07D0002C0DD0022C18D0CB
:10365000334800F08FFE14E000F09EFD002810D1EA
:1036600000F034FC00280CD1FFF74CF809E0696841
:10367000301CFEF7DAFF04E0647E002C01D0FFF777
:10368000BBF800F09DFB01280CD905A800210323FD
:10369000037041600181418141708170C17000F00F
:1036A0005DFB2DE01F4800F065FE29E0FEF78EFF70
:1036B000A778002F1DD12178022912D1124B1D7835
:1036C000033D012D04D900F069FEFFF7EDFE17E080
:1036D0000E4F321C786841080D48616101F00EF907
:1036E0000EE000F05BFE094A381C5168FEF79DFFB2
:1036F00006E000F053FE607E002801D0FFF77CF862
:1037000009B0F0BD44060020780600207C060020A9
:10371000554300000A050900001000405804090044
:10372000720409008C04090007B50190C046C04628
:10373000C046C046C046C046C046C046C046C04659
:10374000C046C046C046C046019B013B0193002BCA
:10375000ECD107BD70B58022164B910000245C505F
:103760001549C2250E78AD00144A032E07D109264B
:103770007442C1265C510825B4001D510AE001269F
:1037800076425E51C0230E4D02265B00EE5014615E
:1037900003244C7000235360536193604B600B759E
:1037A000984205D0074801680A69002A00D090476E
:1037B00070BDC04600100040B0060020FC10004064
:1037C00000E100E0B0050020F8B53F4B1A69012A7E
:1037D00053D19D693D4C8022960001350321042080
:1037E0009D611870C025A15139496A0002278F5088
:1037F000384F00263E61C1227E607E61BE60364E3B
:1038000008259100655035682A7D3D1C002A17D097
:10381000A927F9006258314F9A75A023D9007A5828
:10382000024202D12E4800F0A5FD00200123A12272
:1038300028620421A361D300F950A927F900605040
:103840006868002802D0274800F094FD2D69002DFB
:1038500002D0254800F08EFD244A536899072DD4E4
:103860003768F968002900D088473668707D0028DD
:1038700028D035681E4AA55024E0022A1AD11549DD
:1038800000250D6111484D6180244D6001278D6038
:10389000C221A6007A428C0085511D70025103207E
:1038A00058705D601D750C4B1E683769AF4209D0BA
:1038B000B84707E00F4800F05DFD03E00E4800F058
:1038C00059FDCDE7F8BDC046B0060020001000400D
:1038D00000E100E0FC100040B005002000F00140D5
:1038E000AD020A00B6020A00B7020A00FCE100E0DD
:1038F00004050000E7020A00B8020A0070B51E4D78
:10390000061C6B7D6C78002B02D11C4800F032FD48
:10391000287D002802D01A4800F02CFD0122002149
:103920002A756975022C0CD816482301C318002E7D
:1039300001D11E683260621E012A05D8997A297069
:1039400002E0114800F016FD104D2868037D002BA1
:1039500011D0022C0FD10E4C0E4E251C325953079C
:1039600002D40D4800F006FD0C494859002802D148
:103970000B4800F0FFFC70BDB006002021010A00DA
:1039800022010A004C4C00003A010A00B005002058
:103990000405000000F0014040010A000010004052
:1039A00041010A00024B9868013843425841704770
:1039B000FC100040F8B5164B164C02200121C02720
:1039C000C222D8674D4282407B00134E8021134FA4
:1039D000A55081400025F050012265507D61104DB9
:1039E0002261A2612C78944201D1062003E0023CBE
:1039F000012C00D9101C0024FFF796FE7C61201CCE
:103A00002C70FFF7A7FE02206C753060F8BDC04631
:103A100004E100E00010004000E100E0FC10004084
:103A2000B006002038B50E4B0E4C18600E490F4BF7
:103A30000F4A0225201DC56799500E48A421CA00CF
:103A40009850FFF7B7FF0C48002303210370417023
:103A500043600361037543758375256038BDC046B7
:103A6000B005002000E100E01410004000F001402B
:103A70002405000004110040B006002070B55C4C25
:103A80002369607D013365782361002802D059489D
:103A900000F070FC2178032948D1574E3269002A82
:103AA00044D0012D35D12269032A02D0534800F0B9
:103AB00061FCA06902210130514A8025A0610023E8
:103AC0008D400120217053514542C220884015503D
:103AD000C02568004B4D29504B493361096873601C
:103AE0007361B3600326667063602375087D984236
:103AF0000DD0A925E80016580125A6753E4C0426D0
:103B000023629561A124414DE4002E511350CA68EF
:103B100065E0022D08D12369012B02D03C4800F05A
:103B200029FCFFF751FE61E03A485DE0032D5AD0D1
:103B3000012D3CD12169012918D12F480021304B9A
:103B40000126C2224160816070429100C126585016
:103B5000B0001D502C4D304E2A68117D002902D036
:103B60002A4D0420A851E4689C513FE002293DD130
:103B7000234E214A8023002598000221C22315618B
:103B80005561556035504A429800C12132508B0032
:103B90000822F25003262670656025751A4C2568A8
:103BA000261C2869002800D08047306816E0022DC6
:103BB000B7D0657819482B01C1180E7B0025AE429D
:103BC00003D00D4A15696A1E95418B7A0120237036
:103BD000FFF7C0FD002D09D00B4C20688268002A39
:103BE00004D0904702E00E4800F0C4FB70BDC04610
:103BF000B006002090010A00FC1000409F010A005E
:103C00000010004000E100E0B005002000F001409D
:103C1000A4010A00A9010A00040500004C4C0000A0
:103C2000D6010A0008B5022804D8054B187843428B
:103C3000584103E0034800F09DFB002008BDC0464A
:103C4000B0060020F9020A00F8B52B4C0301061C4F
:103C50002A4F207DFF18002802D0294800F08AFB57
:103C6000301CFFF7DFFF002802D1264800F082FB5E
:103C70000121C222244D0023484291006375C022D5
:103C8000685022490220520088502148667002681C
:103C9000116852682361A3613B68A160E2606360C0
:103CA000022E18D8387A80239B00E850F87A194BF6
:103CB000002805D1E950EA58002A08D1164804E046
:103CC000EA50E958002902D1144800F053FB7F7AEA
:103CD000C1208300EF500E4D29680A7D002A07D0CD
:103CE000022E05D10B480E4B00260427A6751F5047
:103CF00001256575F8BDC046B00600204C4C00009B
:103D0000DB000A00DD000A000010004000E100E0D6
:103D1000B00500200405000000010A0005010A00AA
:103D200000F001407047C04610B5041E02D108489B
:103D300000F020FB074B00221C60191DDA670833D6
:103D4000CA678020DA67044B44031C6010BDC0467C
:103D500029000B00D406002000E100E070B5144CEF
:103D6000051C2368002B02D1124800F003FB201C25
:103D70000830C16F092902D90F4800F0FBFAE66F3D
:103D80000C225643A319043343CD43C3251C0835E5
:103D9000E86F0130E867E16F0131E167E66F092EF6
:103DA00001D90022E2678024044B65035D6070BD89
:103DB000D406002034000B0035000B00FCE100E0CD
:103DC000034B0A200833D96F421AD0B27047C0465D
:103DD000D4060020F0B587B0012383F31088134C7C
:103DE000124D0834E06F00281BD02A1DD16F0C261D
:103DF000714303AB69180431181CE0C9E0C0E76FD8
:103E00000026013FE767D46F0134D467D56F092DD1
:103E100000D9D66786F31088044A176807CBB847DD
:103E2000DAE780F3108807B0F0BDC046D406002062
:103E300038B50A4C051CE36F002B02D1084800F08E
:103E400099FA291C0831E06F00F03CFC00218842FF
:103E500001D0E1670121081C38BDC0465C07002085
:103E60006F020C0010B500F0B7FB0021124A880069
:103E7000002384188818A361A363041C803488304D
:103E8000237003700D480C18013123700829EDD1FF
:103E9000111C101C141C9031913058341370536055
:103EA0009360D360136153610B7003702370D36709
:103EB00092320123137010BD5C070020F007002030
:103EC000014B185C7047C046F0070020014B90334F
:103ED000187870475C070020014B58687047C0464F
:103EE0005C070020014B98687047C0465C070020C3
:103EF000014BD8687047C0465C07002010B5104CD5
:103F00002378002B02D00F4800F034FAE06F00282D
:103F100002D100F08BFBE067E06F00280FD0012199
:103F200043784A4206210B43437002700023C218B3
:103F3000FF2101339170202BF9D10323237010BD91
:103F40005C0700203B010C0038B5124C2378002B95
:103F50001ED1201C90300178002919D108256069F4
:103F600000F028FC002805D0231C60699033012252
:103F70001A70206161690131082900D10021231CD8
:103F8000616190331A78002A02D1013D002DE6D1FB
:103F900038BDC0465C07002038B5094D041C2B1CF9
:103FA00090331878002804D02969A14201D1FFF785
:103FB000CBFF2A19034B0025803215701D5538BDE3
:103FC0005C070020F0070020F0B5464D85B0039354
:103FD000EB6F061C0C1C171C002B02D1424800F092
:103FE000C9F92878032802D0404800F0C3F9E96FE6
:103FF00001234A781A4202D192352D786B4004256C
:10400000002E61D050070126810F1E40251C231C65
:104010000A0608330E353F023249A8003F0A0293D0
:104020000B5817430B980A9A0025156005609F42AC
:1040300033D0201CFFF7FCFE0190AE4200D0051CDF
:1040400001232E1C1E40002828D00299254A063143
:1040500088008750039F1D1C002F20D0244F3B5DFC
:10406000002B1CD0201C00F0A5FB002802D1214809
:1040700000F080F9201C00F05BFB051E02D0201C24
:10408000FFF78AFF0A990D60002D02D11A4800F04F
:1040900071F900203855022501E001950325002E15
:1040A0000DD0201C00F06CFB0B9E3060002802D16C
:1040B000124B336005E00E4F01223A5501E00B9C94
:1040C00026600199002905D1064CE06F00F0CCFA7A
:1040D0000020E067034A00261670FFF735FF281C12
:1040E00005B0F0BD5C0700205B010C005C010C001A
:1040F000F007002091010C0096010C00B40700208D
:10410000F8B51F4C071C23780E1C013B012B02D96C
:104110001C4800F02FF90425002F19D02078012821
:1041200002D0194800F026F9E268002A02D11748A7
:1041300000F020F9E16800250F78AF4208D06068F0
:10414000FFF776FE0225002802D1114800F012F98F
:10415000002E0ED06768381C00F0EAFA061E02D066
:10416000381CFFF719FFA3689E4202D0094800F0EF
:1041700001F900202070FFF7E7FE281CF8BDC046BB
:104180005C070020FC000C0002010C0003010C0085
:104190000E010C001E010C00014B18787047C04640
:1041A0005C07002038B5041C0D1C00F013FB002830
:1041B00001D1002008E0281C211C00F083FA00280F
:1041C000F7D0FFF7C1FE012038BD08B500F0D8FADE
:1041D00008BD10B5041CFFF7DFFE201C00F000FB3B
:1041E00010BD08B500F0E6FA08BD08B5083000F0CB
:1041F000C7FA08BD08B5083000F09AFA08BD08B53E
:10420000083000F0EDFA08BD08B5083000F0D2FA29
:1042100008BD10B52A4C2378002B02D0294800F0A5
:10422000A9F8201C90300178002927D0206960600F
:1042300000F0A6FAA060002802D1234800F09AF806
:10424000A26801235078034004D1211C92310A78DE
:10425000002A10D16068FFF7D7FF02280ED8E36F5D
:10426000002B02D100F0E2F9E067E16FE160002984
:1042700004D0012001E0E3600220207022780020B9
:1042800082421BD0A368834202D1104800F072F82A
:1042900020696060063081006318DA7803210132FA
:1042A000D0B2D870A36808405A78410006208243F3
:1042B0000A435A70903400232370012010BDC04679
:1042C0005C070020C3000C00C9000C00E7000C00D4
:1042D00008B500F0ABF908BD08B500F0C5F908BD98
:1042E00008B500F077FA08BD014B9233187070479B
:1042F0005C070020014B9233187870475C07002060
:104300007047C046024B9870587018707047C0468E
:10431000F807002010B5041E012C02D9024800F055
:1043200029F8024B5C7010BD2A000D00F807002030
:10433000014B18787047C046F8070020014B987869
:104340007047C046F8070020014B58787047C046B8
:10435000F807002008B5054B1A7858789A7018703D
:10436000034B8100CA58904708BDC046F80700209B
:104370007C00002008B5FEF7FFF808BD10B5041E4C
:1043800002D10448FFF7F6FF034B00221C605A607D
:104390009A6010BD2A000100B4050020094B00B549
:1043A00018689A68016801329A608A4208D359688D
:1043B0004068002201319A605960814200D35A60FE
:1043C00000BDC046B4050020F8B500282AD0164C20
:1043D000A36801280ED1276801333A68A36093428D
:1043E00020D36068796800250130A560606088424C
:1043F00018D316E02668C7183568A760381C291C32
:1044000000F042FB62683B1C80186060AB4201D345
:104410005B1BFBE771686568A3608D4201D36D1A71
:10442000FBE76560F8BDC046B4050020024B1A6882
:1044300099681068401A7047B405002070B50D4D9A
:10444000041C2B685868844202D30B48FFF792FF84
:104450006E68B4420CD002D829684A68A418FFF7E5
:10446000E5FF2D68F3432E6819197143081800E021
:10447000002070BDB40500206800010070B5041C68
:104480000D1C884202D30B48FFF774FF0A4E3368B5
:104490001868854202D90948FFF76CFFB168601AB5
:1044A000A14206D30020A94203D3326815686E1AD0
:1044B000301970BD7D000100B40500207E000100B0
:1044C00038B5041C101C0D1CFFF7B8FF002801D0E4
:1044D000001911E0201C291CFFF7D0FF041CFFF776
:1044E000A5FF031C201E984206D304490D686A6884
:1044F0002C68013A5443001938BDC046B405002069
:10450000074B10B51A68596850681C1C814202D3C9
:104510000448FFF72FFF236861689A68505C10BD5C
:10452000B4050020B200010038B5064B041C1A681F
:104530001D1C5068844202D30348FFF71BFF6C60C8
:1045400038BDC046B4050020B9000100014B5868D1
:104550007047C046B405002038B5064B041C1A68E5
:104560001D1C1068844202D30348FFF703FFAC60B0
:1045700038BDC046B4050020C5000100014B986855
:104580007047C046B405002010B50F4B1A680023D1
:1045900093420BD20D499C006458A04203D10C48B1
:1045A000FFF7E8FE0CE00133DBB2F1E70024222242
:1045B000624308495318984204D00134062CF6D1BE
:1045C000002000E0012010BDFC07002000080020B2
:1045D000F60003000809002010B500220F49500022
:1045E000801800230C1801326370A3704354102A02
:1045F000F4D122225A430A490A485418211C9A002D
:1046000084502231DE22227001348C42FAD10133EF
:10461000062BEED1044C236010BDC04618080020C4
:104620000809002000080020FC07002038B50A4BCC
:104630001C68002C0ED0621E084990004458084D9A
:104640001A604550201CFFF79FFF002802D1054843
:10465000FFF790FE201C38BDFC070020000800205A
:10466000ADDEADDE7D00030070B5104C051C236887
:10467000052B02D90E48FFF77DFE281CFFF784FFAB
:10468000002802D10B48FFF775FE21680A488A000E
:1046900011580A4B061C994202D00948FFF76AFEDE
:1046A000206882000130B550206070BDFC070020FA
:1046B000850003008600030000080020ADDEADDEAB
:1046C00088000300F8B5051C0C1E0F2C02D91448F5
:1046D000FFF750FE281CFFF757FF002802D11148B2
:1046E000FFF748FE104966003019435C0022022B98
:1046F00013D80B185F78C0190C4F8000C5515D7836
:104700000135E8B258705F78022F00D95A7032191B
:104710008C5C0134E6B28E540122101CF8BDC046F8
:104720008F000300900003001808002048080020B4
:1047300038B5041E0F2C02D90E48FFF71BFE0E4A97
:1047400065002919885C002813D053189878091837
:104750000A488900085899780131C9B29970997846
:10476000022901D9002199702C19155D013DEBB288
:10477000135538BDA6000300180800204808002083
:1047800010B5041E0F2C02D90748FFF7F3FD074BA5
:1047900062001119C85C002805D0581884780B19DC
:1047A00003499A00505810BDB700030018080020B4
:1047B0004808002010B5041E0F2C02D90348FFF74B
:1047C000D9FD630002491819405C10BDC800030000
:1047D00018080020014B18687047C046FC070020ED
:1047E00038B5051E0F2D0CD90948FFF7C3FD08E0A9
:1047F000084B9C4202D10848FFF7BCFD201CFFF784
:1048000033FF281CFFF794FF041EF1D138BDC046CA
:10481000D7000300ADDEADDEDB000300164BA121A7
:1048200010B50122CC0000205A60DA6018515A6499
:10483000124A1C1C9958814202D01148FFF79AFD78
:104840000123C222584291000E4B60500022A22147
:104850005A640420CB00E0500B490C4C012022602C
:104860002271627108700A4B8022C021D4008140FD
:104870005C501C6010BDC04600A000404405000014
:1048800035000400FCA00040D4090020C005002031
:1048900000E100E0034B0449012200201A60087087
:1048A0007047C04600A00040D4090020094A30B536
:1048B00001235360084CD3608025084AC0200021A2
:1048C000ED0098401160117125505171044A137028
:1048D00030BDC04600A0004000E100E0C00500205F
:1048E000D4090020014B18787047C046D409002035
:1048F000014B18797047C046C0050020F7B5334F0B
:104900000092334C8022C2237E790191051C9900CC
:1049100050026050002E02D02E48FFF72BFD002DD4
:1049200002D12D48FFF726FD3A68002A02D02B4815
:10493000FFF720FD3D60009D294E012D0DD0002D7B
:1049400003D0022D0DD1A92208E00120254B0099AA
:104950006064E5582064716407E0A822D5006559B9
:1049600003E02148FFF706FD002501227A71019F2F
:10497000A821E81987B20023C8007364275027587C
:1049800000976264174AA758716C1E1C994202D0A6
:104990001648FFF7EFFC009BAB4205D3AF4201D3B3
:1049A0009F420CD3124808E0301CAF427041009D7A
:1049B000AF427641B04202D00E48FFF7DBFC8022C6
:1049C000C12157028E00A751F7BDC046C005002087
:1049D00000A000407300040075000400760004008D
:1049E000FCA0004044050000890004009B00040076
:1049F000B0000400C90004000048704748A000400F
:104A00000048704740A1004070B58022134C144DFF
:104A1000C22350029900002668506664114C226837
:104A2000B24202D11048FFF7A5FC104B012166717C
:104A30002068A82226606964EE58D300EA580C4D1D
:104A40001432AE4203D8C0231D02AA4202D800216C
:104A5000964249412171804770BDC046FCA000408C
:104A600000A00040C0050020EC0004004405000048
:104A7000FF3F000002B4714649084900095C490043
:104A80008E4402BC7047C046002934D00123002266
:104A900010B488422CD301242407A14204D28142BD
:104AA00002D209011B01F8E7E400A14204D28142CD
:104AB00002D249005B00F8E7884201D3401A1A434A
:104AC0004C08A04202D3001B5C0822438C08A04281
:104AD00002D3001B9C082243CC08A04202D3001B37
:104AE000DC082243002803D01B0901D00909E3E7B1
:104AF000101C10BC704701B5002000F00BF802BD7F
:104B00000029F8D003B5FFF7C1FF0EBC4243891A54
:104B10001847C0467047C04630B500240139A2424C
:104B200001D1002005E0035D01340D5DAB42F6D0FC
:104B3000581B30BD002310B59A4200D110BDCC5C8B
:104B4000C4540133F8E70000F8B5C046F8BC08BC0F
:104B50009E467047F8B5C046F8BC08BC9E467047F4
:104B600000000020656E6372797074696F6E206B4F
:104B700065790000656E6372797074696F6E206E7E
:104B80006F6E6365000000004D4143206B65790046
:104B9000191816170000000000000010D4EC881E41
:104BA000320E9786F2DB75FA73DA8A10A909B09D86
:104BB000364DC240EB37CB13F3B3E641993FFC8847
:104BC000BF214490F02B532E02FF7EC5F84B00000E
:104BD000D84B0000E84B0000A909B09D364DC240FB
:104BE000EB37CB13F3B3E641FFE55DCC7BCE111F72
:104BF000B3B6E87EA381E049993FFC88BF21449089
:104C0000F02B532E02FF7EC5090000000B000000B0
:104C10000A00000008000000000000000000000082
:104C200000E0D70103000000090000000B000000B5
:104C30000A00000008000000000000000000000062
:104C400000E0D70103000000010200000010004056
:104C5000101100400310000001000000001000408F
:104C6000000000000B0204000000000004100040DF
:104C70000000000007080301000000000000000021
:084C800088B4FF7F0100000071
:104C8800000000000000000000000000000000001C
:104C9800000000000000000000000000000000000C
:104CA80000000000000000000000000000000000FC
:104CB80000000000000000000000000000000000EC
:104CC80000000000000000000000000000000000DC
:104CD80000000000000000000000000000000000CC
:104CE800C8050020010000000500000004192A3F43
:104CF8004D0000000000000000000000E934000042
:0C4D080035320000E9000000C10000008E
:0400000300001CDD00
:00000001FF
