:100000000C94D6000C94FE000C94FE000C94FE00A0
:100010000C94FE000C94FE000C94FE000C94FE0068
:100020000C94FE000C94FE000C9478060C940D05C4
:100030000C94FE000C94FE000C94FE000C94FE0048
:100040000C94FE000C94FE000C94FE000C94FE0038
:100050000C94FE000C94FE000C94FE000C945401D1
:100060000C94FE000C94FE000C94FE000C94FE0018
:100070000C94FE000C94FE000C94FE000C94FE0008
:100080000C94FE000C94FE000C94FE000C94FE00F8
:100090000C94FE000C94FE000C94FE000C94FE00E8
:1000A0000C94FE000C94FE000C94FE000000000274
:1000B00000090F0000030401000C00000000000014
:1000C00000000000000000000000040802011040D1
:1000D00080401020408040800802040180402010B1
:1000E00002011080102040400404040404030405AD
:1000F00002020202040302020202060606060606C5
:1001000004040202020400000000250028002B0065
:100110002E00310000000000240027002A002D00DE
:10012000300012010002EF0201404123368000013D
:100130000102030112010002000000404123368049
:1001400000010102030141726475696E6F204C4C1D
:10015000430041726475696E6F204C656F6E617209
:10016000646F0004030904080B0002020201000985
:100170000400000102020000052400100105240112
:10018000010104240206052406000107058103106D
:10019000004009040100020A0000000705020240B5
:1001A00000000705830240000000E90711241FBE7C
:1001B000CFEFDAE0DEBFCDBF11E0A0E0B1E0ECE3CD
:1001C000F1E102C005900D92A432B107D9F721E008
:1001D000A4E2B1E001C01D92A439B207E1F710E03A
:1001E000C6EDD0E004C02197FE010E949608C53DEF
:1001F000D107C9F70E94F9020C949C080C940000E6
:1002000061E082E00E948E0261E085E10E948E0240
:1002100061E084E10C948E0261E082E00E94CA02F7
:1002200060E084E10E94CA0261E085E10E94CA02A6
:1002300068EE73E080E090E00E94C30160E082E03D
:100240000E94CA0261E084E10E94CA0261E085E185
:100250000E94CA0268EE73E080E090E00E94C30151
:1002600061E082E00E94CA0261E084E10E94CA0269
:1002700060E085E10E94CA0268EE73E080E090E0F1
:100280000E94C30161E082E00E94CA0261E084E151
:100290000E94CA0261E085E10E94CA0268EE73E032
:1002A00080E090E00C94C3011F920F920FB60F9262
:1002B00011242F933F938F939F93AF93BF9380917C
:1002C000250190912601A0912701B091280130913C
:1002D000240123E0230F2D3758F50196A11DB11DF0
:1002E000209324018093250190932601A093270158
:1002F000B09328018091290190912A01A0912B01AE
:10030000B0912C010196A11DB11D809329019093FC
:100310002A01A0932B01B0932C01BF91AF919F9123
:100320008F913F912F910F900FBE0F901F901895B6
:1003300026E8230F0296A11DB11DD2CF3FB7F89436
:100340008091290190912A01A0912B01B0912C015B
:1003500026B5A89B05C02F3F19F00196A11DB11D20
:100360003FBFBA2FA92F982F8827BC01CD01620F5C
:10037000711D811D911D42E0660F771F881F991F17
:100380004A95D1F70895CF92DF92EF92FF92CF93E3
:10039000DF936B017C010E949E01EB01C114D1042B
:1003A000E104F10439F4DF91CF91FF90EF90DF90F9
:1003B000CF9008950E940C030E949E016C1B7D0B40
:1003C000683E734058F381E0C81AD108E108F1088B
:1003D000C851DC4FE3CF789484B5826084BD84B586
:1003E000816084BD85B5826085BD85B5816085BD30
:1003F000EEE6F0E0808181608083E1E8F0E0108249
:10040000808182608083808181608083E0E8F0E089
:10041000808181608083E1E9F0E080818260808377
:10042000808181608083E0E9F0E080818160808369
:10043000E1ECF0E080818460808380818260808351
:10044000808181608083E3ECF0E080818160808343
:10045000E0ECF0E0808182608083E2ECF0E080817B
:1004600081608083EAE7F0E080818460808380811E
:1004700082608083808181608083808180688083C6
:10048000089590E0FC013197EF30F10508F045C088
:10049000E45BFD4F0C94960869026D025B026102F9
:1004A00065028D028D028D02700276027A027E0252
:1004B00084028D028802809180008F778093800073
:1004C0000895809180008F7DF9CF80918000877F93
:1004D000F5CF84B58F7784BD089584B58F7DFBCF2C
:1004E000809190008F778093900008958091900084
:1004F0008F7DF9CF80919000877FF5CF8091C000EC
:100500008F778093C00008958091C0008F7DF9CFD0
:100510008091C200877F8093C2000895CF93DF93BC
:1005200090E0FC01E653FF4F249188519F4FFC015E
:1005300084918823C9F090E0880F991FFC01EC5E3C
:10054000FE4FA591B491FC01EA5FFE4FC591D49195
:1005500061110DC09FB7F8948C91209582238C93E4
:100560008881282328839FBFDF91CF91089562302F
:1005700051F49FB7F8943C91822F809583238C93FC
:10058000E8812E2BEFCF8FB7F894EC912E2B2C9384
:100590008FBFEACF1F93CF93DF93162F282F30E022
:1005A000F901E455FF4F8491F901E653FF4FD491CF
:1005B000F901E851FF4FC491CC23A1F081110E94B1
:1005C0004102EC2FF0E0EE0FFF1FEA5FFE4FA59116
:1005D000B4918FB7F894EC91111108C0D095DE2337
:1005E000DC938FBFDF91CF911F910895DE2BF8CF61
:1005F00008950E94EB010E94F8028DE291E00E94B2
:10060000FB060E940001C0E0D0E00E940C01209790
:10061000E1F30E940000F9CF0895615030F020917D
:10062000F100FC0120830196F8CF289884E680939E
:1006300036010895409131015091320120912F01EE
:100640003091300142175307B4F49091E80095704F
:10065000E1F39091E80092FD19C08093F100809140
:1006600031019091320101968F739927892B19F4EA
:100670008EEF8093E80080913101909132010196D4
:10068000909332018093310181E0089580E00895D4
:10069000DF92EF92FF920F931F93CF93DF937C0132
:1006A000D42E062F10E0C8010196880F0E941A036D
:1006B00083E00E941A03D0E0ED2FF0E0E017F1078D
:1006C0008CF4EE0DFF1DD7FE0BC084910E941A031F
:1006D000C82F80E00E941A038C2329F0DF5FECCF43
:1006E0008081F4CF81E0DF91CF911F910F91FF9036
:1006F000EF90DF9008958091D70081608093D700BC
:1007000080EA8093D80089B5806189BD89B582600F
:1007100089BD09B400FEFDCF61E070E080E090E0AB
:100720000E94C3018091D8008F7C80618093D800A3
:100730008091E000807F8093E0000895CF93DF9365
:100740001F92CDB7DEB71982CE0101960E946B07CA
:100750000E948208BE016F5F7F4F0E94FE07898161
:100760000F90DF91CF9108952FB7FC012083F8946B
:1007700067706093E9000895CF93DF931F92CDB720
:10078000DEB7682FCE0101960E94B4038091F2007B
:1007900099819FBF0F90DF91CF910895EF92FF92C3
:1007A0000F931F93CF93DF931F92CDB7DEB77B01DB
:1007B0008A0190913501992311F057FF13C08FEFF3
:1007C0009FEF08C0009721F02091F200222311F141
:1007D00029812FBF0F90DF91CF911F910F91FF9033
:1007E000EF900895682FCE0101960E94B403809186
:1007F000F20090E0081719070CF4C801282FF70140
:1008000034E62150F8F22898309336014091F100F7
:100810004193F7CF2BE62093E800DACFCF93DF9315
:100820001F92CDB7DEB741E050E0BE016F5F7F4F52
:100830000E94CE03019731F4898190E00F90DF91FF
:10084000CF9108958FEF9FEFF9CFCF93DF931F9252
:10085000CDB7DEB7682FCE0101960E94B403909108
:10086000E800892F807295FF04C09091F20080E427
:10087000891B99819FBF0F90DF91CF9108956F924F
:100880007F928F929F92AF92BF92CF92DF92EF9220
:10089000FF920F931F93CF93DF931F92CDB7DEB7D5
:1008A000A82EB42E052F80913501882309F16B0104
:1008B000E42EF52E8AEF982E8A2D8072782E9AE3F8
:1008C000892E8A2D8074682EE114F10409F459C030
:1008D0008A2D0E942504182F81111CC09A949920FA
:1008E00039F061E070E080E090E00E94C301ECCF5D
:1008F0008FEF9FEF0F90DF91CF911F910F91FF909E
:10090000EF90DF90CF90BF90AF909F908F907F90AF
:100910006F90089590E0E816F9060CF41E2D6A2DEC
:10092000CE0101960E94B4038091E80085FF1BC0B0
:10093000812F90E0E81AF90A772029F0115050F041
:100940001092F100FBCFF601A7FE15C0115070F414
:10095000C80ED91E8091E80085FF1AC0E114F10489
:1009600011F4611015C089818FBFAECF24912093FF
:10097000F1003196EBCF115058F321912093F10003
:10098000FACF5D9884E6809337018B2D902FB2CFFC
:100990008092E800E8CF1092E900109232011092A4
:1009A00031019093300180932F010895DF92EF92EF
:1009B000FF920F931F93CF93DF93D82E8A01EB0101
:1009C0007B01E40EF51ECE15DF0559F0D7FE12C0EF
:1009D000FE0184910E941A0321968111F4CF0FEF3A
:1009E0001FEFC801DF91CF911F910F91FF90EF9002
:1009F000DF9008958881EECFCF93DF93EB012091B4
:100A0000E80022FFFCCF6C2F0E940D038BEF809338
:100A1000E800CE01DF91CF9108951F920F920FB69B
:100A20000F921124CF92DF92EF92FF920F931F93B8
:100A30002F933F934F935F936F937F938F939F93E6
:100A4000AF93BF93EF93FF93CF93DF93CDB7DEB711
:100A50006C97DEBFCDBF1092E9008091E80083FF64
:100A600025C068E0CE0145960E940D0382EF809379
:100A7000E8008D8987FF39C09091E80090FFFCCF96
:100A8000982F907609F010C19E894F89588D2F8933
:100A9000188D911131C0803861F5809134018093B7
:100AA000F1001092F1008EEF8093E8006C960FB683
:100AB000F894DEBF0FBECDBFDF91CF91FF91EF91D4
:100AC000BF91AF919F918F917F916F915F914F9166
:100AD0003F912F911F910F91FF90EF90DF90CF905A
:100AE0000F900FBE0F901F9018959EEF9093E80007
:100AF000C7CF1092F100D5CF913059F48111D3CFE7
:100B00004130510581F6809134018D7F809334010D
:100B1000CACF933049F48111C6CF4130510519F63F
:100B2000809134018260F2CF953041F48091E800E9
:100B300080FFFCCF20682093E300B5CF963009F00A
:100B400086C0EB8CFC8C123069F580E090E00E944E
:100B5000CB040E949E0399E09E012F5F3F4F6901E5
:100B6000F901292F11922A95E9F799831A8391E0C7
:100B70009E8390EA98879AEF99872091310130916E
:100B80003201275F3F4F3C832B838D83C7010E9437
:100B9000CB0449E050E0B60180E00E94D6040E94F8
:100BA0009E0381CFC7010E94CB040E948208BE0130
:100BB0006B5E7F4F0E942608009731F00CF073CFD8
:100BC00081E28093EB0072CF1130A1F48B8D9C8D6C
:100BD000089719F481E080932E0180912E018111F4
:100BE00077C064E371E0FB01449150E080E80E942B
:100BF000D60459CF133021F78F89882309F46BC0AD
:100C0000823049F440E860E182E591E00E944803C7
:100C10008823B1F248CF813029F440E86BE086E4C4
:100C200091E0F4CF833061F60E9482088E010F5F5D
:100C30001F4FB8010E944508F80101900020E9F714
:100C40003197BF01601B710B40E0C801DFCF9730C7
:100C500009F4B6CF983021F481E08093F10023CFDE
:100C6000993009F020CF837009F0AACFE1E0F1E0DC
:100C700081E031E096E32081211109C08EE7809365
:100C8000EA001092EA008F89809335010CCF80939F
:100C9000E9003093EB0021912093EC009093ED005C
:100CA0008F5F873041F7EACF8B8D9C8D0E94CB04FC
:100CB000898D811105C0CE0145960E947607A8CF87
:100CC0000E948208BE016B5E7F4F0E946408A0CF25
:100CD00062E271E088CF63E671E085CF8093E9003E
:100CE0008091F200882319F08AE38093E800089548
:100CF0001F920F920FB60F9211242F933F934F9391
:100D00005F936F937F938F939F93AF93BF93CF9393
:100D1000EF93FF93C091E1008091E100837F809386
:100D2000E1008093E100C3FF0FC01092E90081E071
:100D30008093EB001092EC0082E38093ED00109220
:100D4000350188E08093F000C2FF1AC083E00E9462
:100D50006E0680913701882341F0809137018150E0
:100D600080933701882309F442C08091360188239B
:100D700039F0809136018150809336018823C9F182
:100D8000C4FF23C08091E2008E7E81608093E200E8
:100D90008091E1008F7E8093E100809133018E7E0F
:100DA000806180933301FF91EF91CF91BF91AF911B
:100DB0009F918F917F916F915F914F913F912F9173
:100DC0000F900FBE0F901F901895C0FFECCF809131
:100DD000E2008E7E80618093E2008091E1008E7E51
:100DE0008093E100809133018E7E8160DACF5D9A3D
:100DF000BCCF289AC5CF10923501109234011092C1
:100E000033010E947B03E1EEF0E080818E7E8083DF
:100E10008DE08093E200559A209A0895CF93DF9356
:100E20001F92CDB7DEB76983DC01ED91FC910280A2
:100E3000F381E02D41E050E0BE016F5F7F4F0995E7
:100E40000F90DF91CF910895CF93DF93EC018C85C4
:100E50009D8597FF05C082E00E940E049D878C87C8
:100E60008C859D85DF91CF91089583E00C946E066B
:100E7000FC018485958597FD06C082E00E94BC0335
:100E800090E00196089582E00E94BC0390E00895EE
:100E9000FC018485958597FD05C02FEF3FEF3587D1
:100EA0002487089582E00C940E04CF93DF93EC0125
:100EB00080911201882331F083E00E943F041816CC
:100EC000190634F081E090E09B838A8380E090E013
:100ED000DF91CF910895FC0190819E5F908342E461
:100EE00050E067E671E080E80C94D604FC01818153
:100EF0009081913A61F4813209F050C047E050E0AE
:100F00006BE071E080E00E94D60481E008959132A8
:100F100009F044C0833269F482819381A0E0B0E09B
:100F20008093070190930801A0930901B0930A01EF
:100F3000ECCF803261F567E070E08BE091E00E94D9
:100F4000FC0480910B0190910C01A0910D01B091D6
:100F50000E01803B9440A105B10521F4809112015E
:100F600080FF1EC00FB6F894A8958091600088613C
:100F700080936000109260000FBEA8958091FE0AD9
:100F80009091FF0A9093010880930008BECF8232AF
:100F900009F0BBCF828180931201D3CF80E0089506
:100FA00080910008909101089093FF0A8093FE0AB7
:100FB00087E797E790930108809300089BE088E11A
:100FC0000FB6F894A895809360000FBE90936000D0
:100FD0009CCFE8E3F1E01382128288EE93E0A0E078
:100FE000B0E084839583A683B78387E191E0918302
:100FF00080838FEF9FEF958784870895EF92FF920C
:101000000F931F93CF93DF937B01FC01C281D381A8
:1010100000E010E0209791F0E881F9810280F381EF
:10102000E02DB701CE01099597FD06C0080F191FE5
:101030000884D985C02DEECF0FEF1FEFC801DF91D7
:10104000CF911F910F91FF90EF9008950F931F93F1
:10105000CF93DF938B01FC01C281D381209771F084
:10106000E881F9810480F581E02DB801CE01099570
:10107000009731F40884D985C02DF0CF80E090E04E
:10108000DF91CF911F910F9108950F931F93CF93ED
:10109000DF938B01FC01C281D381209771F0E8813D
:1010A000F9810680F781E02DB801CE010995080F7E
:1010B000111D0884D985C02DF0CFF8011082DF9171
:1010C000CF911F910F9108950F931F93CF93DF93AB
:1010D0008B01FC01C281D381209771F0E881F981F5
:1010E0000190F081E02DB801CE010995811105C074
:1010F0000884D985C02DF0CF80E0DF91CF911F917A
:101100000F9108958091880181110DC082E0809334
:10111000900184E0809391011092930110929201CA
:1011200081E08093880180E991E00895EE0FFF1F30
:0C1130000590F491E02D0994F894FFCF95
:10113C0000C18081000000FFFFFFFF00E100000004
:10114C00000000000000000E075507380748072470
:04115C00073507004C
:00000001FF
